{
	"Distribution.sol": {
		"Distribution": {
			"abi": [
				{
					"inputs": [
						{
							"internalType": "address",
							"name": "_tokenAddress",
							"type": "address"
						}
					],
					"stateMutability": "nonpayable",
					"type": "constructor"
				},
				{
					"inputs": [],
					"name": "AccessControlBadConfirmation",
					"type": "error"
				},
				{
					"inputs": [
						{
							"internalType": "address",
							"name": "account",
							"type": "address"
						},
						{
							"internalType": "bytes32",
							"name": "neededRole",
							"type": "bytes32"
						}
					],
					"name": "AccessControlUnauthorizedAccount",
					"type": "error"
				},
				{
					"inputs": [
						{
							"internalType": "address",
							"name": "owner",
							"type": "address"
						}
					],
					"name": "OwnableInvalidOwner",
					"type": "error"
				},
				{
					"inputs": [
						{
							"internalType": "address",
							"name": "account",
							"type": "address"
						}
					],
					"name": "OwnableUnauthorizedAccount",
					"type": "error"
				},
				{
					"anonymous": false,
					"inputs": [
						{
							"indexed": false,
							"internalType": "address",
							"name": "beneficiary",
							"type": "address"
						},
						{
							"indexed": false,
							"internalType": "uint256",
							"name": "amount",
							"type": "uint256"
						}
					],
					"name": "ClaimTokens",
					"type": "event"
				},
				{
					"anonymous": false,
					"inputs": [
						{
							"indexed": true,
							"internalType": "address",
							"name": "previousOwner",
							"type": "address"
						},
						{
							"indexed": true,
							"internalType": "address",
							"name": "newOwner",
							"type": "address"
						}
					],
					"name": "OwnershipTransferred",
					"type": "event"
				},
				{
					"anonymous": false,
					"inputs": [
						{
							"indexed": true,
							"internalType": "bytes32",
							"name": "role",
							"type": "bytes32"
						},
						{
							"indexed": true,
							"internalType": "bytes32",
							"name": "previousAdminRole",
							"type": "bytes32"
						},
						{
							"indexed": true,
							"internalType": "bytes32",
							"name": "newAdminRole",
							"type": "bytes32"
						}
					],
					"name": "RoleAdminChanged",
					"type": "event"
				},
				{
					"anonymous": false,
					"inputs": [
						{
							"indexed": true,
							"internalType": "bytes32",
							"name": "role",
							"type": "bytes32"
						},
						{
							"indexed": true,
							"internalType": "address",
							"name": "account",
							"type": "address"
						},
						{
							"indexed": true,
							"internalType": "address",
							"name": "sender",
							"type": "address"
						}
					],
					"name": "RoleGranted",
					"type": "event"
				},
				{
					"anonymous": false,
					"inputs": [
						{
							"indexed": true,
							"internalType": "bytes32",
							"name": "role",
							"type": "bytes32"
						},
						{
							"indexed": true,
							"internalType": "address",
							"name": "account",
							"type": "address"
						},
						{
							"indexed": true,
							"internalType": "address",
							"name": "sender",
							"type": "address"
						}
					],
					"name": "RoleRevoked",
					"type": "event"
				},
				{
					"inputs": [],
					"name": "DEFAULT_ADMIN_ROLE",
					"outputs": [
						{
							"internalType": "bytes32",
							"name": "",
							"type": "bytes32"
						}
					],
					"stateMutability": "view",
					"type": "function"
				},
				{
					"inputs": [],
					"name": "LONG",
					"outputs": [
						{
							"internalType": "uint256",
							"name": "",
							"type": "uint256"
						}
					],
					"stateMutability": "view",
					"type": "function"
				},
				{
					"inputs": [],
					"name": "MEDIUM",
					"outputs": [
						{
							"internalType": "uint256",
							"name": "",
							"type": "uint256"
						}
					],
					"stateMutability": "view",
					"type": "function"
				},
				{
					"inputs": [],
					"name": "SHORT",
					"outputs": [
						{
							"internalType": "uint256",
							"name": "",
							"type": "uint256"
						}
					],
					"stateMutability": "view",
					"type": "function"
				},
				{
					"inputs": [],
					"name": "SHORT_CLIFF",
					"outputs": [
						{
							"internalType": "uint256",
							"name": "",
							"type": "uint256"
						}
					],
					"stateMutability": "view",
					"type": "function"
				},
				{
					"inputs": [
						{
							"internalType": "address",
							"name": "",
							"type": "address"
						}
					],
					"name": "accountInfo",
					"outputs": [
						{
							"internalType": "uint32",
							"name": "provided",
							"type": "uint32"
						},
						{
							"internalType": "uint256",
							"name": "claimed",
							"type": "uint256"
						},
						{
							"internalType": "uint32",
							"name": "long",
							"type": "uint32"
						},
						{
							"internalType": "uint32",
							"name": "medium",
							"type": "uint32"
						},
						{
							"internalType": "uint32",
							"name": "short",
							"type": "uint32"
						}
					],
					"stateMutability": "view",
					"type": "function"
				},
				{
					"inputs": [],
					"name": "claimTokens",
					"outputs": [],
					"stateMutability": "nonpayable",
					"type": "function"
				},
				{
					"inputs": [
						{
							"internalType": "address",
							"name": "_account",
							"type": "address"
						}
					],
					"name": "claimableTokens",
					"outputs": [
						{
							"internalType": "uint256",
							"name": "",
							"type": "uint256"
						}
					],
					"stateMutability": "view",
					"type": "function"
				},
				{
					"inputs": [
						{
							"internalType": "address",
							"name": "_account",
							"type": "address"
						}
					],
					"name": "claimedTokens",
					"outputs": [
						{
							"internalType": "uint256",
							"name": "",
							"type": "uint256"
						}
					],
					"stateMutability": "view",
					"type": "function"
				},
				{
					"inputs": [
						{
							"internalType": "bytes32",
							"name": "role",
							"type": "bytes32"
						}
					],
					"name": "getRoleAdmin",
					"outputs": [
						{
							"internalType": "bytes32",
							"name": "",
							"type": "bytes32"
						}
					],
					"stateMutability": "view",
					"type": "function"
				},
				{
					"inputs": [
						{
							"internalType": "bytes32",
							"name": "role",
							"type": "bytes32"
						},
						{
							"internalType": "address",
							"name": "account",
							"type": "address"
						}
					],
					"name": "grantRole",
					"outputs": [],
					"stateMutability": "nonpayable",
					"type": "function"
				},
				{
					"inputs": [
						{
							"internalType": "bytes32",
							"name": "role",
							"type": "bytes32"
						},
						{
							"internalType": "address",
							"name": "account",
							"type": "address"
						}
					],
					"name": "hasRole",
					"outputs": [
						{
							"internalType": "bool",
							"name": "",
							"type": "bool"
						}
					],
					"stateMutability": "view",
					"type": "function"
				},
				{
					"inputs": [
						{
							"internalType": "address",
							"name": "_account",
							"type": "address"
						}
					],
					"name": "info",
					"outputs": [
						{
							"internalType": "uint256",
							"name": "",
							"type": "uint256"
						},
						{
							"internalType": "uint256",
							"name": "",
							"type": "uint256"
						},
						{
							"internalType": "uint256",
							"name": "",
							"type": "uint256"
						},
						{
							"internalType": "uint256",
							"name": "",
							"type": "uint256"
						},
						{
							"internalType": "uint256",
							"name": "",
							"type": "uint256"
						}
					],
					"stateMutability": "view",
					"type": "function"
				},
				{
					"inputs": [],
					"name": "owner",
					"outputs": [
						{
							"internalType": "address",
							"name": "",
							"type": "address"
						}
					],
					"stateMutability": "view",
					"type": "function"
				},
				{
					"inputs": [],
					"name": "renounceOwnership",
					"outputs": [],
					"stateMutability": "nonpayable",
					"type": "function"
				},
				{
					"inputs": [
						{
							"internalType": "bytes32",
							"name": "role",
							"type": "bytes32"
						},
						{
							"internalType": "address",
							"name": "callerConfirmation",
							"type": "address"
						}
					],
					"name": "renounceRole",
					"outputs": [],
					"stateMutability": "nonpayable",
					"type": "function"
				},
				{
					"inputs": [
						{
							"internalType": "bytes32",
							"name": "role",
							"type": "bytes32"
						},
						{
							"internalType": "address",
							"name": "account",
							"type": "address"
						}
					],
					"name": "revokeRole",
					"outputs": [],
					"stateMutability": "nonpayable",
					"type": "function"
				},
				{
					"inputs": [
						{
							"internalType": "address[]",
							"name": "accounts",
							"type": "address[]"
						},
						{
							"internalType": "uint32[]",
							"name": "long",
							"type": "uint32[]"
						},
						{
							"internalType": "uint32[]",
							"name": "medium",
							"type": "uint32[]"
						},
						{
							"internalType": "uint32[]",
							"name": "short",
							"type": "uint32[]"
						},
						{
							"internalType": "uint32[]",
							"name": "claimed",
							"type": "uint32[]"
						}
					],
					"name": "setAccountsInfo",
					"outputs": [],
					"stateMutability": "nonpayable",
					"type": "function"
				},
				{
					"inputs": [
						{
							"internalType": "uint256",
							"name": "_start",
							"type": "uint256"
						}
					],
					"name": "setStart",
					"outputs": [],
					"stateMutability": "nonpayable",
					"type": "function"
				},
				{
					"inputs": [],
					"name": "start",
					"outputs": [
						{
							"internalType": "uint256",
							"name": "",
							"type": "uint256"
						}
					],
					"stateMutability": "view",
					"type": "function"
				},
				{
					"inputs": [
						{
							"internalType": "bytes4",
							"name": "interfaceId",
							"type": "bytes4"
						}
					],
					"name": "supportsInterface",
					"outputs": [
						{
							"internalType": "bool",
							"name": "",
							"type": "bool"
						}
					],
					"stateMutability": "view",
					"type": "function"
				},
				{
					"inputs": [],
					"name": "token",
					"outputs": [
						{
							"internalType": "contract Token",
							"name": "",
							"type": "address"
						}
					],
					"stateMutability": "view",
					"type": "function"
				},
				{
					"inputs": [
						{
							"internalType": "address",
							"name": "newOwner",
							"type": "address"
						}
					],
					"name": "transferOwnership",
					"outputs": [],
					"stateMutability": "nonpayable",
					"type": "function"
				},
				{
					"inputs": [
						{
							"internalType": "address",
							"name": "_account",
							"type": "address"
						}
					],
					"name": "vestedTokens",
					"outputs": [
						{
							"internalType": "uint256",
							"name": "",
							"type": "uint256"
						}
					],
					"stateMutability": "view",
					"type": "function"
				}
			],
			"devdoc": {
				"errors": {
					"AccessControlBadConfirmation()": [
						{
							"details": "The caller of a function is not the expected one. NOTE: Don't confuse with {AccessControlUnauthorizedAccount}."
						}
					],
					"AccessControlUnauthorizedAccount(address,bytes32)": [
						{
							"details": "The `account` is missing a role."
						}
					],
					"OwnableInvalidOwner(address)": [
						{
							"details": "The owner is not a valid owner account. (eg. `address(0)`)"
						}
					],
					"OwnableUnauthorizedAccount(address)": [
						{
							"details": "The caller account is not authorized to perform an operation."
						}
					]
				},
				"events": {
					"RoleAdminChanged(bytes32,bytes32,bytes32)": {
						"details": "Emitted when `newAdminRole` is set as ``role``'s admin role, replacing `previousAdminRole` `DEFAULT_ADMIN_ROLE` is the starting admin for all roles, despite {RoleAdminChanged} not being emitted signaling this."
					},
					"RoleGranted(bytes32,address,address)": {
						"details": "Emitted when `account` is granted `role`. `sender` is the account that originated the contract call, an admin role bearer except when using {AccessControl-_setupRole}."
					},
					"RoleRevoked(bytes32,address,address)": {
						"details": "Emitted when `account` is revoked `role`. `sender` is the account that originated the contract call:   - if using `revokeRole`, it is the admin role bearer   - if using `renounceRole`, it is the role bearer (i.e. `account`)"
					}
				},
				"kind": "dev",
				"methods": {
					"getRoleAdmin(bytes32)": {
						"details": "Returns the admin role that controls `role`. See {grantRole} and {revokeRole}. To change a role's admin, use {_setRoleAdmin}."
					},
					"grantRole(bytes32,address)": {
						"details": "Grants `role` to `account`. If `account` had not been already granted `role`, emits a {RoleGranted} event. Requirements: - the caller must have ``role``'s admin role. May emit a {RoleGranted} event."
					},
					"hasRole(bytes32,address)": {
						"details": "Returns `true` if `account` has been granted `role`."
					},
					"owner()": {
						"details": "Returns the address of the current owner."
					},
					"renounceOwnership()": {
						"details": "Leaves the contract without owner. It will not be possible to call `onlyOwner` functions. Can only be called by the current owner. NOTE: Renouncing ownership will leave the contract without an owner, thereby disabling any functionality that is only available to the owner."
					},
					"renounceRole(bytes32,address)": {
						"details": "Revokes `role` from the calling account. Roles are often managed via {grantRole} and {revokeRole}: this function's purpose is to provide a mechanism for accounts to lose their privileges if they are compromised (such as when a trusted device is misplaced). If the calling account had been revoked `role`, emits a {RoleRevoked} event. Requirements: - the caller must be `callerConfirmation`. May emit a {RoleRevoked} event."
					},
					"revokeRole(bytes32,address)": {
						"details": "Revokes `role` from `account`. If `account` had been granted `role`, emits a {RoleRevoked} event. Requirements: - the caller must have ``role``'s admin role. May emit a {RoleRevoked} event."
					},
					"supportsInterface(bytes4)": {
						"details": "See {IERC165-supportsInterface}."
					},
					"transferOwnership(address)": {
						"details": "Transfers ownership of the contract to a new account (`newOwner`). Can only be called by the current owner."
					}
				},
				"version": 1
			},
			"evm": {
				"assembly": "    /* \"Distribution.sol\":270:4446  contract Distribution is Ownable, AccessControl, ReentrancyGuard {... */\n  mstore(0x40, 0x80)\n    /* \"Distribution.sol\":849:985  constructor(address _tokenAddress) Ownable(msg.sender) {... */\n  callvalue\n  dup1\n  iszero\n  tag_1\n  jumpi\n  0x00\n  dup1\n  revert\ntag_1:\n  pop\n  mload(0x40)\n  sub(codesize, bytecodeSize)\n  dup1\n  bytecodeSize\n  dup4\n  codecopy\n  dup2\n  dup2\n  add\n  0x40\n  mstore\n  dup2\n  add\n  swap1\n  tag_2\n  swap2\n  swap1\n  tag_3\n  jump\t// in\ntag_2:\n    /* \"Distribution.sol\":892:902  msg.sender */\n  caller\n    /* \"@openzeppelin/contracts/access/Ownable.sol\":1297:1298  0 */\n  0x00\n    /* \"@openzeppelin/contracts/access/Ownable.sol\":1273:1299  initialOwner == address(0) */\n  0xffffffffffffffffffffffffffffffffffffffff\n  and\n    /* \"@openzeppelin/contracts/access/Ownable.sol\":1273:1285  initialOwner */\n  dup2\n    /* \"@openzeppelin/contracts/access/Ownable.sol\":1273:1299  initialOwner == address(0) */\n  0xffffffffffffffffffffffffffffffffffffffff\n  and\n  sub\n    /* \"@openzeppelin/contracts/access/Ownable.sol\":1269:1364  if (initialOwner == address(0)) {... */\n  tag_8\n  jumpi\n    /* \"@openzeppelin/contracts/access/Ownable.sol\":1350:1351  0 */\n  0x00\n    /* \"@openzeppelin/contracts/access/Ownable.sol\":1322:1353  OwnableInvalidOwner(address(0)) */\n  mload(0x40)\n  0x1e4fbdf700000000000000000000000000000000000000000000000000000000\n  dup2\n  mstore\n  0x04\n  add\n  tag_9\n  swap2\n  swap1\n  tag_10\n  jump\t// in\ntag_9:\n  mload(0x40)\n  dup1\n  swap2\n  sub\n  swap1\n  revert\n    /* \"@openzeppelin/contracts/access/Ownable.sol\":1269:1364  if (initialOwner == address(0)) {... */\ntag_8:\n    /* \"@openzeppelin/contracts/access/Ownable.sol\":1373:1405  _transferOwnership(initialOwner) */\n  tag_11\n    /* \"@openzeppelin/contracts/access/Ownable.sol\":1392:1404  initialOwner */\n  dup2\n    /* \"@openzeppelin/contracts/access/Ownable.sol\":1373:1391  _transferOwnership */\n  shl(0x20, tag_12)\n    /* \"@openzeppelin/contracts/access/Ownable.sol\":1373:1405  _transferOwnership(initialOwner) */\n  0x20\n  shr\n  jump\t// in\ntag_11:\n    /* \"@openzeppelin/contracts/access/Ownable.sol\":1225:1412  constructor(address initialOwner) {... */\n  pop\n    /* \"@openzeppelin/contracts/security/ReentrancyGuard.sol\":1716:1717  1 */\n  0x01\n    /* \"@openzeppelin/contracts/security/ReentrancyGuard.sol\":1821:1828  _status */\n  0x02\n    /* \"@openzeppelin/contracts/security/ReentrancyGuard.sol\":1821:1843  _status = _NOT_ENTERED */\n  dup2\n  swap1\n  sstore\n  pop\n    /* \"Distribution.sol\":929:942  _tokenAddress */\n  dup1\n    /* \"Distribution.sol\":915:920  token */\n  0x03\n  0x00\n    /* \"Distribution.sol\":915:943  token = Token(_tokenAddress) */\n  0x0100\n  exp\n  dup2\n  sload\n  dup2\n  0xffffffffffffffffffffffffffffffffffffffff\n  mul\n  not\n  and\n  swap1\n  dup4\n  0xffffffffffffffffffffffffffffffffffffffff\n  and\n  mul\n  or\n  swap1\n  sstore\n  pop\n    /* \"Distribution.sol\":962:977  block.timestamp */\n  timestamp\n    /* \"Distribution.sol\":954:959  start */\n  0x04\n    /* \"Distribution.sol\":954:977  start = block.timestamp */\n  dup2\n  swap1\n  sstore\n  pop\n    /* \"Distribution.sol\":849:985  constructor(address _tokenAddress) Ownable(msg.sender) {... */\n  pop\n    /* \"Distribution.sol\":270:4446  contract Distribution is Ownable, AccessControl, ReentrancyGuard {... */\n  jump(tag_15)\n    /* \"@openzeppelin/contracts/access/Ownable.sol\":2912:3099  function _transferOwnership(address newOwner) internal virtual {... */\ntag_12:\n    /* \"@openzeppelin/contracts/access/Ownable.sol\":2985:3001  address oldOwner */\n  0x00\n    /* \"@openzeppelin/contracts/access/Ownable.sol\":3004:3010  _owner */\n  dup1\n  0x00\n  swap1\n  sload\n  swap1\n  0x0100\n  exp\n  swap1\n  div\n  0xffffffffffffffffffffffffffffffffffffffff\n  and\n    /* \"@openzeppelin/contracts/access/Ownable.sol\":2985:3010  address oldOwner = _owner */\n  swap1\n  pop\n    /* \"@openzeppelin/contracts/access/Ownable.sol\":3029:3037  newOwner */\n  dup2\n    /* \"@openzeppelin/contracts/access/Ownable.sol\":3020:3026  _owner */\n  0x00\n  dup1\n    /* \"@openzeppelin/contracts/access/Ownable.sol\":3020:3037  _owner = newOwner */\n  0x0100\n  exp\n  dup2\n  sload\n  dup2\n  0xffffffffffffffffffffffffffffffffffffffff\n  mul\n  not\n  and\n  swap1\n  dup4\n  0xffffffffffffffffffffffffffffffffffffffff\n  and\n  mul\n  or\n  swap1\n  sstore\n  pop\n    /* \"@openzeppelin/contracts/access/Ownable.sol\":3083:3091  newOwner */\n  dup2\n    /* \"@openzeppelin/contracts/access/Ownable.sol\":3052:3092  OwnershipTransferred(oldOwner, newOwner) */\n  0xffffffffffffffffffffffffffffffffffffffff\n  and\n    /* \"@openzeppelin/contracts/access/Ownable.sol\":3073:3081  oldOwner */\n  dup2\n    /* \"@openzeppelin/contracts/access/Ownable.sol\":3052:3092  OwnershipTransferred(oldOwner, newOwner) */\n  0xffffffffffffffffffffffffffffffffffffffff\n  and\n  0x8be0079c531659141344cd1fd0a4f28419497f9722a3daafe3b4186f6b6457e0\n  mload(0x40)\n  mload(0x40)\n  dup1\n  swap2\n  sub\n  swap1\n  log3\n    /* \"@openzeppelin/contracts/access/Ownable.sol\":2975:3099  {... */\n  pop\n    /* \"@openzeppelin/contracts/access/Ownable.sol\":2912:3099  function _transferOwnership(address newOwner) internal virtual {... */\n  pop\n  jump\t// out\n    /* \"#utility.yul\":88:205   */\ntag_18:\n    /* \"#utility.yul\":197:198   */\n  0x00\n    /* \"#utility.yul\":194:195   */\n  dup1\n    /* \"#utility.yul\":187:199   */\n  revert\n    /* \"#utility.yul\":334:460   */\ntag_20:\n    /* \"#utility.yul\":371:378   */\n  0x00\n    /* \"#utility.yul\":411:453   */\n  0xffffffffffffffffffffffffffffffffffffffff\n    /* \"#utility.yul\":404:409   */\n  dup3\n    /* \"#utility.yul\":400:454   */\n  and\n    /* \"#utility.yul\":389:454   */\n  swap1\n  pop\n    /* \"#utility.yul\":334:460   */\n  swap2\n  swap1\n  pop\n  jump\t// out\n    /* \"#utility.yul\":466:562   */\ntag_21:\n    /* \"#utility.yul\":503:510   */\n  0x00\n    /* \"#utility.yul\":532:556   */\n  tag_31\n    /* \"#utility.yul\":550:555   */\n  dup3\n    /* \"#utility.yul\":532:556   */\n  tag_20\n  jump\t// in\ntag_31:\n    /* \"#utility.yul\":521:556   */\n  swap1\n  pop\n    /* \"#utility.yul\":466:562   */\n  swap2\n  swap1\n  pop\n  jump\t// out\n    /* \"#utility.yul\":568:690   */\ntag_22:\n    /* \"#utility.yul\":641:665   */\n  tag_33\n    /* \"#utility.yul\":659:664   */\n  dup2\n    /* \"#utility.yul\":641:665   */\n  tag_21\n  jump\t// in\ntag_33:\n    /* \"#utility.yul\":634:639   */\n  dup2\n    /* \"#utility.yul\":631:666   */\n  eq\n    /* \"#utility.yul\":621:684   */\n  tag_34\n  jumpi\n    /* \"#utility.yul\":680:681   */\n  0x00\n    /* \"#utility.yul\":677:678   */\n  dup1\n    /* \"#utility.yul\":670:682   */\n  revert\n    /* \"#utility.yul\":621:684   */\ntag_34:\n    /* \"#utility.yul\":568:690   */\n  pop\n  jump\t// out\n    /* \"#utility.yul\":696:839   */\ntag_23:\n    /* \"#utility.yul\":753:758   */\n  0x00\n    /* \"#utility.yul\":784:790   */\n  dup2\n    /* \"#utility.yul\":778:791   */\n  mload\n    /* \"#utility.yul\":769:791   */\n  swap1\n  pop\n    /* \"#utility.yul\":800:833   */\n  tag_36\n    /* \"#utility.yul\":827:832   */\n  dup2\n    /* \"#utility.yul\":800:833   */\n  tag_22\n  jump\t// in\ntag_36:\n    /* \"#utility.yul\":696:839   */\n  swap3\n  swap2\n  pop\n  pop\n  jump\t// out\n    /* \"#utility.yul\":845:1196   */\ntag_3:\n    /* \"#utility.yul\":915:921   */\n  0x00\n    /* \"#utility.yul\":964:966   */\n  0x20\n    /* \"#utility.yul\":952:961   */\n  dup3\n    /* \"#utility.yul\":943:950   */\n  dup5\n    /* \"#utility.yul\":939:962   */\n  sub\n    /* \"#utility.yul\":935:967   */\n  slt\n    /* \"#utility.yul\":932:1051   */\n  iszero\n  tag_38\n  jumpi\n    /* \"#utility.yul\":970:1049   */\n  tag_39\n  tag_18\n  jump\t// in\ntag_39:\n    /* \"#utility.yul\":932:1051   */\ntag_38:\n    /* \"#utility.yul\":1090:1091   */\n  0x00\n    /* \"#utility.yul\":1115:1179   */\n  tag_40\n    /* \"#utility.yul\":1171:1178   */\n  dup5\n    /* \"#utility.yul\":1162:1168   */\n  dup3\n    /* \"#utility.yul\":1151:1160   */\n  dup6\n    /* \"#utility.yul\":1147:1169   */\n  add\n    /* \"#utility.yul\":1115:1179   */\n  tag_23\n  jump\t// in\ntag_40:\n    /* \"#utility.yul\":1105:1179   */\n  swap2\n  pop\n    /* \"#utility.yul\":1061:1189   */\n  pop\n    /* \"#utility.yul\":845:1196   */\n  swap3\n  swap2\n  pop\n  pop\n  jump\t// out\n    /* \"#utility.yul\":1202:1320   */\ntag_24:\n    /* \"#utility.yul\":1289:1313   */\n  tag_42\n    /* \"#utility.yul\":1307:1312   */\n  dup2\n    /* \"#utility.yul\":1289:1313   */\n  tag_21\n  jump\t// in\ntag_42:\n    /* \"#utility.yul\":1284:1287   */\n  dup3\n    /* \"#utility.yul\":1277:1314   */\n  mstore\n    /* \"#utility.yul\":1202:1320   */\n  pop\n  pop\n  jump\t// out\n    /* \"#utility.yul\":1326:1548   */\ntag_10:\n    /* \"#utility.yul\":1419:1423   */\n  0x00\n    /* \"#utility.yul\":1457:1459   */\n  0x20\n    /* \"#utility.yul\":1446:1455   */\n  dup3\n    /* \"#utility.yul\":1442:1460   */\n  add\n    /* \"#utility.yul\":1434:1460   */\n  swap1\n  pop\n    /* \"#utility.yul\":1470:1541   */\n  tag_44\n    /* \"#utility.yul\":1538:1539   */\n  0x00\n    /* \"#utility.yul\":1527:1536   */\n  dup4\n    /* \"#utility.yul\":1523:1540   */\n  add\n    /* \"#utility.yul\":1514:1520   */\n  dup5\n    /* \"#utility.yul\":1470:1541   */\n  tag_24\n  jump\t// in\ntag_44:\n    /* \"#utility.yul\":1326:1548   */\n  swap3\n  swap2\n  pop\n  pop\n  jump\t// out\n    /* \"Distribution.sol\":270:4446  contract Distribution is Ownable, AccessControl, ReentrancyGuard {... */\ntag_15:\n  dataSize(sub_0)\n  dup1\n  dataOffset(sub_0)\n  0x00\n  codecopy\n  0x00\n  return\nstop\n\nsub_0: assembly {\n        /* \"Distribution.sol\":270:4446  contract Distribution is Ownable, AccessControl, ReentrancyGuard {... */\n      mstore(0x40, 0x80)\n      callvalue\n      dup1\n      iszero\n      tag_1\n      jumpi\n      0x00\n      dup1\n      revert\n    tag_1:\n      pop\n      jumpi(tag_2, lt(calldatasize, 0x04))\n      shr(0xe0, calldataload(0x00))\n      dup1\n      0x91d14854\n      gt\n      tag_27\n      jumpi\n      dup1\n      0xbe9a6555\n      gt\n      tag_28\n      jumpi\n      dup1\n      0xbe9a6555\n      eq\n      tag_21\n      jumpi\n      dup1\n      0xd547741f\n      eq\n      tag_22\n      jumpi\n      dup1\n      0xedee709e\n      eq\n      tag_23\n      jumpi\n      dup1\n      0xf2fde38b\n      eq\n      tag_24\n      jumpi\n      dup1\n      0xf6a03ebf\n      eq\n      tag_25\n      jumpi\n      dup1\n      0xfc0c546a\n      eq\n      tag_26\n      jumpi\n      jump(tag_2)\n    tag_28:\n      dup1\n      0x91d14854\n      eq\n      tag_15\n      jumpi\n      dup1\n      0xa217fddf\n      eq\n      tag_16\n      jumpi\n      dup1\n      0xa3da71b8\n      eq\n      tag_17\n      jumpi\n      dup1\n      0xa7310b58\n      eq\n      tag_18\n      jumpi\n      dup1\n      0xa871da91\n      eq\n      tag_19\n      jumpi\n      dup1\n      0xa960c65f\n      eq\n      tag_20\n      jumpi\n      jump(tag_2)\n    tag_27:\n      dup1\n      0x3dee0397\n      gt\n      tag_29\n      jumpi\n      dup1\n      0x3dee0397\n      eq\n      tag_9\n      jumpi\n      dup1\n      0x48c54b9d\n      eq\n      tag_10\n      jumpi\n      dup1\n      0x561cce0a\n      eq\n      tag_11\n      jumpi\n      dup1\n      0x715018a6\n      eq\n      tag_12\n      jumpi\n      dup1\n      0x84d24226\n      eq\n      tag_13\n      jumpi\n      dup1\n      0x8da5cb5b\n      eq\n      tag_14\n      jumpi\n      jump(tag_2)\n    tag_29:\n      dup1\n      0x01ffc9a7\n      eq\n      tag_3\n      jumpi\n      dup1\n      0x0aae7a6b\n      eq\n      tag_4\n      jumpi\n      dup1\n      0x248a9ca3\n      eq\n      tag_5\n      jumpi\n      dup1\n      0x2a484675\n      eq\n      tag_6\n      jumpi\n      dup1\n      0x2f2ff15d\n      eq\n      tag_7\n      jumpi\n      dup1\n      0x36568abe\n      eq\n      tag_8\n      jumpi\n    tag_2:\n      0x00\n      dup1\n      revert\n        /* \"@openzeppelin/contracts/access/AccessControl.sol\":2565:2767  function supportsInterface(bytes4 interfaceId) public view virtual override returns (bool) {... */\n    tag_3:\n      tag_30\n      0x04\n      dup1\n      calldatasize\n      sub\n      dup2\n      add\n      swap1\n      tag_31\n      swap2\n      swap1\n      tag_32\n      jump\t// in\n    tag_31:\n      tag_33\n      jump\t// in\n    tag_30:\n      mload(0x40)\n      tag_34\n      swap2\n      swap1\n      tag_35\n      jump\t// in\n    tag_34:\n      mload(0x40)\n      dup1\n      swap2\n      sub\n      swap1\n      return\n        /* \"Distribution.sol\":2665:3033  function info(address _account) external view returns (uint256, uint256, uint256, uint256, uint256) {... */\n    tag_4:\n      tag_36\n      0x04\n      dup1\n      calldatasize\n      sub\n      dup2\n      add\n      swap1\n      tag_37\n      swap2\n      swap1\n      tag_38\n      jump\t// in\n    tag_37:\n      tag_39\n      jump\t// in\n    tag_36:\n      mload(0x40)\n      tag_40\n      swap6\n      swap5\n      swap4\n      swap3\n      swap2\n      swap1\n      tag_41\n      jump\t// in\n    tag_40:\n      mload(0x40)\n      dup1\n      swap2\n      sub\n      swap1\n      return\n        /* \"@openzeppelin/contracts/access/AccessControl.sol\":3810:3930  function getRoleAdmin(bytes32 role) public view virtual returns (bytes32) {... */\n    tag_5:\n      tag_42\n      0x04\n      dup1\n      calldatasize\n      sub\n      dup2\n      add\n      swap1\n      tag_43\n      swap2\n      swap1\n      tag_44\n      jump\t// in\n    tag_43:\n      tag_45\n      jump\t// in\n    tag_42:\n      mload(0x40)\n      tag_46\n      swap2\n      swap1\n      tag_47\n      jump\t// in\n    tag_46:\n      mload(0x40)\n      dup1\n      swap2\n      sub\n      swap1\n      return\n        /* \"Distribution.sol\":1683:2257  function setAccountsInfo(... */\n    tag_6:\n      tag_48\n      0x04\n      dup1\n      calldatasize\n      sub\n      dup2\n      add\n      swap1\n      tag_49\n      swap2\n      swap1\n      tag_50\n      jump\t// in\n    tag_49:\n      tag_51\n      jump\t// in\n    tag_48:\n      stop\n        /* \"@openzeppelin/contracts/access/AccessControl.sol\":4226:4362  function grantRole(bytes32 role, address account) public virtual onlyRole(getRoleAdmin(role)) {... */\n    tag_7:\n      tag_52\n      0x04\n      dup1\n      calldatasize\n      sub\n      dup2\n      add\n      swap1\n      tag_53\n      swap2\n      swap1\n      tag_54\n      jump\t// in\n    tag_53:\n      tag_55\n      jump\t// in\n    tag_52:\n      stop\n        /* \"@openzeppelin/contracts/access/AccessControl.sol\":5328:5573  function renounceRole(bytes32 role, address callerConfirmation) public virtual {... */\n    tag_8:\n      tag_56\n      0x04\n      dup1\n      calldatasize\n      sub\n      dup2\n      add\n      swap1\n      tag_57\n      swap2\n      swap1\n      tag_54\n      jump\t// in\n    tag_57:\n      tag_58\n      jump\t// in\n    tag_56:\n      stop\n        /* \"Distribution.sol\":2536:2657  function vestedTokens(address _account) external view returns (uint256) {... */\n    tag_9:\n      tag_59\n      0x04\n      dup1\n      calldatasize\n      sub\n      dup2\n      add\n      swap1\n      tag_60\n      swap2\n      swap1\n      tag_38\n      jump\t// in\n    tag_60:\n      tag_61\n      jump\t// in\n    tag_59:\n      mload(0x40)\n      tag_62\n      swap2\n      swap1\n      tag_63\n      jump\t// in\n    tag_62:\n      mload(0x40)\n      dup1\n      swap2\n      sub\n      swap1\n      return\n        /* \"Distribution.sol\":993:1492  function claimTokens() external nonReentrant {... */\n    tag_10:\n      tag_64\n      tag_65\n      jump\t// in\n    tag_64:\n      stop\n        /* \"Distribution.sol\":396:434  uint256 public constant LONG = 50 days */\n    tag_11:\n      tag_66\n      tag_67\n      jump\t// in\n    tag_66:\n      mload(0x40)\n      tag_68\n      swap2\n      swap1\n      tag_63\n      jump\t// in\n    tag_68:\n      mload(0x40)\n      dup1\n      swap2\n      sub\n      swap1\n      return\n        /* \"@openzeppelin/contracts/access/Ownable.sol\":2293:2394  function renounceOwnership() public virtual onlyOwner {... */\n    tag_12:\n      tag_69\n      tag_70\n      jump\t// in\n    tag_69:\n      stop\n        /* \"Distribution.sol\":2265:2392  function claimableTokens(address _account) external view returns (uint256) {... */\n    tag_13:\n      tag_71\n      0x04\n      dup1\n      calldatasize\n      sub\n      dup2\n      add\n      swap1\n      tag_72\n      swap2\n      swap1\n      tag_38\n      jump\t// in\n    tag_72:\n      tag_73\n      jump\t// in\n    tag_71:\n      mload(0x40)\n      tag_74\n      swap2\n      swap1\n      tag_63\n      jump\t// in\n    tag_74:\n      mload(0x40)\n      dup1\n      swap2\n      sub\n      swap1\n      return\n        /* \"@openzeppelin/contracts/access/Ownable.sol\":1638:1723  function owner() public view virtual returns (address) {... */\n    tag_14:\n      tag_75\n      tag_76\n      jump\t// in\n    tag_75:\n      mload(0x40)\n      tag_77\n      swap2\n      swap1\n      tag_78\n      jump\t// in\n    tag_77:\n      mload(0x40)\n      dup1\n      swap2\n      sub\n      swap1\n      return\n        /* \"@openzeppelin/contracts/access/AccessControl.sol\":2854:2990  function hasRole(bytes32 role, address account) public view virtual returns (bool) {... */\n    tag_15:\n      tag_79\n      0x04\n      dup1\n      calldatasize\n      sub\n      dup2\n      add\n      swap1\n      tag_80\n      swap2\n      swap1\n      tag_54\n      jump\t// in\n    tag_80:\n      tag_81\n      jump\t// in\n    tag_79:\n      mload(0x40)\n      tag_82\n      swap2\n      swap1\n      tag_35\n      jump\t// in\n    tag_82:\n      mload(0x40)\n      dup1\n      swap2\n      sub\n      swap1\n      return\n        /* \"@openzeppelin/contracts/access/AccessControl.sol\":2187:2236  bytes32 public constant DEFAULT_ADMIN_ROLE = 0x00 */\n    tag_16:\n      tag_83\n      tag_84\n      jump\t// in\n    tag_83:\n      mload(0x40)\n      tag_85\n      swap2\n      swap1\n      tag_47\n      jump\t// in\n    tag_85:\n      mload(0x40)\n      dup1\n      swap2\n      sub\n      swap1\n      return\n        /* \"Distribution.sol\":534:578  uint256 public constant SHORT_CLIFF = 2 days */\n    tag_17:\n      tag_86\n      tag_87\n      jump\t// in\n    tag_86:\n      mload(0x40)\n      tag_88\n      swap2\n      swap1\n      tag_63\n      jump\t// in\n    tag_88:\n      mload(0x40)\n      dup1\n      swap2\n      sub\n      swap1\n      return\n        /* \"Distribution.sol\":797:840  mapping(address => Info) public accountInfo */\n    tag_18:\n      tag_89\n      0x04\n      dup1\n      calldatasize\n      sub\n      dup2\n      add\n      swap1\n      tag_90\n      swap2\n      swap1\n      tag_38\n      jump\t// in\n    tag_90:\n      tag_91\n      jump\t// in\n    tag_89:\n      mload(0x40)\n      tag_92\n      swap6\n      swap5\n      swap4\n      swap3\n      swap2\n      swap1\n      tag_93\n      jump\t// in\n    tag_92:\n      mload(0x40)\n      dup1\n      swap2\n      sub\n      swap1\n      return\n        /* \"Distribution.sol\":488:527  uint256 public constant SHORT = 20 days */\n    tag_19:\n      tag_94\n      tag_95\n      jump\t// in\n    tag_94:\n      mload(0x40)\n      tag_96\n      swap2\n      swap1\n      tag_63\n      jump\t// in\n    tag_96:\n      mload(0x40)\n      dup1\n      swap2\n      sub\n      swap1\n      return\n        /* \"Distribution.sol\":2400:2528  function claimedTokens(address _account) external view returns (uint256) {... */\n    tag_20:\n      tag_97\n      0x04\n      dup1\n      calldatasize\n      sub\n      dup2\n      add\n      swap1\n      tag_98\n      swap2\n      swap1\n      tag_38\n      jump\t// in\n    tag_98:\n      tag_99\n      jump\t// in\n    tag_97:\n      mload(0x40)\n      tag_100\n      swap2\n      swap1\n      tag_63\n      jump\t// in\n    tag_100:\n      mload(0x40)\n      dup1\n      swap2\n      sub\n      swap1\n      return\n        /* \"Distribution.sol\":369:389  uint256 public start */\n    tag_21:\n      tag_101\n      tag_102\n      jump\t// in\n    tag_101:\n      mload(0x40)\n      tag_103\n      swap2\n      swap1\n      tag_63\n      jump\t// in\n    tag_103:\n      mload(0x40)\n      dup1\n      swap2\n      sub\n      swap1\n      return\n        /* \"@openzeppelin/contracts/access/AccessControl.sol\":4642:4780  function revokeRole(bytes32 role, address account) public virtual onlyRole(getRoleAdmin(role)) {... */\n    tag_22:\n      tag_104\n      0x04\n      dup1\n      calldatasize\n      sub\n      dup2\n      add\n      swap1\n      tag_105\n      swap2\n      swap1\n      tag_54\n      jump\t// in\n    tag_105:\n      tag_106\n      jump\t// in\n    tag_104:\n      stop\n        /* \"Distribution.sol\":441:481  uint256 public constant MEDIUM = 30 days */\n    tag_23:\n      tag_107\n      tag_108\n      jump\t// in\n    tag_107:\n      mload(0x40)\n      tag_109\n      swap2\n      swap1\n      tag_63\n      jump\t// in\n    tag_109:\n      mload(0x40)\n      dup1\n      swap2\n      sub\n      swap1\n      return\n        /* \"@openzeppelin/contracts/access/Ownable.sol\":2543:2758  function transferOwnership(address newOwner) public virtual onlyOwner {... */\n    tag_24:\n      tag_110\n      0x04\n      dup1\n      calldatasize\n      sub\n      dup2\n      add\n      swap1\n      tag_111\n      swap2\n      swap1\n      tag_38\n      jump\t// in\n    tag_111:\n      tag_112\n      jump\t// in\n    tag_110:\n      stop\n        /* \"Distribution.sol\":1500:1675  function setStart(uint256 _start) external onlyOwner {... */\n    tag_25:\n      tag_113\n      0x04\n      dup1\n      calldatasize\n      sub\n      dup2\n      add\n      swap1\n      tag_114\n      swap2\n      swap1\n      tag_115\n      jump\t// in\n    tag_114:\n      tag_116\n      jump\t// in\n    tag_113:\n      stop\n        /* \"Distribution.sol\":342:360  Token public token */\n    tag_26:\n      tag_117\n      tag_118\n      jump\t// in\n    tag_117:\n      mload(0x40)\n      tag_119\n      swap2\n      swap1\n      tag_120\n      jump\t// in\n    tag_119:\n      mload(0x40)\n      dup1\n      swap2\n      sub\n      swap1\n      return\n        /* \"@openzeppelin/contracts/access/AccessControl.sol\":2565:2767  function supportsInterface(bytes4 interfaceId) public view virtual override returns (bool) {... */\n    tag_33:\n        /* \"@openzeppelin/contracts/access/AccessControl.sol\":2650:2654  bool */\n      0x00\n        /* \"@openzeppelin/contracts/access/AccessControl.sol\":2688:2720  type(IAccessControl).interfaceId */\n      0x7965db0b00000000000000000000000000000000000000000000000000000000\n        /* \"@openzeppelin/contracts/access/AccessControl.sol\":2673:2720  interfaceId == type(IAccessControl).interfaceId */\n      not(0xffffffffffffffffffffffffffffffffffffffffffffffffffffffff)\n      and\n        /* \"@openzeppelin/contracts/access/AccessControl.sol\":2673:2684  interfaceId */\n      dup3\n        /* \"@openzeppelin/contracts/access/AccessControl.sol\":2673:2720  interfaceId == type(IAccessControl).interfaceId */\n      not(0xffffffffffffffffffffffffffffffffffffffffffffffffffffffff)\n      and\n      eq\n        /* \"@openzeppelin/contracts/access/AccessControl.sol\":2673:2760  interfaceId == type(IAccessControl).interfaceId || super.supportsInterface(interfaceId) */\n      dup1\n      tag_122\n      jumpi\n      pop\n        /* \"@openzeppelin/contracts/access/AccessControl.sol\":2724:2760  super.supportsInterface(interfaceId) */\n      tag_123\n        /* \"@openzeppelin/contracts/access/AccessControl.sol\":2748:2759  interfaceId */\n      dup3\n        /* \"@openzeppelin/contracts/access/AccessControl.sol\":2724:2747  super.supportsInterface */\n      tag_124\n        /* \"@openzeppelin/contracts/access/AccessControl.sol\":2724:2760  super.supportsInterface(interfaceId) */\n      jump\t// in\n    tag_123:\n        /* \"@openzeppelin/contracts/access/AccessControl.sol\":2673:2760  interfaceId == type(IAccessControl).interfaceId || super.supportsInterface(interfaceId) */\n    tag_122:\n        /* \"@openzeppelin/contracts/access/AccessControl.sol\":2666:2760  return interfaceId == type(IAccessControl).interfaceId || super.supportsInterface(interfaceId) */\n      swap1\n      pop\n        /* \"@openzeppelin/contracts/access/AccessControl.sol\":2565:2767  function supportsInterface(bytes4 interfaceId) public view virtual override returns (bool) {... */\n      swap2\n      swap1\n      pop\n      jump\t// out\n        /* \"Distribution.sol\":2665:3033  function info(address _account) external view returns (uint256, uint256, uint256, uint256, uint256) {... */\n    tag_39:\n        /* \"Distribution.sol\":2720:2727  uint256 */\n      0x00\n        /* \"Distribution.sol\":2729:2736  uint256 */\n      dup1\n        /* \"Distribution.sol\":2738:2745  uint256 */\n      0x00\n        /* \"Distribution.sol\":2747:2754  uint256 */\n      dup1\n        /* \"Distribution.sol\":2756:2763  uint256 */\n      0x00\n        /* \"Distribution.sol\":2776:2793  Info memory _info */\n      dup1\n        /* \"Distribution.sol\":2796:2807  accountInfo */\n      0x05\n        /* \"Distribution.sol\":2796:2817  accountInfo[_account] */\n      0x00\n        /* \"Distribution.sol\":2808:2816  _account */\n      dup9\n        /* \"Distribution.sol\":2796:2817  accountInfo[_account] */\n      0xffffffffffffffffffffffffffffffffffffffff\n      and\n      0xffffffffffffffffffffffffffffffffffffffff\n      and\n      dup2\n      mstore\n      0x20\n      add\n      swap1\n      dup2\n      mstore\n      0x20\n      add\n      0x00\n      keccak256\n        /* \"Distribution.sol\":2776:2817  Info memory _info = accountInfo[_account] */\n      mload(0x40)\n      dup1\n      0xa0\n      add\n      0x40\n      mstore\n      swap1\n      dup2\n      0x00\n      dup3\n      add\n      0x00\n      swap1\n      sload\n      swap1\n      0x0100\n      exp\n      swap1\n      div\n      0xffffffff\n      and\n      0xffffffff\n      and\n      0xffffffff\n      and\n      dup2\n      mstore\n      0x20\n      add\n      0x01\n      dup3\n      add\n      sload\n      dup2\n      mstore\n      0x20\n      add\n      0x02\n      dup3\n      add\n      0x00\n      swap1\n      sload\n      swap1\n      0x0100\n      exp\n      swap1\n      div\n      0xffffffff\n      and\n      0xffffffff\n      and\n      0xffffffff\n      and\n      dup2\n      mstore\n      0x20\n      add\n      0x02\n      dup3\n      add\n      0x04\n      swap1\n      sload\n      swap1\n      0x0100\n      exp\n      swap1\n      div\n      0xffffffff\n      and\n      0xffffffff\n      and\n      0xffffffff\n      and\n      dup2\n      mstore\n      0x20\n      add\n      0x02\n      dup3\n      add\n      0x08\n      swap1\n      sload\n      swap1\n      0x0100\n      exp\n      swap1\n      div\n      0xffffffff\n      and\n      0xffffffff\n      and\n      0xffffffff\n      and\n      dup2\n      mstore\n      pop\n      pop\n      swap1\n      pop\n        /* \"Distribution.sol\":2867:2875  10 ** 18 */\n      0x0de0b6b3a7640000\n        /* \"Distribution.sol\":2850:2855  _info */\n      dup2\n        /* \"Distribution.sol\":2850:2864  _info.provided */\n      0x00\n      add\n      mload\n        /* \"Distribution.sol\":2850:2875  _info.provided * 10 ** 18 */\n      0xffffffff\n      and\n      tag_126\n      swap2\n      swap1\n      tag_127\n      jump\t// in\n    tag_126:\n        /* \"Distribution.sol\":2890:2895  _info */\n      dup2\n        /* \"Distribution.sol\":2890:2903  _info.claimed */\n      0x20\n      add\n      mload\n        /* \"Distribution.sol\":2931:2939  10 ** 18 */\n      0x0de0b6b3a7640000\n        /* \"Distribution.sol\":2918:2923  _info */\n      dup4\n        /* \"Distribution.sol\":2918:2928  _info.long */\n      0x40\n      add\n      mload\n        /* \"Distribution.sol\":2918:2939  _info.long * 10 ** 18 */\n      0xffffffff\n      and\n      tag_128\n      swap2\n      swap1\n      tag_127\n      jump\t// in\n    tag_128:\n        /* \"Distribution.sol\":2969:2977  10 ** 18 */\n      0x0de0b6b3a7640000\n        /* \"Distribution.sol\":2954:2959  _info */\n      dup5\n        /* \"Distribution.sol\":2954:2966  _info.medium */\n      0x60\n      add\n      mload\n        /* \"Distribution.sol\":2954:2977  _info.medium * 10 ** 18 */\n      0xffffffff\n      and\n      tag_129\n      swap2\n      swap1\n      tag_127\n      jump\t// in\n    tag_129:\n        /* \"Distribution.sol\":3006:3014  10 ** 18 */\n      0x0de0b6b3a7640000\n        /* \"Distribution.sol\":2992:2997  _info */\n      dup6\n        /* \"Distribution.sol\":2992:3003  _info.short */\n      0x80\n      add\n      mload\n        /* \"Distribution.sol\":2992:3014  _info.short * 10 ** 18 */\n      0xffffffff\n      and\n      tag_130\n      swap2\n      swap1\n      tag_127\n      jump\t// in\n    tag_130:\n        /* \"Distribution.sol\":2828:3025  return (... */\n      dup5\n      0xffffffffffffffff\n      and\n      swap5\n      pop\n      dup3\n      0xffffffffffffffff\n      and\n      swap3\n      pop\n      dup2\n      0xffffffffffffffff\n      and\n      swap2\n      pop\n      dup1\n      0xffffffffffffffff\n      and\n      swap1\n      pop\n      swap6\n      pop\n      swap6\n      pop\n      swap6\n      pop\n      swap6\n      pop\n      swap6\n      pop\n      pop\n        /* \"Distribution.sol\":2665:3033  function info(address _account) external view returns (uint256, uint256, uint256, uint256, uint256) {... */\n      swap2\n      swap4\n      swap6\n      swap1\n      swap3\n      swap5\n      pop\n      jump\t// out\n        /* \"@openzeppelin/contracts/access/AccessControl.sol\":3810:3930  function getRoleAdmin(bytes32 role) public view virtual returns (bytes32) {... */\n    tag_45:\n        /* \"@openzeppelin/contracts/access/AccessControl.sol\":3875:3882  bytes32 */\n      0x00\n        /* \"@openzeppelin/contracts/access/AccessControl.sol\":3901:3907  _roles */\n      0x01\n        /* \"@openzeppelin/contracts/access/AccessControl.sol\":3901:3913  _roles[role] */\n      0x00\n        /* \"@openzeppelin/contracts/access/AccessControl.sol\":3908:3912  role */\n      dup4\n        /* \"@openzeppelin/contracts/access/AccessControl.sol\":3901:3913  _roles[role] */\n      dup2\n      mstore\n      0x20\n      add\n      swap1\n      dup2\n      mstore\n      0x20\n      add\n      0x00\n      keccak256\n        /* \"@openzeppelin/contracts/access/AccessControl.sol\":3901:3923  _roles[role].adminRole */\n      0x01\n      add\n      sload\n        /* \"@openzeppelin/contracts/access/AccessControl.sol\":3894:3923  return _roles[role].adminRole */\n      swap1\n      pop\n        /* \"@openzeppelin/contracts/access/AccessControl.sol\":3810:3930  function getRoleAdmin(bytes32 role) public view virtual returns (bytes32) {... */\n      swap2\n      swap1\n      pop\n      jump\t// out\n        /* \"Distribution.sol\":1683:2257  function setAccountsInfo(... */\n    tag_51:\n        /* \"@openzeppelin/contracts/access/Ownable.sol\":1531:1544  _checkOwner() */\n      tag_133\n        /* \"@openzeppelin/contracts/access/Ownable.sol\":1531:1542  _checkOwner */\n      tag_134\n        /* \"@openzeppelin/contracts/access/Ownable.sol\":1531:1544  _checkOwner() */\n      jump\t// in\n    tag_133:\n        /* \"Distribution.sol\":1916:1923  uint8 i */\n      0x00\n        /* \"Distribution.sol\":1911:2250  for (uint8 i = 0; i < accounts.length; i++) {... */\n    tag_136:\n        /* \"Distribution.sol\":1933:1941  accounts */\n      dup6\n        /* \"Distribution.sol\":1933:1948  accounts.length */\n      mload\n        /* \"Distribution.sol\":1929:1930  i */\n      dup2\n        /* \"Distribution.sol\":1929:1948  i < accounts.length */\n      0xff\n      and\n      lt\n        /* \"Distribution.sol\":1911:2250  for (uint8 i = 0; i < accounts.length; i++) {... */\n      iszero\n      tag_137\n      jumpi\n        /* \"Distribution.sol\":1970:1986  uint32 _provided */\n      0x00\n        /* \"Distribution.sol\":2011:2016  short */\n      dup4\n        /* \"Distribution.sol\":2017:2018  i */\n      dup3\n        /* \"Distribution.sol\":2011:2019  short[i] */\n      0xff\n      and\n      dup2\n      mload\n      dup2\n      lt\n      tag_139\n      jumpi\n      tag_140\n      tag_141\n      jump\t// in\n    tag_140:\n    tag_139:\n      0x20\n      mul\n      0x20\n      add\n      add\n      mload\n        /* \"Distribution.sol\":1999:2005  medium */\n      dup6\n        /* \"Distribution.sol\":2006:2007  i */\n      dup4\n        /* \"Distribution.sol\":1999:2008  medium[i] */\n      0xff\n      and\n      dup2\n      mload\n      dup2\n      lt\n      tag_142\n      jumpi\n      tag_143\n      tag_141\n      jump\t// in\n    tag_143:\n    tag_142:\n      0x20\n      mul\n      0x20\n      add\n      add\n      mload\n        /* \"Distribution.sol\":1989:1993  long */\n      dup8\n        /* \"Distribution.sol\":1994:1995  i */\n      dup5\n        /* \"Distribution.sol\":1989:1996  long[i] */\n      0xff\n      and\n      dup2\n      mload\n      dup2\n      lt\n      tag_144\n      jumpi\n      tag_145\n      tag_141\n      jump\t// in\n    tag_145:\n    tag_144:\n      0x20\n      mul\n      0x20\n      add\n      add\n      mload\n        /* \"Distribution.sol\":1989:2008  long[i] + medium[i] */\n      tag_146\n      swap2\n      swap1\n      tag_147\n      jump\t// in\n    tag_146:\n        /* \"Distribution.sol\":1989:2019  long[i] + medium[i] + short[i] */\n      tag_148\n      swap2\n      swap1\n      tag_147\n      jump\t// in\n    tag_148:\n        /* \"Distribution.sol\":1970:2019  uint32 _provided = long[i] + medium[i] + short[i] */\n      swap1\n      pop\n        /* \"Distribution.sol\":2061:2238  Info(... */\n      mload(0x40)\n      dup1\n      0xa0\n      add\n      0x40\n      mstore\n      dup1\n        /* \"Distribution.sol\":2084:2093  _provided */\n      dup3\n        /* \"Distribution.sol\":2061:2238  Info(... */\n      0xffffffff\n      and\n      dup2\n      mstore\n      0x20\n      add\n        /* \"Distribution.sol\":2134:2142  10 ** 18 */\n      0x0de0b6b3a7640000\n        /* \"Distribution.sol\":2120:2127  claimed */\n      dup6\n        /* \"Distribution.sol\":2128:2129  i */\n      dup6\n        /* \"Distribution.sol\":2120:2130  claimed[i] */\n      0xff\n      and\n      dup2\n      mload\n      dup2\n      lt\n      tag_149\n      jumpi\n      tag_150\n      tag_141\n      jump\t// in\n    tag_150:\n    tag_149:\n      0x20\n      mul\n      0x20\n      add\n      add\n      mload\n        /* \"Distribution.sol\":2112:2131  uint256(claimed[i]) */\n      0xffffffff\n      and\n        /* \"Distribution.sol\":2112:2142  uint256(claimed[i]) * 10 ** 18 */\n      tag_151\n      swap2\n      swap1\n      tag_152\n      jump\t// in\n    tag_151:\n        /* \"Distribution.sol\":2061:2238  Info(... */\n      dup2\n      mstore\n      0x20\n      add\n        /* \"Distribution.sol\":2161:2165  long */\n      dup8\n        /* \"Distribution.sol\":2166:2167  i */\n      dup5\n        /* \"Distribution.sol\":2161:2168  long[i] */\n      0xff\n      and\n      dup2\n      mload\n      dup2\n      lt\n      tag_153\n      jumpi\n      tag_154\n      tag_141\n      jump\t// in\n    tag_154:\n    tag_153:\n      0x20\n      mul\n      0x20\n      add\n      add\n      mload\n        /* \"Distribution.sol\":2061:2238  Info(... */\n      0xffffffff\n      and\n      dup2\n      mstore\n      0x20\n      add\n        /* \"Distribution.sol\":2187:2193  medium */\n      dup7\n        /* \"Distribution.sol\":2194:2195  i */\n      dup5\n        /* \"Distribution.sol\":2187:2196  medium[i] */\n      0xff\n      and\n      dup2\n      mload\n      dup2\n      lt\n      tag_155\n      jumpi\n      tag_156\n      tag_141\n      jump\t// in\n    tag_156:\n    tag_155:\n      0x20\n      mul\n      0x20\n      add\n      add\n      mload\n        /* \"Distribution.sol\":2061:2238  Info(... */\n      0xffffffff\n      and\n      dup2\n      mstore\n      0x20\n      add\n        /* \"Distribution.sol\":2215:2220  short */\n      dup6\n        /* \"Distribution.sol\":2221:2222  i */\n      dup5\n        /* \"Distribution.sol\":2215:2223  short[i] */\n      0xff\n      and\n      dup2\n      mload\n      dup2\n      lt\n      tag_157\n      jumpi\n      tag_158\n      tag_141\n      jump\t// in\n    tag_158:\n    tag_157:\n      0x20\n      mul\n      0x20\n      add\n      add\n      mload\n        /* \"Distribution.sol\":2061:2238  Info(... */\n      0xffffffff\n      and\n      dup2\n      mstore\n      pop\n        /* \"Distribution.sol\":2034:2045  accountInfo */\n      0x05\n        /* \"Distribution.sol\":2034:2058  accountInfo[accounts[i]] */\n      0x00\n        /* \"Distribution.sol\":2046:2054  accounts */\n      dup10\n        /* \"Distribution.sol\":2055:2056  i */\n      dup6\n        /* \"Distribution.sol\":2046:2057  accounts[i] */\n      0xff\n      and\n      dup2\n      mload\n      dup2\n      lt\n      tag_159\n      jumpi\n      tag_160\n      tag_141\n      jump\t// in\n    tag_160:\n    tag_159:\n      0x20\n      mul\n      0x20\n      add\n      add\n      mload\n        /* \"Distribution.sol\":2034:2058  accountInfo[accounts[i]] */\n      0xffffffffffffffffffffffffffffffffffffffff\n      and\n      0xffffffffffffffffffffffffffffffffffffffff\n      and\n      dup2\n      mstore\n      0x20\n      add\n      swap1\n      dup2\n      mstore\n      0x20\n      add\n      0x00\n      keccak256\n        /* \"Distribution.sol\":2034:2238  accountInfo[accounts[i]] = Info(... */\n      0x00\n      dup3\n      add\n      mload\n      dup2\n      0x00\n      add\n      exp(0x0100, 0x00)\n      dup2\n      sload\n      dup2\n      0xffffffff\n      mul\n      not\n      and\n      swap1\n      dup4\n      0xffffffff\n      and\n      mul\n      or\n      swap1\n      sstore\n      pop\n      0x20\n      dup3\n      add\n      mload\n      dup2\n      0x01\n      add\n      sstore\n      0x40\n      dup3\n      add\n      mload\n      dup2\n      0x02\n      add\n      exp(0x0100, 0x00)\n      dup2\n      sload\n      dup2\n      0xffffffff\n      mul\n      not\n      and\n      swap1\n      dup4\n      0xffffffff\n      and\n      mul\n      or\n      swap1\n      sstore\n      pop\n      0x60\n      dup3\n      add\n      mload\n      dup2\n      0x02\n      add\n      exp(0x0100, 0x04)\n      dup2\n      sload\n      dup2\n      0xffffffff\n      mul\n      not\n      and\n      swap1\n      dup4\n      0xffffffff\n      and\n      mul\n      or\n      swap1\n      sstore\n      pop\n      0x80\n      dup3\n      add\n      mload\n      dup2\n      0x02\n      add\n      exp(0x0100, 0x08)\n      dup2\n      sload\n      dup2\n      0xffffffff\n      mul\n      not\n      and\n      swap1\n      dup4\n      0xffffffff\n      and\n      mul\n      or\n      swap1\n      sstore\n      pop\n      swap1\n      pop\n      pop\n        /* \"Distribution.sol\":1955:2250  {... */\n      pop\n        /* \"Distribution.sol\":1950:1953  i++ */\n      dup1\n      dup1\n      tag_161\n      swap1\n      tag_162\n      jump\t// in\n    tag_161:\n      swap2\n      pop\n      pop\n        /* \"Distribution.sol\":1911:2250  for (uint8 i = 0; i < accounts.length; i++) {... */\n      jump(tag_136)\n    tag_137:\n      pop\n        /* \"Distribution.sol\":1683:2257  function setAccountsInfo(... */\n      pop\n      pop\n      pop\n      pop\n      pop\n      jump\t// out\n        /* \"@openzeppelin/contracts/access/AccessControl.sol\":4226:4362  function grantRole(bytes32 role, address account) public virtual onlyRole(getRoleAdmin(role)) {... */\n    tag_55:\n        /* \"@openzeppelin/contracts/access/AccessControl.sol\":4300:4318  getRoleAdmin(role) */\n      tag_163\n        /* \"@openzeppelin/contracts/access/AccessControl.sol\":4313:4317  role */\n      dup3\n        /* \"@openzeppelin/contracts/access/AccessControl.sol\":4300:4312  getRoleAdmin */\n      tag_45\n        /* \"@openzeppelin/contracts/access/AccessControl.sol\":4300:4318  getRoleAdmin(role) */\n      jump\t// in\n    tag_163:\n        /* \"@openzeppelin/contracts/access/AccessControl.sol\":2464:2480  _checkRole(role) */\n      tag_165\n        /* \"@openzeppelin/contracts/access/AccessControl.sol\":2475:2479  role */\n      dup2\n        /* \"@openzeppelin/contracts/access/AccessControl.sol\":2464:2474  _checkRole */\n      tag_166\n        /* \"@openzeppelin/contracts/access/AccessControl.sol\":2464:2480  _checkRole(role) */\n      jump\t// in\n    tag_165:\n        /* \"@openzeppelin/contracts/access/AccessControl.sol\":4330:4355  _grantRole(role, account) */\n      tag_168\n        /* \"@openzeppelin/contracts/access/AccessControl.sol\":4341:4345  role */\n      dup4\n        /* \"@openzeppelin/contracts/access/AccessControl.sol\":4347:4354  account */\n      dup4\n        /* \"@openzeppelin/contracts/access/AccessControl.sol\":4330:4340  _grantRole */\n      tag_169\n        /* \"@openzeppelin/contracts/access/AccessControl.sol\":4330:4355  _grantRole(role, account) */\n      jump\t// in\n    tag_168:\n      pop\n        /* \"@openzeppelin/contracts/access/AccessControl.sol\":4226:4362  function grantRole(bytes32 role, address account) public virtual onlyRole(getRoleAdmin(role)) {... */\n      pop\n      pop\n      pop\n      jump\t// out\n        /* \"@openzeppelin/contracts/access/AccessControl.sol\":5328:5573  function renounceRole(bytes32 role, address callerConfirmation) public virtual {... */\n    tag_58:\n        /* \"@openzeppelin/contracts/access/AccessControl.sol\":5443:5455  _msgSender() */\n      tag_171\n        /* \"@openzeppelin/contracts/access/AccessControl.sol\":5443:5453  _msgSender */\n      tag_172\n        /* \"@openzeppelin/contracts/access/AccessControl.sol\":5443:5455  _msgSender() */\n      jump\t// in\n    tag_171:\n        /* \"@openzeppelin/contracts/access/AccessControl.sol\":5421:5455  callerConfirmation != _msgSender() */\n      0xffffffffffffffffffffffffffffffffffffffff\n      and\n        /* \"@openzeppelin/contracts/access/AccessControl.sol\":5421:5439  callerConfirmation */\n      dup2\n        /* \"@openzeppelin/contracts/access/AccessControl.sol\":5421:5455  callerConfirmation != _msgSender() */\n      0xffffffffffffffffffffffffffffffffffffffff\n      and\n      eq\n        /* \"@openzeppelin/contracts/access/AccessControl.sol\":5417:5519  if (callerConfirmation != _msgSender()) {... */\n      tag_173\n      jumpi\n        /* \"@openzeppelin/contracts/access/AccessControl.sol\":5478:5508  AccessControlBadConfirmation() */\n      mload(0x40)\n      0x6697b23200000000000000000000000000000000000000000000000000000000\n      dup2\n      mstore\n      0x04\n      add\n      mload(0x40)\n      dup1\n      swap2\n      sub\n      swap1\n      revert\n        /* \"@openzeppelin/contracts/access/AccessControl.sol\":5417:5519  if (callerConfirmation != _msgSender()) {... */\n    tag_173:\n        /* \"@openzeppelin/contracts/access/AccessControl.sol\":5529:5566  _revokeRole(role, callerConfirmation) */\n      tag_174\n        /* \"@openzeppelin/contracts/access/AccessControl.sol\":5541:5545  role */\n      dup3\n        /* \"@openzeppelin/contracts/access/AccessControl.sol\":5547:5565  callerConfirmation */\n      dup3\n        /* \"@openzeppelin/contracts/access/AccessControl.sol\":5529:5540  _revokeRole */\n      tag_175\n        /* \"@openzeppelin/contracts/access/AccessControl.sol\":5529:5566  _revokeRole(role, callerConfirmation) */\n      jump\t// in\n    tag_174:\n      pop\n        /* \"@openzeppelin/contracts/access/AccessControl.sol\":5328:5573  function renounceRole(bytes32 role, address callerConfirmation) public virtual {... */\n      pop\n      pop\n      jump\t// out\n        /* \"Distribution.sol\":2536:2657  function vestedTokens(address _account) external view returns (uint256) {... */\n    tag_61:\n        /* \"Distribution.sol\":2599:2606  uint256 */\n      0x00\n        /* \"Distribution.sol\":2626:2649  _vestedTokens(_account) */\n      tag_177\n        /* \"Distribution.sol\":2640:2648  _account */\n      dup3\n        /* \"Distribution.sol\":2626:2639  _vestedTokens */\n      tag_178\n        /* \"Distribution.sol\":2626:2649  _vestedTokens(_account) */\n      jump\t// in\n    tag_177:\n        /* \"Distribution.sol\":2619:2649  return _vestedTokens(_account) */\n      swap1\n      pop\n        /* \"Distribution.sol\":2536:2657  function vestedTokens(address _account) external view returns (uint256) {... */\n      swap2\n      swap1\n      pop\n      jump\t// out\n        /* \"Distribution.sol\":993:1492  function claimTokens() external nonReentrant {... */\n    tag_65:\n        /* \"@openzeppelin/contracts/security/ReentrancyGuard.sol\":2261:2282  _nonReentrantBefore() */\n      tag_180\n        /* \"@openzeppelin/contracts/security/ReentrancyGuard.sol\":2261:2280  _nonReentrantBefore */\n      tag_181\n        /* \"@openzeppelin/contracts/security/ReentrancyGuard.sol\":2261:2282  _nonReentrantBefore() */\n      jump\t// in\n    tag_180:\n        /* \"Distribution.sol\":1076:1081  start */\n      sload(0x04)\n        /* \"Distribution.sol\":1057:1072  block.timestamp */\n      timestamp\n        /* \"Distribution.sol\":1057:1081  block.timestamp >= start */\n      lt\n      iszero\n        /* \"Distribution.sol\":1049:1121  require(block.timestamp >= start, \"The distribution hasn't started yet\") */\n      tag_183\n      jumpi\n      mload(0x40)\n      0x08c379a000000000000000000000000000000000000000000000000000000000\n      dup2\n      mstore\n      0x04\n      add\n      tag_184\n      swap1\n      tag_185\n      jump\t// in\n    tag_184:\n      mload(0x40)\n      dup1\n      swap2\n      sub\n      swap1\n      revert\n    tag_183:\n        /* \"Distribution.sol\":1132:1155  uint256 availableTokens */\n      0x00\n        /* \"Distribution.sol\":1158:1186  _claimableTokens(msg.sender) */\n      tag_186\n        /* \"Distribution.sol\":1175:1185  msg.sender */\n      caller\n        /* \"Distribution.sol\":1158:1174  _claimableTokens */\n      tag_187\n        /* \"Distribution.sol\":1158:1186  _claimableTokens(msg.sender) */\n      jump\t// in\n    tag_186:\n        /* \"Distribution.sol\":1132:1186  uint256 availableTokens = _claimableTokens(msg.sender) */\n      swap1\n      pop\n        /* \"Distribution.sol\":1223:1224  0 */\n      0x00\n        /* \"Distribution.sol\":1205:1220  availableTokens */\n      dup2\n        /* \"Distribution.sol\":1205:1224  availableTokens > 0 */\n      gt\n        /* \"Distribution.sol\":1197:1263  require(availableTokens > 0, \"You don't have any tokens to claim\") */\n      tag_188\n      jumpi\n      mload(0x40)\n      0x08c379a000000000000000000000000000000000000000000000000000000000\n      dup2\n      mstore\n      0x04\n      add\n      tag_189\n      swap1\n      tag_190\n      jump\t// in\n    tag_189:\n      mload(0x40)\n      dup1\n      swap2\n      sub\n      swap1\n      revert\n    tag_188:\n        /* \"Distribution.sol\":1274:1292  Info storage _info */\n      0x00\n        /* \"Distribution.sol\":1295:1306  accountInfo */\n      0x05\n        /* \"Distribution.sol\":1295:1318  accountInfo[msg.sender] */\n      0x00\n        /* \"Distribution.sol\":1307:1317  msg.sender */\n      caller\n        /* \"Distribution.sol\":1295:1318  accountInfo[msg.sender] */\n      0xffffffffffffffffffffffffffffffffffffffff\n      and\n      0xffffffffffffffffffffffffffffffffffffffff\n      and\n      dup2\n      mstore\n      0x20\n      add\n      swap1\n      dup2\n      mstore\n      0x20\n      add\n      0x00\n      keccak256\n        /* \"Distribution.sol\":1274:1318  Info storage _info = accountInfo[msg.sender] */\n      swap1\n      pop\n        /* \"Distribution.sol\":1361:1376  availableTokens */\n      dup2\n        /* \"Distribution.sol\":1345:1350  _info */\n      dup2\n        /* \"Distribution.sol\":1345:1358  _info.claimed */\n      0x01\n      add\n      sload\n        /* \"Distribution.sol\":1345:1376  _info.claimed + availableTokens */\n      tag_191\n      swap2\n      swap1\n      tag_192\n      jump\t// in\n    tag_191:\n        /* \"Distribution.sol\":1329:1334  _info */\n      dup2\n        /* \"Distribution.sol\":1329:1342  _info.claimed */\n      0x01\n      add\n        /* \"Distribution.sol\":1329:1376  _info.claimed = _info.claimed + availableTokens */\n      dup2\n      swap1\n      sstore\n      pop\n        /* \"Distribution.sol\":1387:1392  token */\n      0x03\n      0x00\n      swap1\n      sload\n      swap1\n      0x0100\n      exp\n      swap1\n      div\n      0xffffffffffffffffffffffffffffffffffffffff\n      and\n        /* \"Distribution.sol\":1387:1397  token.mint */\n      0xffffffffffffffffffffffffffffffffffffffff\n      and\n      0x40c10f19\n        /* \"Distribution.sol\":1398:1408  msg.sender */\n      caller\n        /* \"Distribution.sol\":1410:1425  availableTokens */\n      dup5\n        /* \"Distribution.sol\":1387:1426  token.mint(msg.sender, availableTokens) */\n      mload(0x40)\n      dup4\n      0xffffffff\n      and\n      0xe0\n      shl\n      dup2\n      mstore\n      0x04\n      add\n      tag_193\n      swap3\n      swap2\n      swap1\n      tag_194\n      jump\t// in\n    tag_193:\n      0x00\n      mload(0x40)\n      dup1\n      dup4\n      sub\n      dup2\n      0x00\n      dup8\n      dup1\n      extcodesize\n      iszero\n      dup1\n      iszero\n      tag_195\n      jumpi\n      0x00\n      dup1\n      revert\n    tag_195:\n      pop\n      gas\n      call\n      iszero\n      dup1\n      iszero\n      tag_197\n      jumpi\n      returndatasize\n      0x00\n      dup1\n      returndatacopy\n      revert(0x00, returndatasize)\n    tag_197:\n      pop\n      pop\n      pop\n      pop\n        /* \"Distribution.sol\":1444:1484  ClaimTokens(msg.sender, availableTokens) */\n      0x4d7f917f6b905f28ba5297e6c224a6cfec20ac6a3698a55b412d30b95ad25d2f\n        /* \"Distribution.sol\":1456:1466  msg.sender */\n      caller\n        /* \"Distribution.sol\":1468:1483  availableTokens */\n      dup4\n        /* \"Distribution.sol\":1444:1484  ClaimTokens(msg.sender, availableTokens) */\n      mload(0x40)\n      tag_198\n      swap3\n      swap2\n      swap1\n      tag_194\n      jump\t// in\n    tag_198:\n      mload(0x40)\n      dup1\n      swap2\n      sub\n      swap1\n      log1\n        /* \"Distribution.sol\":1038:1492  {... */\n      pop\n      pop\n        /* \"@openzeppelin/contracts/security/ReentrancyGuard.sol\":2303:2323  _nonReentrantAfter() */\n      tag_199\n        /* \"@openzeppelin/contracts/security/ReentrancyGuard.sol\":2303:2321  _nonReentrantAfter */\n      tag_200\n        /* \"@openzeppelin/contracts/security/ReentrancyGuard.sol\":2303:2323  _nonReentrantAfter() */\n      jump\t// in\n    tag_199:\n        /* \"Distribution.sol\":993:1492  function claimTokens() external nonReentrant {... */\n      jump\t// out\n        /* \"Distribution.sol\":396:434  uint256 public constant LONG = 50 days */\n    tag_67:\n        /* \"Distribution.sol\":427:434  50 days */\n      0x41eb00\n        /* \"Distribution.sol\":396:434  uint256 public constant LONG = 50 days */\n      dup2\n      jump\t// out\n        /* \"@openzeppelin/contracts/access/Ownable.sol\":2293:2394  function renounceOwnership() public virtual onlyOwner {... */\n    tag_70:\n        /* \"@openzeppelin/contracts/access/Ownable.sol\":1531:1544  _checkOwner() */\n      tag_202\n        /* \"@openzeppelin/contracts/access/Ownable.sol\":1531:1542  _checkOwner */\n      tag_134\n        /* \"@openzeppelin/contracts/access/Ownable.sol\":1531:1544  _checkOwner() */\n      jump\t// in\n    tag_202:\n        /* \"@openzeppelin/contracts/access/Ownable.sol\":2357:2387  _transferOwnership(address(0)) */\n      tag_204\n        /* \"@openzeppelin/contracts/access/Ownable.sol\":2384:2385  0 */\n      0x00\n        /* \"@openzeppelin/contracts/access/Ownable.sol\":2357:2375  _transferOwnership */\n      tag_205\n        /* \"@openzeppelin/contracts/access/Ownable.sol\":2357:2387  _transferOwnership(address(0)) */\n      jump\t// in\n    tag_204:\n        /* \"@openzeppelin/contracts/access/Ownable.sol\":2293:2394  function renounceOwnership() public virtual onlyOwner {... */\n      jump\t// out\n        /* \"Distribution.sol\":2265:2392  function claimableTokens(address _account) external view returns (uint256) {... */\n    tag_73:\n        /* \"Distribution.sol\":2331:2338  uint256 */\n      0x00\n        /* \"Distribution.sol\":2358:2384  _claimableTokens(_account) */\n      tag_207\n        /* \"Distribution.sol\":2375:2383  _account */\n      dup3\n        /* \"Distribution.sol\":2358:2374  _claimableTokens */\n      tag_187\n        /* \"Distribution.sol\":2358:2384  _claimableTokens(_account) */\n      jump\t// in\n    tag_207:\n        /* \"Distribution.sol\":2351:2384  return _claimableTokens(_account) */\n      swap1\n      pop\n        /* \"Distribution.sol\":2265:2392  function claimableTokens(address _account) external view returns (uint256) {... */\n      swap2\n      swap1\n      pop\n      jump\t// out\n        /* \"@openzeppelin/contracts/access/Ownable.sol\":1638:1723  function owner() public view virtual returns (address) {... */\n    tag_76:\n        /* \"@openzeppelin/contracts/access/Ownable.sol\":1684:1691  address */\n      0x00\n        /* \"@openzeppelin/contracts/access/Ownable.sol\":1710:1716  _owner */\n      dup1\n      0x00\n      swap1\n      sload\n      swap1\n      0x0100\n      exp\n      swap1\n      div\n      0xffffffffffffffffffffffffffffffffffffffff\n      and\n        /* \"@openzeppelin/contracts/access/Ownable.sol\":1703:1716  return _owner */\n      swap1\n      pop\n        /* \"@openzeppelin/contracts/access/Ownable.sol\":1638:1723  function owner() public view virtual returns (address) {... */\n      swap1\n      jump\t// out\n        /* \"@openzeppelin/contracts/access/AccessControl.sol\":2854:2990  function hasRole(bytes32 role, address account) public view virtual returns (bool) {... */\n    tag_81:\n        /* \"@openzeppelin/contracts/access/AccessControl.sol\":2931:2935  bool */\n      0x00\n        /* \"@openzeppelin/contracts/access/AccessControl.sol\":2954:2960  _roles */\n      0x01\n        /* \"@openzeppelin/contracts/access/AccessControl.sol\":2954:2966  _roles[role] */\n      0x00\n        /* \"@openzeppelin/contracts/access/AccessControl.sol\":2961:2965  role */\n      dup5\n        /* \"@openzeppelin/contracts/access/AccessControl.sol\":2954:2966  _roles[role] */\n      dup2\n      mstore\n      0x20\n      add\n      swap1\n      dup2\n      mstore\n      0x20\n      add\n      0x00\n      keccak256\n        /* \"@openzeppelin/contracts/access/AccessControl.sol\":2954:2974  _roles[role].hasRole */\n      0x00\n      add\n        /* \"@openzeppelin/contracts/access/AccessControl.sol\":2954:2983  _roles[role].hasRole[account] */\n      0x00\n        /* \"@openzeppelin/contracts/access/AccessControl.sol\":2975:2982  account */\n      dup4\n        /* \"@openzeppelin/contracts/access/AccessControl.sol\":2954:2983  _roles[role].hasRole[account] */\n      0xffffffffffffffffffffffffffffffffffffffff\n      and\n      0xffffffffffffffffffffffffffffffffffffffff\n      and\n      dup2\n      mstore\n      0x20\n      add\n      swap1\n      dup2\n      mstore\n      0x20\n      add\n      0x00\n      keccak256\n      0x00\n      swap1\n      sload\n      swap1\n      0x0100\n      exp\n      swap1\n      div\n      0xff\n      and\n        /* \"@openzeppelin/contracts/access/AccessControl.sol\":2947:2983  return _roles[role].hasRole[account] */\n      swap1\n      pop\n        /* \"@openzeppelin/contracts/access/AccessControl.sol\":2854:2990  function hasRole(bytes32 role, address account) public view virtual returns (bool) {... */\n      swap3\n      swap2\n      pop\n      pop\n      jump\t// out\n        /* \"@openzeppelin/contracts/access/AccessControl.sol\":2187:2236  bytes32 public constant DEFAULT_ADMIN_ROLE = 0x00 */\n    tag_84:\n        /* \"@openzeppelin/contracts/access/AccessControl.sol\":2232:2236  0x00 */\n      0x00\n        /* \"@openzeppelin/contracts/access/AccessControl.sol\":2187:2236  bytes32 public constant DEFAULT_ADMIN_ROLE = 0x00 */\n      dup1\n      shl\n      dup2\n      jump\t// out\n        /* \"Distribution.sol\":534:578  uint256 public constant SHORT_CLIFF = 2 days */\n    tag_87:\n        /* \"Distribution.sol\":572:578  2 days */\n      0x02a300\n        /* \"Distribution.sol\":534:578  uint256 public constant SHORT_CLIFF = 2 days */\n      dup2\n      jump\t// out\n        /* \"Distribution.sol\":797:840  mapping(address => Info) public accountInfo */\n    tag_91:\n      mstore(0x20, 0x05)\n      dup1\n      0x00\n      mstore\n      keccak256(0x00, 0x40)\n      0x00\n      swap2\n      pop\n      swap1\n      pop\n      dup1\n      0x00\n      add\n      0x00\n      swap1\n      sload\n      swap1\n      0x0100\n      exp\n      swap1\n      div\n      0xffffffff\n      and\n      swap1\n      dup1\n      0x01\n      add\n      sload\n      swap1\n      dup1\n      0x02\n      add\n      0x00\n      swap1\n      sload\n      swap1\n      0x0100\n      exp\n      swap1\n      div\n      0xffffffff\n      and\n      swap1\n      dup1\n      0x02\n      add\n      0x04\n      swap1\n      sload\n      swap1\n      0x0100\n      exp\n      swap1\n      div\n      0xffffffff\n      and\n      swap1\n      dup1\n      0x02\n      add\n      0x08\n      swap1\n      sload\n      swap1\n      0x0100\n      exp\n      swap1\n      div\n      0xffffffff\n      and\n      swap1\n      pop\n      dup6\n      jump\t// out\n        /* \"Distribution.sol\":488:527  uint256 public constant SHORT = 20 days */\n    tag_95:\n        /* \"Distribution.sol\":520:527  20 days */\n      0x1a5e00\n        /* \"Distribution.sol\":488:527  uint256 public constant SHORT = 20 days */\n      dup2\n      jump\t// out\n        /* \"Distribution.sol\":2400:2528  function claimedTokens(address _account) external view returns (uint256) {... */\n    tag_99:\n        /* \"Distribution.sol\":2464:2471  uint256 */\n      0x00\n        /* \"Distribution.sol\":2491:2502  accountInfo */\n      0x05\n        /* \"Distribution.sol\":2491:2512  accountInfo[_account] */\n      0x00\n        /* \"Distribution.sol\":2503:2511  _account */\n      dup4\n        /* \"Distribution.sol\":2491:2512  accountInfo[_account] */\n      0xffffffffffffffffffffffffffffffffffffffff\n      and\n      0xffffffffffffffffffffffffffffffffffffffff\n      and\n      dup2\n      mstore\n      0x20\n      add\n      swap1\n      dup2\n      mstore\n      0x20\n      add\n      0x00\n      keccak256\n        /* \"Distribution.sol\":2491:2520  accountInfo[_account].claimed */\n      0x01\n      add\n      sload\n        /* \"Distribution.sol\":2484:2520  return accountInfo[_account].claimed */\n      swap1\n      pop\n        /* \"Distribution.sol\":2400:2528  function claimedTokens(address _account) external view returns (uint256) {... */\n      swap2\n      swap1\n      pop\n      jump\t// out\n        /* \"Distribution.sol\":369:389  uint256 public start */\n    tag_102:\n      sload(0x04)\n      dup2\n      jump\t// out\n        /* \"@openzeppelin/contracts/access/AccessControl.sol\":4642:4780  function revokeRole(bytes32 role, address account) public virtual onlyRole(getRoleAdmin(role)) {... */\n    tag_106:\n        /* \"@openzeppelin/contracts/access/AccessControl.sol\":4717:4735  getRoleAdmin(role) */\n      tag_211\n        /* \"@openzeppelin/contracts/access/AccessControl.sol\":4730:4734  role */\n      dup3\n        /* \"@openzeppelin/contracts/access/AccessControl.sol\":4717:4729  getRoleAdmin */\n      tag_45\n        /* \"@openzeppelin/contracts/access/AccessControl.sol\":4717:4735  getRoleAdmin(role) */\n      jump\t// in\n    tag_211:\n        /* \"@openzeppelin/contracts/access/AccessControl.sol\":2464:2480  _checkRole(role) */\n      tag_213\n        /* \"@openzeppelin/contracts/access/AccessControl.sol\":2475:2479  role */\n      dup2\n        /* \"@openzeppelin/contracts/access/AccessControl.sol\":2464:2474  _checkRole */\n      tag_166\n        /* \"@openzeppelin/contracts/access/AccessControl.sol\":2464:2480  _checkRole(role) */\n      jump\t// in\n    tag_213:\n        /* \"@openzeppelin/contracts/access/AccessControl.sol\":4747:4773  _revokeRole(role, account) */\n      tag_215\n        /* \"@openzeppelin/contracts/access/AccessControl.sol\":4759:4763  role */\n      dup4\n        /* \"@openzeppelin/contracts/access/AccessControl.sol\":4765:4772  account */\n      dup4\n        /* \"@openzeppelin/contracts/access/AccessControl.sol\":4747:4758  _revokeRole */\n      tag_175\n        /* \"@openzeppelin/contracts/access/AccessControl.sol\":4747:4773  _revokeRole(role, account) */\n      jump\t// in\n    tag_215:\n      pop\n        /* \"@openzeppelin/contracts/access/AccessControl.sol\":4642:4780  function revokeRole(bytes32 role, address account) public virtual onlyRole(getRoleAdmin(role)) {... */\n      pop\n      pop\n      pop\n      jump\t// out\n        /* \"Distribution.sol\":441:481  uint256 public constant MEDIUM = 30 days */\n    tag_108:\n        /* \"Distribution.sol\":474:481  30 days */\n      0x278d00\n        /* \"Distribution.sol\":441:481  uint256 public constant MEDIUM = 30 days */\n      dup2\n      jump\t// out\n        /* \"@openzeppelin/contracts/access/Ownable.sol\":2543:2758  function transferOwnership(address newOwner) public virtual onlyOwner {... */\n    tag_112:\n        /* \"@openzeppelin/contracts/access/Ownable.sol\":1531:1544  _checkOwner() */\n      tag_217\n        /* \"@openzeppelin/contracts/access/Ownable.sol\":1531:1542  _checkOwner */\n      tag_134\n        /* \"@openzeppelin/contracts/access/Ownable.sol\":1531:1544  _checkOwner() */\n      jump\t// in\n    tag_217:\n        /* \"@openzeppelin/contracts/access/Ownable.sol\":2647:2648  0 */\n      0x00\n        /* \"@openzeppelin/contracts/access/Ownable.sol\":2627:2649  newOwner == address(0) */\n      0xffffffffffffffffffffffffffffffffffffffff\n      and\n        /* \"@openzeppelin/contracts/access/Ownable.sol\":2627:2635  newOwner */\n      dup2\n        /* \"@openzeppelin/contracts/access/Ownable.sol\":2627:2649  newOwner == address(0) */\n      0xffffffffffffffffffffffffffffffffffffffff\n      and\n      sub\n        /* \"@openzeppelin/contracts/access/Ownable.sol\":2623:2714  if (newOwner == address(0)) {... */\n      tag_219\n      jumpi\n        /* \"@openzeppelin/contracts/access/Ownable.sol\":2700:2701  0 */\n      0x00\n        /* \"@openzeppelin/contracts/access/Ownable.sol\":2672:2703  OwnableInvalidOwner(address(0)) */\n      mload(0x40)\n      0x1e4fbdf700000000000000000000000000000000000000000000000000000000\n      dup2\n      mstore\n      0x04\n      add\n      tag_220\n      swap2\n      swap1\n      tag_78\n      jump\t// in\n    tag_220:\n      mload(0x40)\n      dup1\n      swap2\n      sub\n      swap1\n      revert\n        /* \"@openzeppelin/contracts/access/Ownable.sol\":2623:2714  if (newOwner == address(0)) {... */\n    tag_219:\n        /* \"@openzeppelin/contracts/access/Ownable.sol\":2723:2751  _transferOwnership(newOwner) */\n      tag_221\n        /* \"@openzeppelin/contracts/access/Ownable.sol\":2742:2750  newOwner */\n      dup2\n        /* \"@openzeppelin/contracts/access/Ownable.sol\":2723:2741  _transferOwnership */\n      tag_205\n        /* \"@openzeppelin/contracts/access/Ownable.sol\":2723:2751  _transferOwnership(newOwner) */\n      jump\t// in\n    tag_221:\n        /* \"@openzeppelin/contracts/access/Ownable.sol\":2543:2758  function transferOwnership(address newOwner) public virtual onlyOwner {... */\n      pop\n      jump\t// out\n        /* \"Distribution.sol\":1500:1675  function setStart(uint256 _start) external onlyOwner {... */\n    tag_116:\n        /* \"@openzeppelin/contracts/access/Ownable.sol\":1531:1544  _checkOwner() */\n      tag_223\n        /* \"@openzeppelin/contracts/access/Ownable.sol\":1531:1542  _checkOwner */\n      tag_134\n        /* \"@openzeppelin/contracts/access/Ownable.sol\":1531:1544  _checkOwner() */\n      jump\t// in\n    tag_223:\n        /* \"Distribution.sol\":1580:1595  block.timestamp */\n      timestamp\n        /* \"Distribution.sol\":1572:1577  start */\n      sload(0x04)\n        /* \"Distribution.sol\":1572:1595  start < block.timestamp */\n      lt\n        /* \"Distribution.sol\":1564:1642  require(start < block.timestamp, \"The token distribution has already started\") */\n      tag_225\n      jumpi\n      mload(0x40)\n      0x08c379a000000000000000000000000000000000000000000000000000000000\n      dup2\n      mstore\n      0x04\n      add\n      tag_226\n      swap1\n      tag_227\n      jump\t// in\n    tag_226:\n      mload(0x40)\n      dup1\n      swap2\n      sub\n      swap1\n      revert\n    tag_225:\n        /* \"Distribution.sol\":1661:1667  _start */\n      dup1\n        /* \"Distribution.sol\":1653:1658  start */\n      0x04\n        /* \"Distribution.sol\":1653:1667  start = _start */\n      dup2\n      swap1\n      sstore\n      pop\n        /* \"Distribution.sol\":1500:1675  function setStart(uint256 _start) external onlyOwner {... */\n      pop\n      jump\t// out\n        /* \"Distribution.sol\":342:360  Token public token */\n    tag_118:\n      0x03\n      0x00\n      swap1\n      sload\n      swap1\n      0x0100\n      exp\n      swap1\n      div\n      0xffffffffffffffffffffffffffffffffffffffff\n      and\n      dup2\n      jump\t// out\n        /* \"@openzeppelin/contracts/utils/introspection/ERC165.sol\":762:908  function supportsInterface(bytes4 interfaceId) public view virtual returns (bool) {... */\n    tag_124:\n        /* \"@openzeppelin/contracts/utils/introspection/ERC165.sol\":838:842  bool */\n      0x00\n        /* \"@openzeppelin/contracts/utils/introspection/ERC165.sol\":876:901  type(IERC165).interfaceId */\n      0x01ffc9a700000000000000000000000000000000000000000000000000000000\n        /* \"@openzeppelin/contracts/utils/introspection/ERC165.sol\":861:901  interfaceId == type(IERC165).interfaceId */\n      not(0xffffffffffffffffffffffffffffffffffffffffffffffffffffffff)\n      and\n        /* \"@openzeppelin/contracts/utils/introspection/ERC165.sol\":861:872  interfaceId */\n      dup3\n        /* \"@openzeppelin/contracts/utils/introspection/ERC165.sol\":861:901  interfaceId == type(IERC165).interfaceId */\n      not(0xffffffffffffffffffffffffffffffffffffffffffffffffffffffff)\n      and\n      eq\n        /* \"@openzeppelin/contracts/utils/introspection/ERC165.sol\":854:901  return interfaceId == type(IERC165).interfaceId */\n      swap1\n      pop\n        /* \"@openzeppelin/contracts/utils/introspection/ERC165.sol\":762:908  function supportsInterface(bytes4 interfaceId) public view virtual returns (bool) {... */\n      swap2\n      swap1\n      pop\n      jump\t// out\n        /* \"@openzeppelin/contracts/access/Ownable.sol\":1796:1958  function _checkOwner() internal view virtual {... */\n    tag_134:\n        /* \"@openzeppelin/contracts/access/Ownable.sol\":1866:1878  _msgSender() */\n      tag_230\n        /* \"@openzeppelin/contracts/access/Ownable.sol\":1866:1876  _msgSender */\n      tag_172\n        /* \"@openzeppelin/contracts/access/Ownable.sol\":1866:1878  _msgSender() */\n      jump\t// in\n    tag_230:\n        /* \"@openzeppelin/contracts/access/Ownable.sol\":1855:1878  owner() != _msgSender() */\n      0xffffffffffffffffffffffffffffffffffffffff\n      and\n        /* \"@openzeppelin/contracts/access/Ownable.sol\":1855:1862  owner() */\n      tag_231\n        /* \"@openzeppelin/contracts/access/Ownable.sol\":1855:1860  owner */\n      tag_76\n        /* \"@openzeppelin/contracts/access/Ownable.sol\":1855:1862  owner() */\n      jump\t// in\n    tag_231:\n        /* \"@openzeppelin/contracts/access/Ownable.sol\":1855:1878  owner() != _msgSender() */\n      0xffffffffffffffffffffffffffffffffffffffff\n      and\n      eq\n        /* \"@openzeppelin/contracts/access/Ownable.sol\":1851:1952  if (owner() != _msgSender()) {... */\n      tag_232\n      jumpi\n        /* \"@openzeppelin/contracts/access/Ownable.sol\":1928:1940  _msgSender() */\n      tag_233\n        /* \"@openzeppelin/contracts/access/Ownable.sol\":1928:1938  _msgSender */\n      tag_172\n        /* \"@openzeppelin/contracts/access/Ownable.sol\":1928:1940  _msgSender() */\n      jump\t// in\n    tag_233:\n        /* \"@openzeppelin/contracts/access/Ownable.sol\":1901:1941  OwnableUnauthorizedAccount(_msgSender()) */\n      mload(0x40)\n      0x118cdaa700000000000000000000000000000000000000000000000000000000\n      dup2\n      mstore\n      0x04\n      add\n      tag_234\n      swap2\n      swap1\n      tag_78\n      jump\t// in\n    tag_234:\n      mload(0x40)\n      dup1\n      swap2\n      sub\n      swap1\n      revert\n        /* \"@openzeppelin/contracts/access/Ownable.sol\":1851:1952  if (owner() != _msgSender()) {... */\n    tag_232:\n        /* \"@openzeppelin/contracts/access/Ownable.sol\":1796:1958  function _checkOwner() internal view virtual {... */\n      jump\t// out\n        /* \"@openzeppelin/contracts/access/AccessControl.sol\":3199:3302  function _checkRole(bytes32 role) internal view virtual {... */\n    tag_166:\n        /* \"@openzeppelin/contracts/access/AccessControl.sol\":3265:3295  _checkRole(role, _msgSender()) */\n      tag_236\n        /* \"@openzeppelin/contracts/access/AccessControl.sol\":3276:3280  role */\n      dup2\n        /* \"@openzeppelin/contracts/access/AccessControl.sol\":3282:3294  _msgSender() */\n      tag_237\n        /* \"@openzeppelin/contracts/access/AccessControl.sol\":3282:3292  _msgSender */\n      tag_172\n        /* \"@openzeppelin/contracts/access/AccessControl.sol\":3282:3294  _msgSender() */\n      jump\t// in\n    tag_237:\n        /* \"@openzeppelin/contracts/access/AccessControl.sol\":3265:3275  _checkRole */\n      tag_238\n        /* \"@openzeppelin/contracts/access/AccessControl.sol\":3265:3295  _checkRole(role, _msgSender()) */\n      jump\t// in\n    tag_236:\n        /* \"@openzeppelin/contracts/access/AccessControl.sol\":3199:3302  function _checkRole(bytes32 role) internal view virtual {... */\n      pop\n      jump\t// out\n        /* \"@openzeppelin/contracts/access/AccessControl.sol\":6179:6495  function _grantRole(bytes32 role, address account) internal virtual returns (bool) {... */\n    tag_169:\n        /* \"@openzeppelin/contracts/access/AccessControl.sol\":6256:6260  bool */\n      0x00\n        /* \"@openzeppelin/contracts/access/AccessControl.sol\":6277:6299  hasRole(role, account) */\n      tag_240\n        /* \"@openzeppelin/contracts/access/AccessControl.sol\":6285:6289  role */\n      dup4\n        /* \"@openzeppelin/contracts/access/AccessControl.sol\":6291:6298  account */\n      dup4\n        /* \"@openzeppelin/contracts/access/AccessControl.sol\":6277:6284  hasRole */\n      tag_81\n        /* \"@openzeppelin/contracts/access/AccessControl.sol\":6277:6299  hasRole(role, account) */\n      jump\t// in\n    tag_240:\n        /* \"@openzeppelin/contracts/access/AccessControl.sol\":6272:6489  if (!hasRole(role, account)) {... */\n      tag_241\n      jumpi\n        /* \"@openzeppelin/contracts/access/AccessControl.sol\":6347:6351  true */\n      0x01\n        /* \"@openzeppelin/contracts/access/AccessControl.sol\":6315:6321  _roles */\n      dup1\n        /* \"@openzeppelin/contracts/access/AccessControl.sol\":6315:6327  _roles[role] */\n      0x00\n        /* \"@openzeppelin/contracts/access/AccessControl.sol\":6322:6326  role */\n      dup6\n        /* \"@openzeppelin/contracts/access/AccessControl.sol\":6315:6327  _roles[role] */\n      dup2\n      mstore\n      0x20\n      add\n      swap1\n      dup2\n      mstore\n      0x20\n      add\n      0x00\n      keccak256\n        /* \"@openzeppelin/contracts/access/AccessControl.sol\":6315:6335  _roles[role].hasRole */\n      0x00\n      add\n        /* \"@openzeppelin/contracts/access/AccessControl.sol\":6315:6344  _roles[role].hasRole[account] */\n      0x00\n        /* \"@openzeppelin/contracts/access/AccessControl.sol\":6336:6343  account */\n      dup5\n        /* \"@openzeppelin/contracts/access/AccessControl.sol\":6315:6344  _roles[role].hasRole[account] */\n      0xffffffffffffffffffffffffffffffffffffffff\n      and\n      0xffffffffffffffffffffffffffffffffffffffff\n      and\n      dup2\n      mstore\n      0x20\n      add\n      swap1\n      dup2\n      mstore\n      0x20\n      add\n      0x00\n      keccak256\n      0x00\n        /* \"@openzeppelin/contracts/access/AccessControl.sol\":6315:6351  _roles[role].hasRole[account] = true */\n      0x0100\n      exp\n      dup2\n      sload\n      dup2\n      0xff\n      mul\n      not\n      and\n      swap1\n      dup4\n      iszero\n      iszero\n      mul\n      or\n      swap1\n      sstore\n      pop\n        /* \"@openzeppelin/contracts/access/AccessControl.sol\":6397:6409  _msgSender() */\n      tag_242\n        /* \"@openzeppelin/contracts/access/AccessControl.sol\":6397:6407  _msgSender */\n      tag_172\n        /* \"@openzeppelin/contracts/access/AccessControl.sol\":6397:6409  _msgSender() */\n      jump\t// in\n    tag_242:\n        /* \"@openzeppelin/contracts/access/AccessControl.sol\":6370:6410  RoleGranted(role, account, _msgSender()) */\n      0xffffffffffffffffffffffffffffffffffffffff\n      and\n        /* \"@openzeppelin/contracts/access/AccessControl.sol\":6388:6395  account */\n      dup3\n        /* \"@openzeppelin/contracts/access/AccessControl.sol\":6370:6410  RoleGranted(role, account, _msgSender()) */\n      0xffffffffffffffffffffffffffffffffffffffff\n      and\n        /* \"@openzeppelin/contracts/access/AccessControl.sol\":6382:6386  role */\n      dup5\n        /* \"@openzeppelin/contracts/access/AccessControl.sol\":6370:6410  RoleGranted(role, account, _msgSender()) */\n      0x2f8788117e7eff1d82e926ec794901d17c78024a50270940304540a733656f0d\n      mload(0x40)\n      mload(0x40)\n      dup1\n      swap2\n      sub\n      swap1\n      log4\n        /* \"@openzeppelin/contracts/access/AccessControl.sol\":6431:6435  true */\n      0x01\n        /* \"@openzeppelin/contracts/access/AccessControl.sol\":6424:6435  return true */\n      swap1\n      pop\n      jump(tag_239)\n        /* \"@openzeppelin/contracts/access/AccessControl.sol\":6272:6489  if (!hasRole(role, account)) {... */\n    tag_241:\n        /* \"@openzeppelin/contracts/access/AccessControl.sol\":6473:6478  false */\n      0x00\n        /* \"@openzeppelin/contracts/access/AccessControl.sol\":6466:6478  return false */\n      swap1\n      pop\n        /* \"@openzeppelin/contracts/access/AccessControl.sol\":6179:6495  function _grantRole(bytes32 role, address account) internal virtual returns (bool) {... */\n    tag_239:\n      swap3\n      swap2\n      pop\n      pop\n      jump\t// out\n        /* \"@openzeppelin/contracts/utils/Context.sol\":656:752  function _msgSender() internal view virtual returns (address) {... */\n    tag_172:\n        /* \"@openzeppelin/contracts/utils/Context.sol\":709:716  address */\n      0x00\n        /* \"@openzeppelin/contracts/utils/Context.sol\":735:745  msg.sender */\n      caller\n        /* \"@openzeppelin/contracts/utils/Context.sol\":728:745  return msg.sender */\n      swap1\n      pop\n        /* \"@openzeppelin/contracts/utils/Context.sol\":656:752  function _msgSender() internal view virtual returns (address) {... */\n      swap1\n      jump\t// out\n        /* \"@openzeppelin/contracts/access/AccessControl.sol\":6730:7047  function _revokeRole(bytes32 role, address account) internal virtual returns (bool) {... */\n    tag_175:\n        /* \"@openzeppelin/contracts/access/AccessControl.sol\":6808:6812  bool */\n      0x00\n        /* \"@openzeppelin/contracts/access/AccessControl.sol\":6828:6850  hasRole(role, account) */\n      tag_246\n        /* \"@openzeppelin/contracts/access/AccessControl.sol\":6836:6840  role */\n      dup4\n        /* \"@openzeppelin/contracts/access/AccessControl.sol\":6842:6849  account */\n      dup4\n        /* \"@openzeppelin/contracts/access/AccessControl.sol\":6828:6835  hasRole */\n      tag_81\n        /* \"@openzeppelin/contracts/access/AccessControl.sol\":6828:6850  hasRole(role, account) */\n      jump\t// in\n    tag_246:\n        /* \"@openzeppelin/contracts/access/AccessControl.sol\":6824:7041  if (hasRole(role, account)) {... */\n      iszero\n      tag_247\n      jumpi\n        /* \"@openzeppelin/contracts/access/AccessControl.sol\":6898:6903  false */\n      0x00\n        /* \"@openzeppelin/contracts/access/AccessControl.sol\":6866:6872  _roles */\n      0x01\n        /* \"@openzeppelin/contracts/access/AccessControl.sol\":6866:6878  _roles[role] */\n      0x00\n        /* \"@openzeppelin/contracts/access/AccessControl.sol\":6873:6877  role */\n      dup6\n        /* \"@openzeppelin/contracts/access/AccessControl.sol\":6866:6878  _roles[role] */\n      dup2\n      mstore\n      0x20\n      add\n      swap1\n      dup2\n      mstore\n      0x20\n      add\n      0x00\n      keccak256\n        /* \"@openzeppelin/contracts/access/AccessControl.sol\":6866:6886  _roles[role].hasRole */\n      0x00\n      add\n        /* \"@openzeppelin/contracts/access/AccessControl.sol\":6866:6895  _roles[role].hasRole[account] */\n      0x00\n        /* \"@openzeppelin/contracts/access/AccessControl.sol\":6887:6894  account */\n      dup5\n        /* \"@openzeppelin/contracts/access/AccessControl.sol\":6866:6895  _roles[role].hasRole[account] */\n      0xffffffffffffffffffffffffffffffffffffffff\n      and\n      0xffffffffffffffffffffffffffffffffffffffff\n      and\n      dup2\n      mstore\n      0x20\n      add\n      swap1\n      dup2\n      mstore\n      0x20\n      add\n      0x00\n      keccak256\n      0x00\n        /* \"@openzeppelin/contracts/access/AccessControl.sol\":6866:6903  _roles[role].hasRole[account] = false */\n      0x0100\n      exp\n      dup2\n      sload\n      dup2\n      0xff\n      mul\n      not\n      and\n      swap1\n      dup4\n      iszero\n      iszero\n      mul\n      or\n      swap1\n      sstore\n      pop\n        /* \"@openzeppelin/contracts/access/AccessControl.sol\":6949:6961  _msgSender() */\n      tag_248\n        /* \"@openzeppelin/contracts/access/AccessControl.sol\":6949:6959  _msgSender */\n      tag_172\n        /* \"@openzeppelin/contracts/access/AccessControl.sol\":6949:6961  _msgSender() */\n      jump\t// in\n    tag_248:\n        /* \"@openzeppelin/contracts/access/AccessControl.sol\":6922:6962  RoleRevoked(role, account, _msgSender()) */\n      0xffffffffffffffffffffffffffffffffffffffff\n      and\n        /* \"@openzeppelin/contracts/access/AccessControl.sol\":6940:6947  account */\n      dup3\n        /* \"@openzeppelin/contracts/access/AccessControl.sol\":6922:6962  RoleRevoked(role, account, _msgSender()) */\n      0xffffffffffffffffffffffffffffffffffffffff\n      and\n        /* \"@openzeppelin/contracts/access/AccessControl.sol\":6934:6938  role */\n      dup5\n        /* \"@openzeppelin/contracts/access/AccessControl.sol\":6922:6962  RoleRevoked(role, account, _msgSender()) */\n      0xf6391f5c32d9c69d2a47ea670b442974b53935d1edc7fd64eb21e047a839171b\n      mload(0x40)\n      mload(0x40)\n      dup1\n      swap2\n      sub\n      swap1\n      log4\n        /* \"@openzeppelin/contracts/access/AccessControl.sol\":6983:6987  true */\n      0x01\n        /* \"@openzeppelin/contracts/access/AccessControl.sol\":6976:6987  return true */\n      swap1\n      pop\n      jump(tag_245)\n        /* \"@openzeppelin/contracts/access/AccessControl.sol\":6824:7041  if (hasRole(role, account)) {... */\n    tag_247:\n        /* \"@openzeppelin/contracts/access/AccessControl.sol\":7025:7030  false */\n      0x00\n        /* \"@openzeppelin/contracts/access/AccessControl.sol\":7018:7030  return false */\n      swap1\n      pop\n        /* \"@openzeppelin/contracts/access/AccessControl.sol\":6730:7047  function _revokeRole(bytes32 role, address account) internal virtual returns (bool) {... */\n    tag_245:\n      swap3\n      swap2\n      pop\n      pop\n      jump\t// out\n        /* \"Distribution.sol\":3421:4443  function _vestedTokens(address _account) private view returns (uint256 vestedAmount) {... */\n    tag_178:\n        /* \"Distribution.sol\":3484:3504  uint256 vestedAmount */\n      0x00\n        /* \"Distribution.sol\":3540:3545  start */\n      sload(0x04)\n        /* \"Distribution.sol\":3521:3536  block.timestamp */\n      timestamp\n        /* \"Distribution.sol\":3521:3545  block.timestamp <= start */\n      gt\n        /* \"Distribution.sol\":3517:3555  if (block.timestamp <= start) return 0 */\n      tag_251\n      jumpi\n        /* \"Distribution.sol\":3554:3555  0 */\n      0x00\n        /* \"Distribution.sol\":3547:3555  return 0 */\n      swap1\n      pop\n      jump(tag_250)\n        /* \"Distribution.sol\":3517:3555  if (block.timestamp <= start) return 0 */\n    tag_251:\n        /* \"Distribution.sol\":3566:3583  Info memory _info */\n      0x00\n        /* \"Distribution.sol\":3586:3597  accountInfo */\n      0x05\n        /* \"Distribution.sol\":3586:3607  accountInfo[_account] */\n      0x00\n        /* \"Distribution.sol\":3598:3606  _account */\n      dup5\n        /* \"Distribution.sol\":3586:3607  accountInfo[_account] */\n      0xffffffffffffffffffffffffffffffffffffffff\n      and\n      0xffffffffffffffffffffffffffffffffffffffff\n      and\n      dup2\n      mstore\n      0x20\n      add\n      swap1\n      dup2\n      mstore\n      0x20\n      add\n      0x00\n      keccak256\n        /* \"Distribution.sol\":3566:3607  Info memory _info = accountInfo[_account] */\n      mload(0x40)\n      dup1\n      0xa0\n      add\n      0x40\n      mstore\n      swap1\n      dup2\n      0x00\n      dup3\n      add\n      0x00\n      swap1\n      sload\n      swap1\n      0x0100\n      exp\n      swap1\n      div\n      0xffffffff\n      and\n      0xffffffff\n      and\n      0xffffffff\n      and\n      dup2\n      mstore\n      0x20\n      add\n      0x01\n      dup3\n      add\n      sload\n      dup2\n      mstore\n      0x20\n      add\n      0x02\n      dup3\n      add\n      0x00\n      swap1\n      sload\n      swap1\n      0x0100\n      exp\n      swap1\n      div\n      0xffffffff\n      and\n      0xffffffff\n      and\n      0xffffffff\n      and\n      dup2\n      mstore\n      0x20\n      add\n      0x02\n      dup3\n      add\n      0x04\n      swap1\n      sload\n      swap1\n      0x0100\n      exp\n      swap1\n      div\n      0xffffffff\n      and\n      0xffffffff\n      and\n      0xffffffff\n      and\n      dup2\n      mstore\n      0x20\n      add\n      0x02\n      dup3\n      add\n      0x08\n      swap1\n      sload\n      swap1\n      0x0100\n      exp\n      swap1\n      div\n      0xffffffff\n      and\n      0xffffffff\n      and\n      0xffffffff\n      and\n      dup2\n      mstore\n      pop\n      pop\n      swap1\n      pop\n        /* \"Distribution.sol\":3618:3637  uint256 timeElapsed */\n      0x00\n        /* \"Distribution.sol\":3658:3663  start */\n      sload(0x04)\n        /* \"Distribution.sol\":3640:3655  block.timestamp */\n      timestamp\n        /* \"Distribution.sol\":3640:3663  block.timestamp - start */\n      tag_252\n      swap2\n      swap1\n      tag_253\n      jump\t// in\n    tag_252:\n        /* \"Distribution.sol\":3618:3663  uint256 timeElapsed = block.timestamp - start */\n      swap1\n      pop\n        /* \"Distribution.sol\":427:434  50 days */\n      0x41eb00\n        /* \"Distribution.sol\":3680:3691  timeElapsed */\n      dup2\n        /* \"Distribution.sol\":3680:3699  timeElapsed >= LONG */\n      lt\n        /* \"Distribution.sol\":3676:3867  if (timeElapsed >= LONG) {... */\n      tag_254\n      jumpi\n        /* \"Distribution.sol\":3754:3762  10 ** 18 */\n      0x0de0b6b3a7640000\n        /* \"Distribution.sol\":3740:3745  _info */\n      dup3\n        /* \"Distribution.sol\":3740:3750  _info.long */\n      0x40\n      add\n      mload\n        /* \"Distribution.sol\":3732:3751  uint256(_info.long) */\n      0xffffffff\n      and\n        /* \"Distribution.sol\":3732:3762  uint256(_info.long) * 10 ** 18 */\n      tag_255\n      swap2\n      swap1\n      tag_152\n      jump\t// in\n    tag_255:\n        /* \"Distribution.sol\":3716:3762  vestedAmount += uint256(_info.long) * 10 ** 18 */\n      dup4\n      tag_256\n      swap2\n      swap1\n      tag_192\n      jump\t// in\n    tag_256:\n      swap3\n      pop\n        /* \"Distribution.sol\":3676:3867  if (timeElapsed >= LONG) {... */\n      jump(tag_257)\n    tag_254:\n        /* \"Distribution.sol\":427:434  50 days */\n      0x41eb00\n        /* \"Distribution.sol\":3839:3847  10 ** 18 */\n      0x0de0b6b3a7640000\n        /* \"Distribution.sol\":3825:3836  timeElapsed */\n      dup3\n        /* \"Distribution.sol\":3812:3817  _info */\n      dup5\n        /* \"Distribution.sol\":3812:3822  _info.long */\n      0x40\n      add\n      mload\n        /* \"Distribution.sol\":3812:3836  _info.long * timeElapsed */\n      0xffffffff\n      and\n      tag_258\n      swap2\n      swap1\n      tag_152\n      jump\t// in\n    tag_258:\n        /* \"Distribution.sol\":3812:3847  _info.long * timeElapsed * 10 ** 18 */\n      tag_259\n      swap2\n      swap1\n      tag_152\n      jump\t// in\n    tag_259:\n        /* \"Distribution.sol\":3811:3855  (_info.long * timeElapsed * 10 ** 18) / LONG */\n      tag_260\n      swap2\n      swap1\n      tag_261\n      jump\t// in\n    tag_260:\n        /* \"Distribution.sol\":3795:3855  vestedAmount += (_info.long * timeElapsed * 10 ** 18) / LONG */\n      dup4\n      tag_262\n      swap2\n      swap1\n      tag_192\n      jump\t// in\n    tag_262:\n      swap3\n      pop\n        /* \"Distribution.sol\":3676:3867  if (timeElapsed >= LONG) {... */\n    tag_257:\n        /* \"Distribution.sol\":474:481  30 days */\n      0x278d00\n        /* \"Distribution.sol\":3881:3892  timeElapsed */\n      dup2\n        /* \"Distribution.sol\":3881:3902  timeElapsed >= MEDIUM */\n      lt\n        /* \"Distribution.sol\":3877:4076  if (timeElapsed >= MEDIUM) {... */\n      tag_263\n      jumpi\n        /* \"Distribution.sol\":3959:3967  10 ** 18 */\n      0x0de0b6b3a7640000\n        /* \"Distribution.sol\":3943:3948  _info */\n      dup3\n        /* \"Distribution.sol\":3943:3955  _info.medium */\n      0x60\n      add\n      mload\n        /* \"Distribution.sol\":3935:3956  uint256(_info.medium) */\n      0xffffffff\n      and\n        /* \"Distribution.sol\":3935:3967  uint256(_info.medium) * 10 ** 18 */\n      tag_264\n      swap2\n      swap1\n      tag_152\n      jump\t// in\n    tag_264:\n        /* \"Distribution.sol\":3919:3967  vestedAmount += uint256(_info.medium) * 10 ** 18 */\n      dup4\n      tag_265\n      swap2\n      swap1\n      tag_192\n      jump\t// in\n    tag_265:\n      swap3\n      pop\n        /* \"Distribution.sol\":3877:4076  if (timeElapsed >= MEDIUM) {... */\n      jump(tag_266)\n    tag_263:\n        /* \"Distribution.sol\":474:481  30 days */\n      0x278d00\n        /* \"Distribution.sol\":4046:4054  10 ** 18 */\n      0x0de0b6b3a7640000\n        /* \"Distribution.sol\":4032:4043  timeElapsed */\n      dup3\n        /* \"Distribution.sol\":4017:4022  _info */\n      dup5\n        /* \"Distribution.sol\":4017:4029  _info.medium */\n      0x60\n      add\n      mload\n        /* \"Distribution.sol\":4017:4043  _info.medium * timeElapsed */\n      0xffffffff\n      and\n      tag_267\n      swap2\n      swap1\n      tag_152\n      jump\t// in\n    tag_267:\n        /* \"Distribution.sol\":4017:4054  _info.medium * timeElapsed * 10 ** 18 */\n      tag_268\n      swap2\n      swap1\n      tag_152\n      jump\t// in\n    tag_268:\n        /* \"Distribution.sol\":4016:4064  (_info.medium * timeElapsed * 10 ** 18) / MEDIUM */\n      tag_269\n      swap2\n      swap1\n      tag_261\n      jump\t// in\n    tag_269:\n        /* \"Distribution.sol\":4000:4064  vestedAmount += (_info.medium * timeElapsed * 10 ** 18) / MEDIUM */\n      dup4\n      tag_270\n      swap2\n      swap1\n      tag_192\n      jump\t// in\n    tag_270:\n      swap3\n      pop\n        /* \"Distribution.sol\":3877:4076  if (timeElapsed >= MEDIUM) {... */\n    tag_266:\n        /* \"Distribution.sol\":520:527  20 days */\n      0x1a5e00\n        /* \"Distribution.sol\":4090:4101  timeElapsed */\n      dup2\n        /* \"Distribution.sol\":4090:4110  timeElapsed >= SHORT */\n      lt\n        /* \"Distribution.sol\":4086:4436  if (timeElapsed >= SHORT) {... */\n      tag_271\n      jumpi\n        /* \"Distribution.sol\":4166:4174  10 ** 18 */\n      0x0de0b6b3a7640000\n        /* \"Distribution.sol\":4151:4156  _info */\n      dup3\n        /* \"Distribution.sol\":4151:4162  _info.short */\n      0x80\n      add\n      mload\n        /* \"Distribution.sol\":4143:4163  uint256(_info.short) */\n      0xffffffff\n      and\n        /* \"Distribution.sol\":4143:4174  uint256(_info.short) * 10 ** 18 */\n      tag_272\n      swap2\n      swap1\n      tag_152\n      jump\t// in\n    tag_272:\n        /* \"Distribution.sol\":4127:4174  vestedAmount += uint256(_info.short) * 10 ** 18 */\n      dup4\n      tag_273\n      swap2\n      swap1\n      tag_192\n      jump\t// in\n    tag_273:\n      swap3\n      pop\n        /* \"Distribution.sol\":4086:4436  if (timeElapsed >= SHORT) {... */\n      jump(tag_274)\n    tag_271:\n        /* \"Distribution.sol\":572:578  2 days */\n      0x02a300\n        /* \"Distribution.sol\":4211:4222  timeElapsed */\n      dup2\n        /* \"Distribution.sol\":4211:4236  timeElapsed < SHORT_CLIFF */\n      lt\n        /* \"Distribution.sol\":4207:4425  if (timeElapsed < SHORT_CLIFF) {... */\n      iszero\n      tag_275\n      jumpi\n        /* \"Distribution.sol\":4297:4305  10 ** 17 */\n      0x016345785d8a0000\n        /* \"Distribution.sol\":4282:4287  _info */\n      dup3\n        /* \"Distribution.sol\":4282:4293  _info.short */\n      0x80\n      add\n      mload\n        /* \"Distribution.sol\":4274:4294  uint256(_info.short) */\n      0xffffffff\n      and\n        /* \"Distribution.sol\":4274:4305  uint256(_info.short) * 10 ** 17 */\n      tag_276\n      swap2\n      swap1\n      tag_152\n      jump\t// in\n    tag_276:\n        /* \"Distribution.sol\":4257:4306  vestedAmount += (uint256(_info.short) * 10 ** 17) */\n      dup4\n      tag_277\n      swap2\n      swap1\n      tag_192\n      jump\t// in\n    tag_277:\n      swap3\n      pop\n        /* \"Distribution.sol\":4207:4425  if (timeElapsed < SHORT_CLIFF) {... */\n      jump(tag_278)\n    tag_275:\n        /* \"Distribution.sol\":520:527  20 days */\n      0x1a5e00\n        /* \"Distribution.sol\":4392:4400  10 ** 18 */\n      0x0de0b6b3a7640000\n        /* \"Distribution.sol\":4378:4389  timeElapsed */\n      dup3\n        /* \"Distribution.sol\":4364:4369  _info */\n      dup5\n        /* \"Distribution.sol\":4364:4375  _info.short */\n      0x80\n      add\n      mload\n        /* \"Distribution.sol\":4364:4389  _info.short * timeElapsed */\n      0xffffffff\n      and\n      tag_279\n      swap2\n      swap1\n      tag_152\n      jump\t// in\n    tag_279:\n        /* \"Distribution.sol\":4364:4400  _info.short * timeElapsed * 10 ** 18 */\n      tag_280\n      swap2\n      swap1\n      tag_152\n      jump\t// in\n    tag_280:\n        /* \"Distribution.sol\":4363:4409  (_info.short * timeElapsed * 10 ** 18) / SHORT */\n      tag_281\n      swap2\n      swap1\n      tag_261\n      jump\t// in\n    tag_281:\n        /* \"Distribution.sol\":4347:4409  vestedAmount += (_info.short * timeElapsed * 10 ** 18) / SHORT */\n      dup4\n      tag_282\n      swap2\n      swap1\n      tag_192\n      jump\t// in\n    tag_282:\n      swap3\n      pop\n        /* \"Distribution.sol\":4207:4425  if (timeElapsed < SHORT_CLIFF) {... */\n    tag_278:\n        /* \"Distribution.sol\":4086:4436  if (timeElapsed >= SHORT) {... */\n    tag_274:\n        /* \"Distribution.sol\":3506:4443  {... */\n      pop\n      pop\n        /* \"Distribution.sol\":3421:4443  function _vestedTokens(address _account) private view returns (uint256 vestedAmount) {... */\n    tag_250:\n      swap2\n      swap1\n      pop\n      jump\t// out\n        /* \"@openzeppelin/contracts/security/ReentrancyGuard.sol\":2336:2623  function _nonReentrantBefore() private {... */\n    tag_181:\n        /* \"@openzeppelin/contracts/security/ReentrancyGuard.sol\":1759:1760  2 */\n      0x02\n        /* \"@openzeppelin/contracts/security/ReentrancyGuard.sol\":2468:2475  _status */\n      dup1\n      sload\n        /* \"@openzeppelin/contracts/security/ReentrancyGuard.sol\":2468:2487  _status != _ENTERED */\n      sub\n        /* \"@openzeppelin/contracts/security/ReentrancyGuard.sol\":2460:2523  require(_status != _ENTERED, \"ReentrancyGuard: reentrant call\") */\n      tag_284\n      jumpi\n      mload(0x40)\n      0x08c379a000000000000000000000000000000000000000000000000000000000\n      dup2\n      mstore\n      0x04\n      add\n      tag_285\n      swap1\n      tag_286\n      jump\t// in\n    tag_285:\n      mload(0x40)\n      dup1\n      swap2\n      sub\n      swap1\n      revert\n    tag_284:\n        /* \"@openzeppelin/contracts/security/ReentrancyGuard.sol\":1759:1760  2 */\n      0x02\n        /* \"@openzeppelin/contracts/security/ReentrancyGuard.sol\":2598:2605  _status */\n      dup1\n        /* \"@openzeppelin/contracts/security/ReentrancyGuard.sol\":2598:2616  _status = _ENTERED */\n      dup2\n      swap1\n      sstore\n      pop\n        /* \"@openzeppelin/contracts/security/ReentrancyGuard.sol\":2336:2623  function _nonReentrantBefore() private {... */\n      jump\t// out\n        /* \"Distribution.sol\":3041:3413  function _claimableTokens(address _account) private view returns (uint256 claimableAmount) {... */\n    tag_187:\n        /* \"Distribution.sol\":3107:3130  uint256 claimableAmount */\n      0x00\n        /* \"Distribution.sol\":3143:3163  uint256 vestedAmount */\n      dup1\n        /* \"Distribution.sol\":3166:3189  _vestedTokens(_account) */\n      tag_288\n        /* \"Distribution.sol\":3180:3188  _account */\n      dup4\n        /* \"Distribution.sol\":3166:3179  _vestedTokens */\n      tag_178\n        /* \"Distribution.sol\":3166:3189  _vestedTokens(_account) */\n      jump\t// in\n    tag_288:\n        /* \"Distribution.sol\":3143:3189  uint256 vestedAmount = _vestedTokens(_account) */\n      swap1\n      pop\n        /* \"Distribution.sol\":3200:3215  uint256 claimed */\n      0x00\n        /* \"Distribution.sol\":3218:3229  accountInfo */\n      0x05\n        /* \"Distribution.sol\":3218:3239  accountInfo[_account] */\n      0x00\n        /* \"Distribution.sol\":3230:3238  _account */\n      dup6\n        /* \"Distribution.sol\":3218:3239  accountInfo[_account] */\n      0xffffffffffffffffffffffffffffffffffffffff\n      and\n      0xffffffffffffffffffffffffffffffffffffffff\n      and\n      dup2\n      mstore\n      0x20\n      add\n      swap1\n      dup2\n      mstore\n      0x20\n      add\n      0x00\n      keccak256\n        /* \"Distribution.sol\":3218:3247  accountInfo[_account].claimed */\n      0x01\n      add\n      sload\n        /* \"Distribution.sol\":3200:3247  uint256 claimed = accountInfo[_account].claimed */\n      swap1\n      pop\n        /* \"Distribution.sol\":3278:3285  claimed */\n      dup1\n        /* \"Distribution.sol\":3262:3274  vestedAmount */\n      dup3\n        /* \"Distribution.sol\":3262:3285  vestedAmount <= claimed */\n      gt\n        /* \"Distribution.sol\":3258:3406  if (vestedAmount <= claimed) {... */\n      tag_289\n      jumpi\n        /* \"Distribution.sol\":3320:3321  0 */\n      0x00\n        /* \"Distribution.sol\":3302:3321  claimableAmount = 0 */\n      swap3\n      pop\n        /* \"Distribution.sol\":3258:3406  if (vestedAmount <= claimed) {... */\n      jump(tag_290)\n    tag_289:\n        /* \"Distribution.sol\":3387:3394  claimed */\n      dup1\n        /* \"Distribution.sol\":3372:3384  vestedAmount */\n      dup3\n        /* \"Distribution.sol\":3372:3394  vestedAmount - claimed */\n      tag_291\n      swap2\n      swap1\n      tag_253\n      jump\t// in\n    tag_291:\n        /* \"Distribution.sol\":3354:3394  claimableAmount = vestedAmount - claimed */\n      swap3\n      pop\n        /* \"Distribution.sol\":3258:3406  if (vestedAmount <= claimed) {... */\n    tag_290:\n        /* \"Distribution.sol\":3132:3413  {... */\n      pop\n      pop\n        /* \"Distribution.sol\":3041:3413  function _claimableTokens(address _account) private view returns (uint256 claimableAmount) {... */\n      swap2\n      swap1\n      pop\n      jump\t// out\n        /* \"@openzeppelin/contracts/security/ReentrancyGuard.sol\":2629:2838  function _nonReentrantAfter() private {... */\n    tag_200:\n        /* \"@openzeppelin/contracts/security/ReentrancyGuard.sol\":1716:1717  1 */\n      0x01\n        /* \"@openzeppelin/contracts/security/ReentrancyGuard.sol\":2809:2816  _status */\n      0x02\n        /* \"@openzeppelin/contracts/security/ReentrancyGuard.sol\":2809:2831  _status = _NOT_ENTERED */\n      dup2\n      swap1\n      sstore\n      pop\n        /* \"@openzeppelin/contracts/security/ReentrancyGuard.sol\":2629:2838  function _nonReentrantAfter() private {... */\n      jump\t// out\n        /* \"@openzeppelin/contracts/access/Ownable.sol\":2912:3099  function _transferOwnership(address newOwner) internal virtual {... */\n    tag_205:\n        /* \"@openzeppelin/contracts/access/Ownable.sol\":2985:3001  address oldOwner */\n      0x00\n        /* \"@openzeppelin/contracts/access/Ownable.sol\":3004:3010  _owner */\n      dup1\n      0x00\n      swap1\n      sload\n      swap1\n      0x0100\n      exp\n      swap1\n      div\n      0xffffffffffffffffffffffffffffffffffffffff\n      and\n        /* \"@openzeppelin/contracts/access/Ownable.sol\":2985:3010  address oldOwner = _owner */\n      swap1\n      pop\n        /* \"@openzeppelin/contracts/access/Ownable.sol\":3029:3037  newOwner */\n      dup2\n        /* \"@openzeppelin/contracts/access/Ownable.sol\":3020:3026  _owner */\n      0x00\n      dup1\n        /* \"@openzeppelin/contracts/access/Ownable.sol\":3020:3037  _owner = newOwner */\n      0x0100\n      exp\n      dup2\n      sload\n      dup2\n      0xffffffffffffffffffffffffffffffffffffffff\n      mul\n      not\n      and\n      swap1\n      dup4\n      0xffffffffffffffffffffffffffffffffffffffff\n      and\n      mul\n      or\n      swap1\n      sstore\n      pop\n        /* \"@openzeppelin/contracts/access/Ownable.sol\":3083:3091  newOwner */\n      dup2\n        /* \"@openzeppelin/contracts/access/Ownable.sol\":3052:3092  OwnershipTransferred(oldOwner, newOwner) */\n      0xffffffffffffffffffffffffffffffffffffffff\n      and\n        /* \"@openzeppelin/contracts/access/Ownable.sol\":3073:3081  oldOwner */\n      dup2\n        /* \"@openzeppelin/contracts/access/Ownable.sol\":3052:3092  OwnershipTransferred(oldOwner, newOwner) */\n      0xffffffffffffffffffffffffffffffffffffffff\n      and\n      0x8be0079c531659141344cd1fd0a4f28419497f9722a3daafe3b4186f6b6457e0\n      mload(0x40)\n      mload(0x40)\n      dup1\n      swap2\n      sub\n      swap1\n      log3\n        /* \"@openzeppelin/contracts/access/Ownable.sol\":2975:3099  {... */\n      pop\n        /* \"@openzeppelin/contracts/access/Ownable.sol\":2912:3099  function _transferOwnership(address newOwner) internal virtual {... */\n      pop\n      jump\t// out\n        /* \"@openzeppelin/contracts/access/AccessControl.sol\":3432:3629  function _checkRole(bytes32 role, address account) internal view virtual {... */\n    tag_238:\n        /* \"@openzeppelin/contracts/access/AccessControl.sol\":3520:3542  hasRole(role, account) */\n      tag_295\n        /* \"@openzeppelin/contracts/access/AccessControl.sol\":3528:3532  role */\n      dup3\n        /* \"@openzeppelin/contracts/access/AccessControl.sol\":3534:3541  account */\n      dup3\n        /* \"@openzeppelin/contracts/access/AccessControl.sol\":3520:3527  hasRole */\n      tag_81\n        /* \"@openzeppelin/contracts/access/AccessControl.sol\":3520:3542  hasRole(role, account) */\n      jump\t// in\n    tag_295:\n        /* \"@openzeppelin/contracts/access/AccessControl.sol\":3515:3623  if (!hasRole(role, account)) {... */\n      tag_296\n      jumpi\n        /* \"@openzeppelin/contracts/access/AccessControl.sol\":3598:3605  account */\n      dup1\n        /* \"@openzeppelin/contracts/access/AccessControl.sol\":3607:3611  role */\n      dup3\n        /* \"@openzeppelin/contracts/access/AccessControl.sol\":3565:3612  AccessControlUnauthorizedAccount(account, role) */\n      mload(0x40)\n      0xe2517d3f00000000000000000000000000000000000000000000000000000000\n      dup2\n      mstore\n      0x04\n      add\n      tag_297\n      swap3\n      swap2\n      swap1\n      tag_298\n      jump\t// in\n    tag_297:\n      mload(0x40)\n      dup1\n      swap2\n      sub\n      swap1\n      revert\n        /* \"@openzeppelin/contracts/access/AccessControl.sol\":3515:3623  if (!hasRole(role, account)) {... */\n    tag_296:\n        /* \"@openzeppelin/contracts/access/AccessControl.sol\":3432:3629  function _checkRole(bytes32 role, address account) internal view virtual {... */\n      pop\n      pop\n      jump\t// out\n        /* \"#utility.yul\":7:82   */\n    tag_299:\n        /* \"#utility.yul\":40:46   */\n      0x00\n        /* \"#utility.yul\":73:75   */\n      0x40\n        /* \"#utility.yul\":67:76   */\n      mload\n        /* \"#utility.yul\":57:76   */\n      swap1\n      pop\n        /* \"#utility.yul\":7:82   */\n      swap1\n      jump\t// out\n        /* \"#utility.yul\":88:205   */\n    tag_300:\n        /* \"#utility.yul\":197:198   */\n      0x00\n        /* \"#utility.yul\":194:195   */\n      dup1\n        /* \"#utility.yul\":187:199   */\n      revert\n        /* \"#utility.yul\":211:328   */\n    tag_301:\n        /* \"#utility.yul\":320:321   */\n      0x00\n        /* \"#utility.yul\":317:318   */\n      dup1\n        /* \"#utility.yul\":310:322   */\n      revert\n        /* \"#utility.yul\":334:483   */\n    tag_302:\n        /* \"#utility.yul\":370:377   */\n      0x00\n        /* \"#utility.yul\":410:476   */\n      0xffffffff00000000000000000000000000000000000000000000000000000000\n        /* \"#utility.yul\":403:408   */\n      dup3\n        /* \"#utility.yul\":399:477   */\n      and\n        /* \"#utility.yul\":388:477   */\n      swap1\n      pop\n        /* \"#utility.yul\":334:483   */\n      swap2\n      swap1\n      pop\n      jump\t// out\n        /* \"#utility.yul\":489:609   */\n    tag_303:\n        /* \"#utility.yul\":561:584   */\n      tag_360\n        /* \"#utility.yul\":578:583   */\n      dup2\n        /* \"#utility.yul\":561:584   */\n      tag_302\n      jump\t// in\n    tag_360:\n        /* \"#utility.yul\":554:559   */\n      dup2\n        /* \"#utility.yul\":551:585   */\n      eq\n        /* \"#utility.yul\":541:603   */\n      tag_361\n      jumpi\n        /* \"#utility.yul\":599:600   */\n      0x00\n        /* \"#utility.yul\":596:597   */\n      dup1\n        /* \"#utility.yul\":589:601   */\n      revert\n        /* \"#utility.yul\":541:603   */\n    tag_361:\n        /* \"#utility.yul\":489:609   */\n      pop\n      jump\t// out\n        /* \"#utility.yul\":615:752   */\n    tag_304:\n        /* \"#utility.yul\":660:665   */\n      0x00\n        /* \"#utility.yul\":698:704   */\n      dup2\n        /* \"#utility.yul\":685:705   */\n      calldataload\n        /* \"#utility.yul\":676:705   */\n      swap1\n      pop\n        /* \"#utility.yul\":714:746   */\n      tag_363\n        /* \"#utility.yul\":740:745   */\n      dup2\n        /* \"#utility.yul\":714:746   */\n      tag_303\n      jump\t// in\n    tag_363:\n        /* \"#utility.yul\":615:752   */\n      swap3\n      swap2\n      pop\n      pop\n      jump\t// out\n        /* \"#utility.yul\":758:1085   */\n    tag_32:\n        /* \"#utility.yul\":816:822   */\n      0x00\n        /* \"#utility.yul\":865:867   */\n      0x20\n        /* \"#utility.yul\":853:862   */\n      dup3\n        /* \"#utility.yul\":844:851   */\n      dup5\n        /* \"#utility.yul\":840:863   */\n      sub\n        /* \"#utility.yul\":836:868   */\n      slt\n        /* \"#utility.yul\":833:952   */\n      iszero\n      tag_365\n      jumpi\n        /* \"#utility.yul\":871:950   */\n      tag_366\n      tag_300\n      jump\t// in\n    tag_366:\n        /* \"#utility.yul\":833:952   */\n    tag_365:\n        /* \"#utility.yul\":991:992   */\n      0x00\n        /* \"#utility.yul\":1016:1068   */\n      tag_367\n        /* \"#utility.yul\":1060:1067   */\n      dup5\n        /* \"#utility.yul\":1051:1057   */\n      dup3\n        /* \"#utility.yul\":1040:1049   */\n      dup6\n        /* \"#utility.yul\":1036:1058   */\n      add\n        /* \"#utility.yul\":1016:1068   */\n      tag_304\n      jump\t// in\n    tag_367:\n        /* \"#utility.yul\":1006:1068   */\n      swap2\n      pop\n        /* \"#utility.yul\":962:1078   */\n      pop\n        /* \"#utility.yul\":758:1085   */\n      swap3\n      swap2\n      pop\n      pop\n      jump\t// out\n        /* \"#utility.yul\":1091:1181   */\n    tag_305:\n        /* \"#utility.yul\":1125:1132   */\n      0x00\n        /* \"#utility.yul\":1168:1173   */\n      dup2\n        /* \"#utility.yul\":1161:1174   */\n      iszero\n        /* \"#utility.yul\":1154:1175   */\n      iszero\n        /* \"#utility.yul\":1143:1175   */\n      swap1\n      pop\n        /* \"#utility.yul\":1091:1181   */\n      swap2\n      swap1\n      pop\n      jump\t// out\n        /* \"#utility.yul\":1187:1296   */\n    tag_306:\n        /* \"#utility.yul\":1268:1289   */\n      tag_370\n        /* \"#utility.yul\":1283:1288   */\n      dup2\n        /* \"#utility.yul\":1268:1289   */\n      tag_305\n      jump\t// in\n    tag_370:\n        /* \"#utility.yul\":1263:1266   */\n      dup3\n        /* \"#utility.yul\":1256:1290   */\n      mstore\n        /* \"#utility.yul\":1187:1296   */\n      pop\n      pop\n      jump\t// out\n        /* \"#utility.yul\":1302:1512   */\n    tag_35:\n        /* \"#utility.yul\":1389:1393   */\n      0x00\n        /* \"#utility.yul\":1427:1429   */\n      0x20\n        /* \"#utility.yul\":1416:1425   */\n      dup3\n        /* \"#utility.yul\":1412:1430   */\n      add\n        /* \"#utility.yul\":1404:1430   */\n      swap1\n      pop\n        /* \"#utility.yul\":1440:1505   */\n      tag_372\n        /* \"#utility.yul\":1502:1503   */\n      0x00\n        /* \"#utility.yul\":1491:1500   */\n      dup4\n        /* \"#utility.yul\":1487:1504   */\n      add\n        /* \"#utility.yul\":1478:1484   */\n      dup5\n        /* \"#utility.yul\":1440:1505   */\n      tag_306\n      jump\t// in\n    tag_372:\n        /* \"#utility.yul\":1302:1512   */\n      swap3\n      swap2\n      pop\n      pop\n      jump\t// out\n        /* \"#utility.yul\":1518:1644   */\n    tag_307:\n        /* \"#utility.yul\":1555:1562   */\n      0x00\n        /* \"#utility.yul\":1595:1637   */\n      0xffffffffffffffffffffffffffffffffffffffff\n        /* \"#utility.yul\":1588:1593   */\n      dup3\n        /* \"#utility.yul\":1584:1638   */\n      and\n        /* \"#utility.yul\":1573:1638   */\n      swap1\n      pop\n        /* \"#utility.yul\":1518:1644   */\n      swap2\n      swap1\n      pop\n      jump\t// out\n        /* \"#utility.yul\":1650:1746   */\n    tag_308:\n        /* \"#utility.yul\":1687:1694   */\n      0x00\n        /* \"#utility.yul\":1716:1740   */\n      tag_375\n        /* \"#utility.yul\":1734:1739   */\n      dup3\n        /* \"#utility.yul\":1716:1740   */\n      tag_307\n      jump\t// in\n    tag_375:\n        /* \"#utility.yul\":1705:1740   */\n      swap1\n      pop\n        /* \"#utility.yul\":1650:1746   */\n      swap2\n      swap1\n      pop\n      jump\t// out\n        /* \"#utility.yul\":1752:1874   */\n    tag_309:\n        /* \"#utility.yul\":1825:1849   */\n      tag_377\n        /* \"#utility.yul\":1843:1848   */\n      dup2\n        /* \"#utility.yul\":1825:1849   */\n      tag_308\n      jump\t// in\n    tag_377:\n        /* \"#utility.yul\":1818:1823   */\n      dup2\n        /* \"#utility.yul\":1815:1850   */\n      eq\n        /* \"#utility.yul\":1805:1868   */\n      tag_378\n      jumpi\n        /* \"#utility.yul\":1864:1865   */\n      0x00\n        /* \"#utility.yul\":1861:1862   */\n      dup1\n        /* \"#utility.yul\":1854:1866   */\n      revert\n        /* \"#utility.yul\":1805:1868   */\n    tag_378:\n        /* \"#utility.yul\":1752:1874   */\n      pop\n      jump\t// out\n        /* \"#utility.yul\":1880:2019   */\n    tag_310:\n        /* \"#utility.yul\":1926:1931   */\n      0x00\n        /* \"#utility.yul\":1964:1970   */\n      dup2\n        /* \"#utility.yul\":1951:1971   */\n      calldataload\n        /* \"#utility.yul\":1942:1971   */\n      swap1\n      pop\n        /* \"#utility.yul\":1980:2013   */\n      tag_380\n        /* \"#utility.yul\":2007:2012   */\n      dup2\n        /* \"#utility.yul\":1980:2013   */\n      tag_309\n      jump\t// in\n    tag_380:\n        /* \"#utility.yul\":1880:2019   */\n      swap3\n      swap2\n      pop\n      pop\n      jump\t// out\n        /* \"#utility.yul\":2025:2354   */\n    tag_38:\n        /* \"#utility.yul\":2084:2090   */\n      0x00\n        /* \"#utility.yul\":2133:2135   */\n      0x20\n        /* \"#utility.yul\":2121:2130   */\n      dup3\n        /* \"#utility.yul\":2112:2119   */\n      dup5\n        /* \"#utility.yul\":2108:2131   */\n      sub\n        /* \"#utility.yul\":2104:2136   */\n      slt\n        /* \"#utility.yul\":2101:2220   */\n      iszero\n      tag_382\n      jumpi\n        /* \"#utility.yul\":2139:2218   */\n      tag_383\n      tag_300\n      jump\t// in\n    tag_383:\n        /* \"#utility.yul\":2101:2220   */\n    tag_382:\n        /* \"#utility.yul\":2259:2260   */\n      0x00\n        /* \"#utility.yul\":2284:2337   */\n      tag_384\n        /* \"#utility.yul\":2329:2336   */\n      dup5\n        /* \"#utility.yul\":2320:2326   */\n      dup3\n        /* \"#utility.yul\":2309:2318   */\n      dup6\n        /* \"#utility.yul\":2305:2327   */\n      add\n        /* \"#utility.yul\":2284:2337   */\n      tag_310\n      jump\t// in\n    tag_384:\n        /* \"#utility.yul\":2274:2337   */\n      swap2\n      pop\n        /* \"#utility.yul\":2230:2347   */\n      pop\n        /* \"#utility.yul\":2025:2354   */\n      swap3\n      swap2\n      pop\n      pop\n      jump\t// out\n        /* \"#utility.yul\":2360:2437   */\n    tag_311:\n        /* \"#utility.yul\":2397:2404   */\n      0x00\n        /* \"#utility.yul\":2426:2431   */\n      dup2\n        /* \"#utility.yul\":2415:2431   */\n      swap1\n      pop\n        /* \"#utility.yul\":2360:2437   */\n      swap2\n      swap1\n      pop\n      jump\t// out\n        /* \"#utility.yul\":2443:2561   */\n    tag_312:\n        /* \"#utility.yul\":2530:2554   */\n      tag_387\n        /* \"#utility.yul\":2548:2553   */\n      dup2\n        /* \"#utility.yul\":2530:2554   */\n      tag_311\n      jump\t// in\n    tag_387:\n        /* \"#utility.yul\":2525:2528   */\n      dup3\n        /* \"#utility.yul\":2518:2555   */\n      mstore\n        /* \"#utility.yul\":2443:2561   */\n      pop\n      pop\n      jump\t// out\n        /* \"#utility.yul\":2567:3231   */\n    tag_41:\n        /* \"#utility.yul\":2772:2776   */\n      0x00\n        /* \"#utility.yul\":2810:2813   */\n      0xa0\n        /* \"#utility.yul\":2799:2808   */\n      dup3\n        /* \"#utility.yul\":2795:2814   */\n      add\n        /* \"#utility.yul\":2787:2814   */\n      swap1\n      pop\n        /* \"#utility.yul\":2824:2895   */\n      tag_389\n        /* \"#utility.yul\":2892:2893   */\n      0x00\n        /* \"#utility.yul\":2881:2890   */\n      dup4\n        /* \"#utility.yul\":2877:2894   */\n      add\n        /* \"#utility.yul\":2868:2874   */\n      dup9\n        /* \"#utility.yul\":2824:2895   */\n      tag_312\n      jump\t// in\n    tag_389:\n        /* \"#utility.yul\":2905:2977   */\n      tag_390\n        /* \"#utility.yul\":2973:2975   */\n      0x20\n        /* \"#utility.yul\":2962:2971   */\n      dup4\n        /* \"#utility.yul\":2958:2976   */\n      add\n        /* \"#utility.yul\":2949:2955   */\n      dup8\n        /* \"#utility.yul\":2905:2977   */\n      tag_312\n      jump\t// in\n    tag_390:\n        /* \"#utility.yul\":2987:3059   */\n      tag_391\n        /* \"#utility.yul\":3055:3057   */\n      0x40\n        /* \"#utility.yul\":3044:3053   */\n      dup4\n        /* \"#utility.yul\":3040:3058   */\n      add\n        /* \"#utility.yul\":3031:3037   */\n      dup7\n        /* \"#utility.yul\":2987:3059   */\n      tag_312\n      jump\t// in\n    tag_391:\n        /* \"#utility.yul\":3069:3141   */\n      tag_392\n        /* \"#utility.yul\":3137:3139   */\n      0x60\n        /* \"#utility.yul\":3126:3135   */\n      dup4\n        /* \"#utility.yul\":3122:3140   */\n      add\n        /* \"#utility.yul\":3113:3119   */\n      dup6\n        /* \"#utility.yul\":3069:3141   */\n      tag_312\n      jump\t// in\n    tag_392:\n        /* \"#utility.yul\":3151:3224   */\n      tag_393\n        /* \"#utility.yul\":3219:3222   */\n      0x80\n        /* \"#utility.yul\":3208:3217   */\n      dup4\n        /* \"#utility.yul\":3204:3223   */\n      add\n        /* \"#utility.yul\":3195:3201   */\n      dup5\n        /* \"#utility.yul\":3151:3224   */\n      tag_312\n      jump\t// in\n    tag_393:\n        /* \"#utility.yul\":2567:3231   */\n      swap7\n      swap6\n      pop\n      pop\n      pop\n      pop\n      pop\n      pop\n      jump\t// out\n        /* \"#utility.yul\":3237:3314   */\n    tag_313:\n        /* \"#utility.yul\":3274:3281   */\n      0x00\n        /* \"#utility.yul\":3303:3308   */\n      dup2\n        /* \"#utility.yul\":3292:3308   */\n      swap1\n      pop\n        /* \"#utility.yul\":3237:3314   */\n      swap2\n      swap1\n      pop\n      jump\t// out\n        /* \"#utility.yul\":3320:3442   */\n    tag_314:\n        /* \"#utility.yul\":3393:3417   */\n      tag_396\n        /* \"#utility.yul\":3411:3416   */\n      dup2\n        /* \"#utility.yul\":3393:3417   */\n      tag_313\n      jump\t// in\n    tag_396:\n        /* \"#utility.yul\":3386:3391   */\n      dup2\n        /* \"#utility.yul\":3383:3418   */\n      eq\n        /* \"#utility.yul\":3373:3436   */\n      tag_397\n      jumpi\n        /* \"#utility.yul\":3432:3433   */\n      0x00\n        /* \"#utility.yul\":3429:3430   */\n      dup1\n        /* \"#utility.yul\":3422:3434   */\n      revert\n        /* \"#utility.yul\":3373:3436   */\n    tag_397:\n        /* \"#utility.yul\":3320:3442   */\n      pop\n      jump\t// out\n        /* \"#utility.yul\":3448:3587   */\n    tag_315:\n        /* \"#utility.yul\":3494:3499   */\n      0x00\n        /* \"#utility.yul\":3532:3538   */\n      dup2\n        /* \"#utility.yul\":3519:3539   */\n      calldataload\n        /* \"#utility.yul\":3510:3539   */\n      swap1\n      pop\n        /* \"#utility.yul\":3548:3581   */\n      tag_399\n        /* \"#utility.yul\":3575:3580   */\n      dup2\n        /* \"#utility.yul\":3548:3581   */\n      tag_314\n      jump\t// in\n    tag_399:\n        /* \"#utility.yul\":3448:3587   */\n      swap3\n      swap2\n      pop\n      pop\n      jump\t// out\n        /* \"#utility.yul\":3593:3922   */\n    tag_44:\n        /* \"#utility.yul\":3652:3658   */\n      0x00\n        /* \"#utility.yul\":3701:3703   */\n      0x20\n        /* \"#utility.yul\":3689:3698   */\n      dup3\n        /* \"#utility.yul\":3680:3687   */\n      dup5\n        /* \"#utility.yul\":3676:3699   */\n      sub\n        /* \"#utility.yul\":3672:3704   */\n      slt\n        /* \"#utility.yul\":3669:3788   */\n      iszero\n      tag_401\n      jumpi\n        /* \"#utility.yul\":3707:3786   */\n      tag_402\n      tag_300\n      jump\t// in\n    tag_402:\n        /* \"#utility.yul\":3669:3788   */\n    tag_401:\n        /* \"#utility.yul\":3827:3828   */\n      0x00\n        /* \"#utility.yul\":3852:3905   */\n      tag_403\n        /* \"#utility.yul\":3897:3904   */\n      dup5\n        /* \"#utility.yul\":3888:3894   */\n      dup3\n        /* \"#utility.yul\":3877:3886   */\n      dup6\n        /* \"#utility.yul\":3873:3895   */\n      add\n        /* \"#utility.yul\":3852:3905   */\n      tag_315\n      jump\t// in\n    tag_403:\n        /* \"#utility.yul\":3842:3905   */\n      swap2\n      pop\n        /* \"#utility.yul\":3798:3915   */\n      pop\n        /* \"#utility.yul\":3593:3922   */\n      swap3\n      swap2\n      pop\n      pop\n      jump\t// out\n        /* \"#utility.yul\":3928:4046   */\n    tag_316:\n        /* \"#utility.yul\":4015:4039   */\n      tag_405\n        /* \"#utility.yul\":4033:4038   */\n      dup2\n        /* \"#utility.yul\":4015:4039   */\n      tag_313\n      jump\t// in\n    tag_405:\n        /* \"#utility.yul\":4010:4013   */\n      dup3\n        /* \"#utility.yul\":4003:4040   */\n      mstore\n        /* \"#utility.yul\":3928:4046   */\n      pop\n      pop\n      jump\t// out\n        /* \"#utility.yul\":4052:4274   */\n    tag_47:\n        /* \"#utility.yul\":4145:4149   */\n      0x00\n        /* \"#utility.yul\":4183:4185   */\n      0x20\n        /* \"#utility.yul\":4172:4181   */\n      dup3\n        /* \"#utility.yul\":4168:4186   */\n      add\n        /* \"#utility.yul\":4160:4186   */\n      swap1\n      pop\n        /* \"#utility.yul\":4196:4267   */\n      tag_407\n        /* \"#utility.yul\":4264:4265   */\n      0x00\n        /* \"#utility.yul\":4253:4262   */\n      dup4\n        /* \"#utility.yul\":4249:4266   */\n      add\n        /* \"#utility.yul\":4240:4246   */\n      dup5\n        /* \"#utility.yul\":4196:4267   */\n      tag_316\n      jump\t// in\n    tag_407:\n        /* \"#utility.yul\":4052:4274   */\n      swap3\n      swap2\n      pop\n      pop\n      jump\t// out\n        /* \"#utility.yul\":4280:4397   */\n    tag_317:\n        /* \"#utility.yul\":4389:4390   */\n      0x00\n        /* \"#utility.yul\":4386:4387   */\n      dup1\n        /* \"#utility.yul\":4379:4391   */\n      revert\n        /* \"#utility.yul\":4403:4505   */\n    tag_318:\n        /* \"#utility.yul\":4444:4450   */\n      0x00\n        /* \"#utility.yul\":4495:4497   */\n      0x1f\n        /* \"#utility.yul\":4491:4498   */\n      not\n        /* \"#utility.yul\":4486:4488   */\n      0x1f\n        /* \"#utility.yul\":4479:4484   */\n      dup4\n        /* \"#utility.yul\":4475:4489   */\n      add\n        /* \"#utility.yul\":4471:4499   */\n      and\n        /* \"#utility.yul\":4461:4499   */\n      swap1\n      pop\n        /* \"#utility.yul\":4403:4505   */\n      swap2\n      swap1\n      pop\n      jump\t// out\n        /* \"#utility.yul\":4511:4691   */\n    tag_319:\n        /* \"#utility.yul\":4559:4636   */\n      0x4e487b7100000000000000000000000000000000000000000000000000000000\n        /* \"#utility.yul\":4556:4557   */\n      0x00\n        /* \"#utility.yul\":4549:4637   */\n      mstore\n        /* \"#utility.yul\":4656:4660   */\n      0x41\n        /* \"#utility.yul\":4653:4654   */\n      0x04\n        /* \"#utility.yul\":4646:4661   */\n      mstore\n        /* \"#utility.yul\":4680:4684   */\n      0x24\n        /* \"#utility.yul\":4677:4678   */\n      0x00\n        /* \"#utility.yul\":4670:4685   */\n      revert\n        /* \"#utility.yul\":4697:4978   */\n    tag_320:\n        /* \"#utility.yul\":4780:4807   */\n      tag_412\n        /* \"#utility.yul\":4802:4806   */\n      dup3\n        /* \"#utility.yul\":4780:4807   */\n      tag_318\n      jump\t// in\n    tag_412:\n        /* \"#utility.yul\":4772:4778   */\n      dup2\n        /* \"#utility.yul\":4768:4808   */\n      add\n        /* \"#utility.yul\":4910:4916   */\n      dup2\n        /* \"#utility.yul\":4898:4908   */\n      dup2\n        /* \"#utility.yul\":4895:4917   */\n      lt\n        /* \"#utility.yul\":4874:4892   */\n      0xffffffffffffffff\n        /* \"#utility.yul\":4862:4872   */\n      dup3\n        /* \"#utility.yul\":4859:4893   */\n      gt\n        /* \"#utility.yul\":4856:4918   */\n      or\n        /* \"#utility.yul\":4853:4941   */\n      iszero\n      tag_413\n      jumpi\n        /* \"#utility.yul\":4921:4939   */\n      tag_414\n      tag_319\n      jump\t// in\n    tag_414:\n        /* \"#utility.yul\":4853:4941   */\n    tag_413:\n        /* \"#utility.yul\":4961:4971   */\n      dup1\n        /* \"#utility.yul\":4957:4959   */\n      0x40\n        /* \"#utility.yul\":4950:4972   */\n      mstore\n        /* \"#utility.yul\":4740:4978   */\n      pop\n        /* \"#utility.yul\":4697:4978   */\n      pop\n      pop\n      jump\t// out\n        /* \"#utility.yul\":4984:5113   */\n    tag_321:\n        /* \"#utility.yul\":5018:5024   */\n      0x00\n        /* \"#utility.yul\":5045:5065   */\n      tag_416\n      tag_299\n      jump\t// in\n    tag_416:\n        /* \"#utility.yul\":5035:5065   */\n      swap1\n      pop\n        /* \"#utility.yul\":5074:5107   */\n      tag_417\n        /* \"#utility.yul\":5102:5106   */\n      dup3\n        /* \"#utility.yul\":5094:5100   */\n      dup3\n        /* \"#utility.yul\":5074:5107   */\n      tag_320\n      jump\t// in\n    tag_417:\n        /* \"#utility.yul\":4984:5113   */\n      swap2\n      swap1\n      pop\n      jump\t// out\n        /* \"#utility.yul\":5119:5430   */\n    tag_322:\n        /* \"#utility.yul\":5196:5200   */\n      0x00\n        /* \"#utility.yul\":5286:5304   */\n      0xffffffffffffffff\n        /* \"#utility.yul\":5278:5284   */\n      dup3\n        /* \"#utility.yul\":5275:5305   */\n      gt\n        /* \"#utility.yul\":5272:5328   */\n      iszero\n      tag_419\n      jumpi\n        /* \"#utility.yul\":5308:5326   */\n      tag_420\n      tag_319\n      jump\t// in\n    tag_420:\n        /* \"#utility.yul\":5272:5328   */\n    tag_419:\n        /* \"#utility.yul\":5358:5362   */\n      0x20\n        /* \"#utility.yul\":5350:5356   */\n      dup3\n        /* \"#utility.yul\":5346:5363   */\n      mul\n        /* \"#utility.yul\":5338:5363   */\n      swap1\n      pop\n        /* \"#utility.yul\":5418:5422   */\n      0x20\n        /* \"#utility.yul\":5412:5416   */\n      dup2\n        /* \"#utility.yul\":5408:5423   */\n      add\n        /* \"#utility.yul\":5400:5423   */\n      swap1\n      pop\n        /* \"#utility.yul\":5119:5430   */\n      swap2\n      swap1\n      pop\n      jump\t// out\n        /* \"#utility.yul\":5436:5553   */\n    tag_323:\n        /* \"#utility.yul\":5545:5546   */\n      0x00\n        /* \"#utility.yul\":5542:5543   */\n      dup1\n        /* \"#utility.yul\":5535:5547   */\n      revert\n        /* \"#utility.yul\":5576:6286   */\n    tag_324:\n        /* \"#utility.yul\":5672:5677   */\n      0x00\n        /* \"#utility.yul\":5697:5778   */\n      tag_423\n        /* \"#utility.yul\":5713:5777   */\n      tag_424\n        /* \"#utility.yul\":5770:5776   */\n      dup5\n        /* \"#utility.yul\":5713:5777   */\n      tag_322\n      jump\t// in\n    tag_424:\n        /* \"#utility.yul\":5697:5778   */\n      tag_321\n      jump\t// in\n    tag_423:\n        /* \"#utility.yul\":5688:5778   */\n      swap1\n      pop\n        /* \"#utility.yul\":5798:5803   */\n      dup1\n        /* \"#utility.yul\":5827:5833   */\n      dup4\n        /* \"#utility.yul\":5820:5825   */\n      dup3\n        /* \"#utility.yul\":5813:5834   */\n      mstore\n        /* \"#utility.yul\":5861:5865   */\n      0x20\n        /* \"#utility.yul\":5854:5859   */\n      dup3\n        /* \"#utility.yul\":5850:5866   */\n      add\n        /* \"#utility.yul\":5843:5866   */\n      swap1\n      pop\n        /* \"#utility.yul\":5914:5918   */\n      0x20\n        /* \"#utility.yul\":5906:5912   */\n      dup5\n        /* \"#utility.yul\":5902:5919   */\n      mul\n        /* \"#utility.yul\":5894:5900   */\n      dup4\n        /* \"#utility.yul\":5890:5920   */\n      add\n        /* \"#utility.yul\":5943:5946   */\n      dup6\n        /* \"#utility.yul\":5935:5941   */\n      dup2\n        /* \"#utility.yul\":5932:5947   */\n      gt\n        /* \"#utility.yul\":5929:6051   */\n      iszero\n      tag_425\n      jumpi\n        /* \"#utility.yul\":5962:6041   */\n      tag_426\n      tag_323\n      jump\t// in\n    tag_426:\n        /* \"#utility.yul\":5929:6051   */\n    tag_425:\n        /* \"#utility.yul\":6077:6083   */\n      dup4\n        /* \"#utility.yul\":6060:6280   */\n    tag_427:\n        /* \"#utility.yul\":6094:6100   */\n      dup2\n        /* \"#utility.yul\":6089:6092   */\n      dup2\n        /* \"#utility.yul\":6086:6101   */\n      lt\n        /* \"#utility.yul\":6060:6280   */\n      iszero\n      tag_429\n      jumpi\n        /* \"#utility.yul\":6169:6172   */\n      dup1\n        /* \"#utility.yul\":6198:6235   */\n      tag_430\n        /* \"#utility.yul\":6231:6234   */\n      dup9\n        /* \"#utility.yul\":6219:6229   */\n      dup3\n        /* \"#utility.yul\":6198:6235   */\n      tag_310\n      jump\t// in\n    tag_430:\n        /* \"#utility.yul\":6193:6196   */\n      dup5\n        /* \"#utility.yul\":6186:6236   */\n      mstore\n        /* \"#utility.yul\":6265:6269   */\n      0x20\n        /* \"#utility.yul\":6260:6263   */\n      dup5\n        /* \"#utility.yul\":6256:6270   */\n      add\n        /* \"#utility.yul\":6249:6270   */\n      swap4\n      pop\n        /* \"#utility.yul\":6136:6280   */\n      pop\n        /* \"#utility.yul\":6120:6124   */\n      0x20\n        /* \"#utility.yul\":6115:6118   */\n      dup2\n        /* \"#utility.yul\":6111:6125   */\n      add\n        /* \"#utility.yul\":6104:6125   */\n      swap1\n      pop\n        /* \"#utility.yul\":6060:6280   */\n      jump(tag_427)\n    tag_429:\n        /* \"#utility.yul\":6064:6085   */\n      pop\n        /* \"#utility.yul\":5678:6286   */\n      pop\n      pop\n        /* \"#utility.yul\":5576:6286   */\n      swap4\n      swap3\n      pop\n      pop\n      pop\n      jump\t// out\n        /* \"#utility.yul\":6309:6679   */\n    tag_325:\n        /* \"#utility.yul\":6380:6385   */\n      0x00\n        /* \"#utility.yul\":6429:6432   */\n      dup3\n        /* \"#utility.yul\":6422:6426   */\n      0x1f\n        /* \"#utility.yul\":6414:6420   */\n      dup4\n        /* \"#utility.yul\":6410:6427   */\n      add\n        /* \"#utility.yul\":6406:6433   */\n      slt\n        /* \"#utility.yul\":6396:6518   */\n      tag_432\n      jumpi\n        /* \"#utility.yul\":6437:6516   */\n      tag_433\n      tag_317\n      jump\t// in\n    tag_433:\n        /* \"#utility.yul\":6396:6518   */\n    tag_432:\n        /* \"#utility.yul\":6554:6560   */\n      dup2\n        /* \"#utility.yul\":6541:6561   */\n      calldataload\n        /* \"#utility.yul\":6579:6673   */\n      tag_434\n        /* \"#utility.yul\":6669:6672   */\n      dup5\n        /* \"#utility.yul\":6661:6667   */\n      dup3\n        /* \"#utility.yul\":6654:6658   */\n      0x20\n        /* \"#utility.yul\":6646:6652   */\n      dup7\n        /* \"#utility.yul\":6642:6659   */\n      add\n        /* \"#utility.yul\":6579:6673   */\n      tag_324\n      jump\t// in\n    tag_434:\n        /* \"#utility.yul\":6570:6673   */\n      swap2\n      pop\n        /* \"#utility.yul\":6386:6679   */\n      pop\n        /* \"#utility.yul\":6309:6679   */\n      swap3\n      swap2\n      pop\n      pop\n      jump\t// out\n        /* \"#utility.yul\":6685:6995   */\n    tag_326:\n        /* \"#utility.yul\":6761:6765   */\n      0x00\n        /* \"#utility.yul\":6851:6869   */\n      0xffffffffffffffff\n        /* \"#utility.yul\":6843:6849   */\n      dup3\n        /* \"#utility.yul\":6840:6870   */\n      gt\n        /* \"#utility.yul\":6837:6893   */\n      iszero\n      tag_436\n      jumpi\n        /* \"#utility.yul\":6873:6891   */\n      tag_437\n      tag_319\n      jump\t// in\n    tag_437:\n        /* \"#utility.yul\":6837:6893   */\n    tag_436:\n        /* \"#utility.yul\":6923:6927   */\n      0x20\n        /* \"#utility.yul\":6915:6921   */\n      dup3\n        /* \"#utility.yul\":6911:6928   */\n      mul\n        /* \"#utility.yul\":6903:6928   */\n      swap1\n      pop\n        /* \"#utility.yul\":6983:6987   */\n      0x20\n        /* \"#utility.yul\":6977:6981   */\n      dup2\n        /* \"#utility.yul\":6973:6988   */\n      add\n        /* \"#utility.yul\":6965:6988   */\n      swap1\n      pop\n        /* \"#utility.yul\":6685:6995   */\n      swap2\n      swap1\n      pop\n      jump\t// out\n        /* \"#utility.yul\":7001:7094   */\n    tag_327:\n        /* \"#utility.yul\":7037:7044   */\n      0x00\n        /* \"#utility.yul\":7077:7087   */\n      0xffffffff\n        /* \"#utility.yul\":7070:7075   */\n      dup3\n        /* \"#utility.yul\":7066:7088   */\n      and\n        /* \"#utility.yul\":7055:7088   */\n      swap1\n      pop\n        /* \"#utility.yul\":7001:7094   */\n      swap2\n      swap1\n      pop\n      jump\t// out\n        /* \"#utility.yul\":7100:7220   */\n    tag_328:\n        /* \"#utility.yul\":7172:7195   */\n      tag_440\n        /* \"#utility.yul\":7189:7194   */\n      dup2\n        /* \"#utility.yul\":7172:7195   */\n      tag_327\n      jump\t// in\n    tag_440:\n        /* \"#utility.yul\":7165:7170   */\n      dup2\n        /* \"#utility.yul\":7162:7196   */\n      eq\n        /* \"#utility.yul\":7152:7214   */\n      tag_441\n      jumpi\n        /* \"#utility.yul\":7210:7211   */\n      0x00\n        /* \"#utility.yul\":7207:7208   */\n      dup1\n        /* \"#utility.yul\":7200:7212   */\n      revert\n        /* \"#utility.yul\":7152:7214   */\n    tag_441:\n        /* \"#utility.yul\":7100:7220   */\n      pop\n      jump\t// out\n        /* \"#utility.yul\":7226:7363   */\n    tag_329:\n        /* \"#utility.yul\":7271:7276   */\n      0x00\n        /* \"#utility.yul\":7309:7315   */\n      dup2\n        /* \"#utility.yul\":7296:7316   */\n      calldataload\n        /* \"#utility.yul\":7287:7316   */\n      swap1\n      pop\n        /* \"#utility.yul\":7325:7357   */\n      tag_443\n        /* \"#utility.yul\":7351:7356   */\n      dup2\n        /* \"#utility.yul\":7325:7357   */\n      tag_328\n      jump\t// in\n    tag_443:\n        /* \"#utility.yul\":7226:7363   */\n      swap3\n      swap2\n      pop\n      pop\n      jump\t// out\n        /* \"#utility.yul\":7385:8092   */\n    tag_330:\n        /* \"#utility.yul\":7480:7485   */\n      0x00\n        /* \"#utility.yul\":7505:7585   */\n      tag_445\n        /* \"#utility.yul\":7521:7584   */\n      tag_446\n        /* \"#utility.yul\":7577:7583   */\n      dup5\n        /* \"#utility.yul\":7521:7584   */\n      tag_326\n      jump\t// in\n    tag_446:\n        /* \"#utility.yul\":7505:7585   */\n      tag_321\n      jump\t// in\n    tag_445:\n        /* \"#utility.yul\":7496:7585   */\n      swap1\n      pop\n        /* \"#utility.yul\":7605:7610   */\n      dup1\n        /* \"#utility.yul\":7634:7640   */\n      dup4\n        /* \"#utility.yul\":7627:7632   */\n      dup3\n        /* \"#utility.yul\":7620:7641   */\n      mstore\n        /* \"#utility.yul\":7668:7672   */\n      0x20\n        /* \"#utility.yul\":7661:7666   */\n      dup3\n        /* \"#utility.yul\":7657:7673   */\n      add\n        /* \"#utility.yul\":7650:7673   */\n      swap1\n      pop\n        /* \"#utility.yul\":7721:7725   */\n      0x20\n        /* \"#utility.yul\":7713:7719   */\n      dup5\n        /* \"#utility.yul\":7709:7726   */\n      mul\n        /* \"#utility.yul\":7701:7707   */\n      dup4\n        /* \"#utility.yul\":7697:7727   */\n      add\n        /* \"#utility.yul\":7750:7753   */\n      dup6\n        /* \"#utility.yul\":7742:7748   */\n      dup2\n        /* \"#utility.yul\":7739:7754   */\n      gt\n        /* \"#utility.yul\":7736:7858   */\n      iszero\n      tag_447\n      jumpi\n        /* \"#utility.yul\":7769:7848   */\n      tag_448\n      tag_323\n      jump\t// in\n    tag_448:\n        /* \"#utility.yul\":7736:7858   */\n    tag_447:\n        /* \"#utility.yul\":7884:7890   */\n      dup4\n        /* \"#utility.yul\":7867:8086   */\n    tag_449:\n        /* \"#utility.yul\":7901:7907   */\n      dup2\n        /* \"#utility.yul\":7896:7899   */\n      dup2\n        /* \"#utility.yul\":7893:7908   */\n      lt\n        /* \"#utility.yul\":7867:8086   */\n      iszero\n      tag_451\n      jumpi\n        /* \"#utility.yul\":7976:7979   */\n      dup1\n        /* \"#utility.yul\":8005:8041   */\n      tag_452\n        /* \"#utility.yul\":8037:8040   */\n      dup9\n        /* \"#utility.yul\":8025:8035   */\n      dup3\n        /* \"#utility.yul\":8005:8041   */\n      tag_329\n      jump\t// in\n    tag_452:\n        /* \"#utility.yul\":8000:8003   */\n      dup5\n        /* \"#utility.yul\":7993:8042   */\n      mstore\n        /* \"#utility.yul\":8071:8075   */\n      0x20\n        /* \"#utility.yul\":8066:8069   */\n      dup5\n        /* \"#utility.yul\":8062:8076   */\n      add\n        /* \"#utility.yul\":8055:8076   */\n      swap4\n      pop\n        /* \"#utility.yul\":7943:8086   */\n      pop\n        /* \"#utility.yul\":7927:7931   */\n      0x20\n        /* \"#utility.yul\":7922:7925   */\n      dup2\n        /* \"#utility.yul\":7918:7932   */\n      add\n        /* \"#utility.yul\":7911:7932   */\n      swap1\n      pop\n        /* \"#utility.yul\":7867:8086   */\n      jump(tag_449)\n    tag_451:\n        /* \"#utility.yul\":7871:7892   */\n      pop\n        /* \"#utility.yul\":7486:8092   */\n      pop\n      pop\n        /* \"#utility.yul\":7385:8092   */\n      swap4\n      swap3\n      pop\n      pop\n      pop\n      jump\t// out\n        /* \"#utility.yul\":8114:8482   */\n    tag_331:\n        /* \"#utility.yul\":8184:8189   */\n      0x00\n        /* \"#utility.yul\":8233:8236   */\n      dup3\n        /* \"#utility.yul\":8226:8230   */\n      0x1f\n        /* \"#utility.yul\":8218:8224   */\n      dup4\n        /* \"#utility.yul\":8214:8231   */\n      add\n        /* \"#utility.yul\":8210:8237   */\n      slt\n        /* \"#utility.yul\":8200:8322   */\n      tag_454\n      jumpi\n        /* \"#utility.yul\":8241:8320   */\n      tag_455\n      tag_317\n      jump\t// in\n    tag_455:\n        /* \"#utility.yul\":8200:8322   */\n    tag_454:\n        /* \"#utility.yul\":8358:8364   */\n      dup2\n        /* \"#utility.yul\":8345:8365   */\n      calldataload\n        /* \"#utility.yul\":8383:8476   */\n      tag_456\n        /* \"#utility.yul\":8472:8475   */\n      dup5\n        /* \"#utility.yul\":8464:8470   */\n      dup3\n        /* \"#utility.yul\":8457:8461   */\n      0x20\n        /* \"#utility.yul\":8449:8455   */\n      dup7\n        /* \"#utility.yul\":8445:8462   */\n      add\n        /* \"#utility.yul\":8383:8476   */\n      tag_330\n      jump\t// in\n    tag_456:\n        /* \"#utility.yul\":8374:8476   */\n      swap2\n      pop\n        /* \"#utility.yul\":8190:8482   */\n      pop\n        /* \"#utility.yul\":8114:8482   */\n      swap3\n      swap2\n      pop\n      pop\n      jump\t// out\n        /* \"#utility.yul\":8488:10441   */\n    tag_50:\n        /* \"#utility.yul\":8704:8710   */\n      0x00\n        /* \"#utility.yul\":8712:8718   */\n      dup1\n        /* \"#utility.yul\":8720:8726   */\n      0x00\n        /* \"#utility.yul\":8728:8734   */\n      dup1\n        /* \"#utility.yul\":8736:8742   */\n      0x00\n        /* \"#utility.yul\":8785:8788   */\n      0xa0\n        /* \"#utility.yul\":8773:8782   */\n      dup7\n        /* \"#utility.yul\":8764:8771   */\n      dup9\n        /* \"#utility.yul\":8760:8783   */\n      sub\n        /* \"#utility.yul\":8756:8789   */\n      slt\n        /* \"#utility.yul\":8753:8873   */\n      iszero\n      tag_458\n      jumpi\n        /* \"#utility.yul\":8792:8871   */\n      tag_459\n      tag_300\n      jump\t// in\n    tag_459:\n        /* \"#utility.yul\":8753:8873   */\n    tag_458:\n        /* \"#utility.yul\":8940:8941   */\n      0x00\n        /* \"#utility.yul\":8929:8938   */\n      dup7\n        /* \"#utility.yul\":8925:8942   */\n      add\n        /* \"#utility.yul\":8912:8943   */\n      calldataload\n        /* \"#utility.yul\":8970:8988   */\n      0xffffffffffffffff\n        /* \"#utility.yul\":8962:8968   */\n      dup2\n        /* \"#utility.yul\":8959:8989   */\n      gt\n        /* \"#utility.yul\":8956:9073   */\n      iszero\n      tag_460\n      jumpi\n        /* \"#utility.yul\":8992:9071   */\n      tag_461\n      tag_301\n      jump\t// in\n    tag_461:\n        /* \"#utility.yul\":8956:9073   */\n    tag_460:\n        /* \"#utility.yul\":9097:9175   */\n      tag_462\n        /* \"#utility.yul\":9167:9174   */\n      dup9\n        /* \"#utility.yul\":9158:9164   */\n      dup3\n        /* \"#utility.yul\":9147:9156   */\n      dup10\n        /* \"#utility.yul\":9143:9165   */\n      add\n        /* \"#utility.yul\":9097:9175   */\n      tag_325\n      jump\t// in\n    tag_462:\n        /* \"#utility.yul\":9087:9175   */\n      swap6\n      pop\n        /* \"#utility.yul\":8883:9185   */\n      pop\n        /* \"#utility.yul\":9252:9254   */\n      0x20\n        /* \"#utility.yul\":9241:9250   */\n      dup7\n        /* \"#utility.yul\":9237:9255   */\n      add\n        /* \"#utility.yul\":9224:9256   */\n      calldataload\n        /* \"#utility.yul\":9283:9301   */\n      0xffffffffffffffff\n        /* \"#utility.yul\":9275:9281   */\n      dup2\n        /* \"#utility.yul\":9272:9302   */\n      gt\n        /* \"#utility.yul\":9269:9386   */\n      iszero\n      tag_463\n      jumpi\n        /* \"#utility.yul\":9305:9384   */\n      tag_464\n      tag_301\n      jump\t// in\n    tag_464:\n        /* \"#utility.yul\":9269:9386   */\n    tag_463:\n        /* \"#utility.yul\":9410:9487   */\n      tag_465\n        /* \"#utility.yul\":9479:9486   */\n      dup9\n        /* \"#utility.yul\":9470:9476   */\n      dup3\n        /* \"#utility.yul\":9459:9468   */\n      dup10\n        /* \"#utility.yul\":9455:9477   */\n      add\n        /* \"#utility.yul\":9410:9487   */\n      tag_331\n      jump\t// in\n    tag_465:\n        /* \"#utility.yul\":9400:9487   */\n      swap5\n      pop\n        /* \"#utility.yul\":9195:9497   */\n      pop\n        /* \"#utility.yul\":9564:9566   */\n      0x40\n        /* \"#utility.yul\":9553:9562   */\n      dup7\n        /* \"#utility.yul\":9549:9567   */\n      add\n        /* \"#utility.yul\":9536:9568   */\n      calldataload\n        /* \"#utility.yul\":9595:9613   */\n      0xffffffffffffffff\n        /* \"#utility.yul\":9587:9593   */\n      dup2\n        /* \"#utility.yul\":9584:9614   */\n      gt\n        /* \"#utility.yul\":9581:9698   */\n      iszero\n      tag_466\n      jumpi\n        /* \"#utility.yul\":9617:9696   */\n      tag_467\n      tag_301\n      jump\t// in\n    tag_467:\n        /* \"#utility.yul\":9581:9698   */\n    tag_466:\n        /* \"#utility.yul\":9722:9799   */\n      tag_468\n        /* \"#utility.yul\":9791:9798   */\n      dup9\n        /* \"#utility.yul\":9782:9788   */\n      dup3\n        /* \"#utility.yul\":9771:9780   */\n      dup10\n        /* \"#utility.yul\":9767:9789   */\n      add\n        /* \"#utility.yul\":9722:9799   */\n      tag_331\n      jump\t// in\n    tag_468:\n        /* \"#utility.yul\":9712:9799   */\n      swap4\n      pop\n        /* \"#utility.yul\":9507:9809   */\n      pop\n        /* \"#utility.yul\":9876:9878   */\n      0x60\n        /* \"#utility.yul\":9865:9874   */\n      dup7\n        /* \"#utility.yul\":9861:9879   */\n      add\n        /* \"#utility.yul\":9848:9880   */\n      calldataload\n        /* \"#utility.yul\":9907:9925   */\n      0xffffffffffffffff\n        /* \"#utility.yul\":9899:9905   */\n      dup2\n        /* \"#utility.yul\":9896:9926   */\n      gt\n        /* \"#utility.yul\":9893:10010   */\n      iszero\n      tag_469\n      jumpi\n        /* \"#utility.yul\":9929:10008   */\n      tag_470\n      tag_301\n      jump\t// in\n    tag_470:\n        /* \"#utility.yul\":9893:10010   */\n    tag_469:\n        /* \"#utility.yul\":10034:10111   */\n      tag_471\n        /* \"#utility.yul\":10103:10110   */\n      dup9\n        /* \"#utility.yul\":10094:10100   */\n      dup3\n        /* \"#utility.yul\":10083:10092   */\n      dup10\n        /* \"#utility.yul\":10079:10101   */\n      add\n        /* \"#utility.yul\":10034:10111   */\n      tag_331\n      jump\t// in\n    tag_471:\n        /* \"#utility.yul\":10024:10111   */\n      swap3\n      pop\n        /* \"#utility.yul\":9819:10121   */\n      pop\n        /* \"#utility.yul\":10188:10191   */\n      0x80\n        /* \"#utility.yul\":10177:10186   */\n      dup7\n        /* \"#utility.yul\":10173:10192   */\n      add\n        /* \"#utility.yul\":10160:10193   */\n      calldataload\n        /* \"#utility.yul\":10220:10238   */\n      0xffffffffffffffff\n        /* \"#utility.yul\":10212:10218   */\n      dup2\n        /* \"#utility.yul\":10209:10239   */\n      gt\n        /* \"#utility.yul\":10206:10323   */\n      iszero\n      tag_472\n      jumpi\n        /* \"#utility.yul\":10242:10321   */\n      tag_473\n      tag_301\n      jump\t// in\n    tag_473:\n        /* \"#utility.yul\":10206:10323   */\n    tag_472:\n        /* \"#utility.yul\":10347:10424   */\n      tag_474\n        /* \"#utility.yul\":10416:10423   */\n      dup9\n        /* \"#utility.yul\":10407:10413   */\n      dup3\n        /* \"#utility.yul\":10396:10405   */\n      dup10\n        /* \"#utility.yul\":10392:10414   */\n      add\n        /* \"#utility.yul\":10347:10424   */\n      tag_331\n      jump\t// in\n    tag_474:\n        /* \"#utility.yul\":10337:10424   */\n      swap2\n      pop\n        /* \"#utility.yul\":10131:10434   */\n      pop\n        /* \"#utility.yul\":8488:10441   */\n      swap3\n      swap6\n      pop\n      swap3\n      swap6\n      swap1\n      swap4\n      pop\n      jump\t// out\n        /* \"#utility.yul\":10447:10921   */\n    tag_54:\n        /* \"#utility.yul\":10515:10521   */\n      0x00\n        /* \"#utility.yul\":10523:10529   */\n      dup1\n        /* \"#utility.yul\":10572:10574   */\n      0x40\n        /* \"#utility.yul\":10560:10569   */\n      dup4\n        /* \"#utility.yul\":10551:10558   */\n      dup6\n        /* \"#utility.yul\":10547:10570   */\n      sub\n        /* \"#utility.yul\":10543:10575   */\n      slt\n        /* \"#utility.yul\":10540:10659   */\n      iszero\n      tag_476\n      jumpi\n        /* \"#utility.yul\":10578:10657   */\n      tag_477\n      tag_300\n      jump\t// in\n    tag_477:\n        /* \"#utility.yul\":10540:10659   */\n    tag_476:\n        /* \"#utility.yul\":10698:10699   */\n      0x00\n        /* \"#utility.yul\":10723:10776   */\n      tag_478\n        /* \"#utility.yul\":10768:10775   */\n      dup6\n        /* \"#utility.yul\":10759:10765   */\n      dup3\n        /* \"#utility.yul\":10748:10757   */\n      dup7\n        /* \"#utility.yul\":10744:10766   */\n      add\n        /* \"#utility.yul\":10723:10776   */\n      tag_315\n      jump\t// in\n    tag_478:\n        /* \"#utility.yul\":10713:10776   */\n      swap3\n      pop\n        /* \"#utility.yul\":10669:10786   */\n      pop\n        /* \"#utility.yul\":10825:10827   */\n      0x20\n        /* \"#utility.yul\":10851:10904   */\n      tag_479\n        /* \"#utility.yul\":10896:10903   */\n      dup6\n        /* \"#utility.yul\":10887:10893   */\n      dup3\n        /* \"#utility.yul\":10876:10885   */\n      dup7\n        /* \"#utility.yul\":10872:10894   */\n      add\n        /* \"#utility.yul\":10851:10904   */\n      tag_310\n      jump\t// in\n    tag_479:\n        /* \"#utility.yul\":10841:10904   */\n      swap2\n      pop\n        /* \"#utility.yul\":10796:10914   */\n      pop\n        /* \"#utility.yul\":10447:10921   */\n      swap3\n      pop\n      swap3\n      swap1\n      pop\n      jump\t// out\n        /* \"#utility.yul\":10927:11149   */\n    tag_63:\n        /* \"#utility.yul\":11020:11024   */\n      0x00\n        /* \"#utility.yul\":11058:11060   */\n      0x20\n        /* \"#utility.yul\":11047:11056   */\n      dup3\n        /* \"#utility.yul\":11043:11061   */\n      add\n        /* \"#utility.yul\":11035:11061   */\n      swap1\n      pop\n        /* \"#utility.yul\":11071:11142   */\n      tag_481\n        /* \"#utility.yul\":11139:11140   */\n      0x00\n        /* \"#utility.yul\":11128:11137   */\n      dup4\n        /* \"#utility.yul\":11124:11141   */\n      add\n        /* \"#utility.yul\":11115:11121   */\n      dup5\n        /* \"#utility.yul\":11071:11142   */\n      tag_312\n      jump\t// in\n    tag_481:\n        /* \"#utility.yul\":10927:11149   */\n      swap3\n      swap2\n      pop\n      pop\n      jump\t// out\n        /* \"#utility.yul\":11155:11273   */\n    tag_332:\n        /* \"#utility.yul\":11242:11266   */\n      tag_483\n        /* \"#utility.yul\":11260:11265   */\n      dup2\n        /* \"#utility.yul\":11242:11266   */\n      tag_308\n      jump\t// in\n    tag_483:\n        /* \"#utility.yul\":11237:11240   */\n      dup3\n        /* \"#utility.yul\":11230:11267   */\n      mstore\n        /* \"#utility.yul\":11155:11273   */\n      pop\n      pop\n      jump\t// out\n        /* \"#utility.yul\":11279:11501   */\n    tag_78:\n        /* \"#utility.yul\":11372:11376   */\n      0x00\n        /* \"#utility.yul\":11410:11412   */\n      0x20\n        /* \"#utility.yul\":11399:11408   */\n      dup3\n        /* \"#utility.yul\":11395:11413   */\n      add\n        /* \"#utility.yul\":11387:11413   */\n      swap1\n      pop\n        /* \"#utility.yul\":11423:11494   */\n      tag_485\n        /* \"#utility.yul\":11491:11492   */\n      0x00\n        /* \"#utility.yul\":11480:11489   */\n      dup4\n        /* \"#utility.yul\":11476:11493   */\n      add\n        /* \"#utility.yul\":11467:11473   */\n      dup5\n        /* \"#utility.yul\":11423:11494   */\n      tag_332\n      jump\t// in\n    tag_485:\n        /* \"#utility.yul\":11279:11501   */\n      swap3\n      swap2\n      pop\n      pop\n      jump\t// out\n        /* \"#utility.yul\":11507:11622   */\n    tag_333:\n        /* \"#utility.yul\":11592:11615   */\n      tag_487\n        /* \"#utility.yul\":11609:11614   */\n      dup2\n        /* \"#utility.yul\":11592:11615   */\n      tag_327\n      jump\t// in\n    tag_487:\n        /* \"#utility.yul\":11587:11590   */\n      dup3\n        /* \"#utility.yul\":11580:11616   */\n      mstore\n        /* \"#utility.yul\":11507:11622   */\n      pop\n      pop\n      jump\t// out\n        /* \"#utility.yul\":11628:12276   */\n    tag_93:\n        /* \"#utility.yul\":11825:11829   */\n      0x00\n        /* \"#utility.yul\":11863:11866   */\n      0xa0\n        /* \"#utility.yul\":11852:11861   */\n      dup3\n        /* \"#utility.yul\":11848:11867   */\n      add\n        /* \"#utility.yul\":11840:11867   */\n      swap1\n      pop\n        /* \"#utility.yul\":11877:11946   */\n      tag_489\n        /* \"#utility.yul\":11943:11944   */\n      0x00\n        /* \"#utility.yul\":11932:11941   */\n      dup4\n        /* \"#utility.yul\":11928:11945   */\n      add\n        /* \"#utility.yul\":11919:11925   */\n      dup9\n        /* \"#utility.yul\":11877:11946   */\n      tag_333\n      jump\t// in\n    tag_489:\n        /* \"#utility.yul\":11956:12028   */\n      tag_490\n        /* \"#utility.yul\":12024:12026   */\n      0x20\n        /* \"#utility.yul\":12013:12022   */\n      dup4\n        /* \"#utility.yul\":12009:12027   */\n      add\n        /* \"#utility.yul\":12000:12006   */\n      dup8\n        /* \"#utility.yul\":11956:12028   */\n      tag_312\n      jump\t// in\n    tag_490:\n        /* \"#utility.yul\":12038:12108   */\n      tag_491\n        /* \"#utility.yul\":12104:12106   */\n      0x40\n        /* \"#utility.yul\":12093:12102   */\n      dup4\n        /* \"#utility.yul\":12089:12107   */\n      add\n        /* \"#utility.yul\":12080:12086   */\n      dup7\n        /* \"#utility.yul\":12038:12108   */\n      tag_333\n      jump\t// in\n    tag_491:\n        /* \"#utility.yul\":12118:12188   */\n      tag_492\n        /* \"#utility.yul\":12184:12186   */\n      0x60\n        /* \"#utility.yul\":12173:12182   */\n      dup4\n        /* \"#utility.yul\":12169:12187   */\n      add\n        /* \"#utility.yul\":12160:12166   */\n      dup6\n        /* \"#utility.yul\":12118:12188   */\n      tag_333\n      jump\t// in\n    tag_492:\n        /* \"#utility.yul\":12198:12269   */\n      tag_493\n        /* \"#utility.yul\":12264:12267   */\n      0x80\n        /* \"#utility.yul\":12253:12262   */\n      dup4\n        /* \"#utility.yul\":12249:12268   */\n      add\n        /* \"#utility.yul\":12240:12246   */\n      dup5\n        /* \"#utility.yul\":12198:12269   */\n      tag_333\n      jump\t// in\n    tag_493:\n        /* \"#utility.yul\":11628:12276   */\n      swap7\n      swap6\n      pop\n      pop\n      pop\n      pop\n      pop\n      pop\n      jump\t// out\n        /* \"#utility.yul\":12282:12404   */\n    tag_334:\n        /* \"#utility.yul\":12355:12379   */\n      tag_495\n        /* \"#utility.yul\":12373:12378   */\n      dup2\n        /* \"#utility.yul\":12355:12379   */\n      tag_311\n      jump\t// in\n    tag_495:\n        /* \"#utility.yul\":12348:12353   */\n      dup2\n        /* \"#utility.yul\":12345:12380   */\n      eq\n        /* \"#utility.yul\":12335:12398   */\n      tag_496\n      jumpi\n        /* \"#utility.yul\":12394:12395   */\n      0x00\n        /* \"#utility.yul\":12391:12392   */\n      dup1\n        /* \"#utility.yul\":12384:12396   */\n      revert\n        /* \"#utility.yul\":12335:12398   */\n    tag_496:\n        /* \"#utility.yul\":12282:12404   */\n      pop\n      jump\t// out\n        /* \"#utility.yul\":12410:12549   */\n    tag_335:\n        /* \"#utility.yul\":12456:12461   */\n      0x00\n        /* \"#utility.yul\":12494:12500   */\n      dup2\n        /* \"#utility.yul\":12481:12501   */\n      calldataload\n        /* \"#utility.yul\":12472:12501   */\n      swap1\n      pop\n        /* \"#utility.yul\":12510:12543   */\n      tag_498\n        /* \"#utility.yul\":12537:12542   */\n      dup2\n        /* \"#utility.yul\":12510:12543   */\n      tag_334\n      jump\t// in\n    tag_498:\n        /* \"#utility.yul\":12410:12549   */\n      swap3\n      swap2\n      pop\n      pop\n      jump\t// out\n        /* \"#utility.yul\":12555:12884   */\n    tag_115:\n        /* \"#utility.yul\":12614:12620   */\n      0x00\n        /* \"#utility.yul\":12663:12665   */\n      0x20\n        /* \"#utility.yul\":12651:12660   */\n      dup3\n        /* \"#utility.yul\":12642:12649   */\n      dup5\n        /* \"#utility.yul\":12638:12661   */\n      sub\n        /* \"#utility.yul\":12634:12666   */\n      slt\n        /* \"#utility.yul\":12631:12750   */\n      iszero\n      tag_500\n      jumpi\n        /* \"#utility.yul\":12669:12748   */\n      tag_501\n      tag_300\n      jump\t// in\n    tag_501:\n        /* \"#utility.yul\":12631:12750   */\n    tag_500:\n        /* \"#utility.yul\":12789:12790   */\n      0x00\n        /* \"#utility.yul\":12814:12867   */\n      tag_502\n        /* \"#utility.yul\":12859:12866   */\n      dup5\n        /* \"#utility.yul\":12850:12856   */\n      dup3\n        /* \"#utility.yul\":12839:12848   */\n      dup6\n        /* \"#utility.yul\":12835:12857   */\n      add\n        /* \"#utility.yul\":12814:12867   */\n      tag_335\n      jump\t// in\n    tag_502:\n        /* \"#utility.yul\":12804:12867   */\n      swap2\n      pop\n        /* \"#utility.yul\":12760:12877   */\n      pop\n        /* \"#utility.yul\":12555:12884   */\n      swap3\n      swap2\n      pop\n      pop\n      jump\t// out\n        /* \"#utility.yul\":12890:12950   */\n    tag_336:\n        /* \"#utility.yul\":12918:12921   */\n      0x00\n        /* \"#utility.yul\":12939:12944   */\n      dup2\n        /* \"#utility.yul\":12932:12944   */\n      swap1\n      pop\n        /* \"#utility.yul\":12890:12950   */\n      swap2\n      swap1\n      pop\n      jump\t// out\n        /* \"#utility.yul\":12956:13098   */\n    tag_337:\n        /* \"#utility.yul\":13006:13015   */\n      0x00\n        /* \"#utility.yul\":13039:13092   */\n      tag_505\n        /* \"#utility.yul\":13057:13091   */\n      tag_506\n        /* \"#utility.yul\":13066:13090   */\n      tag_507\n        /* \"#utility.yul\":13084:13089   */\n      dup5\n        /* \"#utility.yul\":13066:13090   */\n      tag_307\n      jump\t// in\n    tag_507:\n        /* \"#utility.yul\":13057:13091   */\n      tag_336\n      jump\t// in\n    tag_506:\n        /* \"#utility.yul\":13039:13092   */\n      tag_307\n      jump\t// in\n    tag_505:\n        /* \"#utility.yul\":13026:13092   */\n      swap1\n      pop\n        /* \"#utility.yul\":12956:13098   */\n      swap2\n      swap1\n      pop\n      jump\t// out\n        /* \"#utility.yul\":13104:13230   */\n    tag_338:\n        /* \"#utility.yul\":13154:13163   */\n      0x00\n        /* \"#utility.yul\":13187:13224   */\n      tag_509\n        /* \"#utility.yul\":13218:13223   */\n      dup3\n        /* \"#utility.yul\":13187:13224   */\n      tag_337\n      jump\t// in\n    tag_509:\n        /* \"#utility.yul\":13174:13224   */\n      swap1\n      pop\n        /* \"#utility.yul\":13104:13230   */\n      swap2\n      swap1\n      pop\n      jump\t// out\n        /* \"#utility.yul\":13236:13376   */\n    tag_339:\n        /* \"#utility.yul\":13300:13309   */\n      0x00\n        /* \"#utility.yul\":13333:13370   */\n      tag_511\n        /* \"#utility.yul\":13364:13369   */\n      dup3\n        /* \"#utility.yul\":13333:13370   */\n      tag_338\n      jump\t// in\n    tag_511:\n        /* \"#utility.yul\":13320:13370   */\n      swap1\n      pop\n        /* \"#utility.yul\":13236:13376   */\n      swap2\n      swap1\n      pop\n      jump\t// out\n        /* \"#utility.yul\":13382:13541   */\n    tag_340:\n        /* \"#utility.yul\":13483:13534   */\n      tag_513\n        /* \"#utility.yul\":13528:13533   */\n      dup2\n        /* \"#utility.yul\":13483:13534   */\n      tag_339\n      jump\t// in\n    tag_513:\n        /* \"#utility.yul\":13478:13481   */\n      dup3\n        /* \"#utility.yul\":13471:13535   */\n      mstore\n        /* \"#utility.yul\":13382:13541   */\n      pop\n      pop\n      jump\t// out\n        /* \"#utility.yul\":13547:13797   */\n    tag_120:\n        /* \"#utility.yul\":13654:13658   */\n      0x00\n        /* \"#utility.yul\":13692:13694   */\n      0x20\n        /* \"#utility.yul\":13681:13690   */\n      dup3\n        /* \"#utility.yul\":13677:13695   */\n      add\n        /* \"#utility.yul\":13669:13695   */\n      swap1\n      pop\n        /* \"#utility.yul\":13705:13790   */\n      tag_515\n        /* \"#utility.yul\":13787:13788   */\n      0x00\n        /* \"#utility.yul\":13776:13785   */\n      dup4\n        /* \"#utility.yul\":13772:13789   */\n      add\n        /* \"#utility.yul\":13763:13769   */\n      dup5\n        /* \"#utility.yul\":13705:13790   */\n      tag_340\n      jump\t// in\n    tag_515:\n        /* \"#utility.yul\":13547:13797   */\n      swap3\n      swap2\n      pop\n      pop\n      jump\t// out\n        /* \"#utility.yul\":13803:13904   */\n    tag_341:\n        /* \"#utility.yul\":13839:13846   */\n      0x00\n        /* \"#utility.yul\":13879:13897   */\n      0xffffffffffffffff\n        /* \"#utility.yul\":13872:13877   */\n      dup3\n        /* \"#utility.yul\":13868:13898   */\n      and\n        /* \"#utility.yul\":13857:13898   */\n      swap1\n      pop\n        /* \"#utility.yul\":13803:13904   */\n      swap2\n      swap1\n      pop\n      jump\t// out\n        /* \"#utility.yul\":13910:14090   */\n    tag_342:\n        /* \"#utility.yul\":13958:14035   */\n      0x4e487b7100000000000000000000000000000000000000000000000000000000\n        /* \"#utility.yul\":13955:13956   */\n      0x00\n        /* \"#utility.yul\":13948:14036   */\n      mstore\n        /* \"#utility.yul\":14055:14059   */\n      0x11\n        /* \"#utility.yul\":14052:14053   */\n      0x04\n        /* \"#utility.yul\":14045:14060   */\n      mstore\n        /* \"#utility.yul\":14079:14083   */\n      0x24\n        /* \"#utility.yul\":14076:14077   */\n      0x00\n        /* \"#utility.yul\":14069:14084   */\n      revert\n        /* \"#utility.yul\":14096:14371   */\n    tag_127:\n        /* \"#utility.yul\":14135:14142   */\n      0x00\n        /* \"#utility.yul\":14158:14177   */\n      tag_519\n        /* \"#utility.yul\":14175:14176   */\n      dup3\n        /* \"#utility.yul\":14158:14177   */\n      tag_341\n      jump\t// in\n    tag_519:\n        /* \"#utility.yul\":14153:14177   */\n      swap2\n      pop\n        /* \"#utility.yul\":14191:14210   */\n      tag_520\n        /* \"#utility.yul\":14208:14209   */\n      dup4\n        /* \"#utility.yul\":14191:14210   */\n      tag_341\n      jump\t// in\n    tag_520:\n        /* \"#utility.yul\":14186:14210   */\n      swap3\n      pop\n        /* \"#utility.yul\":14245:14246   */\n      dup3\n        /* \"#utility.yul\":14242:14243   */\n      dup3\n        /* \"#utility.yul\":14238:14247   */\n      mul\n        /* \"#utility.yul\":14267:14296   */\n      tag_521\n        /* \"#utility.yul\":14284:14295   */\n      dup2\n        /* \"#utility.yul\":14267:14296   */\n      tag_341\n      jump\t// in\n    tag_521:\n        /* \"#utility.yul\":14256:14296   */\n      swap2\n      pop\n        /* \"#utility.yul\":14328:14339   */\n      dup1\n        /* \"#utility.yul\":14319:14326   */\n      dup3\n        /* \"#utility.yul\":14316:14340   */\n      eq\n        /* \"#utility.yul\":14306:14364   */\n      tag_522\n      jumpi\n        /* \"#utility.yul\":14344:14362   */\n      tag_523\n      tag_342\n      jump\t// in\n    tag_523:\n        /* \"#utility.yul\":14306:14364   */\n    tag_522:\n        /* \"#utility.yul\":14143:14371   */\n      pop\n        /* \"#utility.yul\":14096:14371   */\n      swap3\n      swap2\n      pop\n      pop\n      jump\t// out\n        /* \"#utility.yul\":14377:14557   */\n    tag_141:\n        /* \"#utility.yul\":14425:14502   */\n      0x4e487b7100000000000000000000000000000000000000000000000000000000\n        /* \"#utility.yul\":14422:14423   */\n      0x00\n        /* \"#utility.yul\":14415:14503   */\n      mstore\n        /* \"#utility.yul\":14522:14526   */\n      0x32\n        /* \"#utility.yul\":14519:14520   */\n      0x04\n        /* \"#utility.yul\":14512:14527   */\n      mstore\n        /* \"#utility.yul\":14546:14550   */\n      0x24\n        /* \"#utility.yul\":14543:14544   */\n      0x00\n        /* \"#utility.yul\":14536:14551   */\n      revert\n        /* \"#utility.yul\":14563:14760   */\n    tag_147:\n        /* \"#utility.yul\":14602:14605   */\n      0x00\n        /* \"#utility.yul\":14621:14640   */\n      tag_526\n        /* \"#utility.yul\":14638:14639   */\n      dup3\n        /* \"#utility.yul\":14621:14640   */\n      tag_327\n      jump\t// in\n    tag_526:\n        /* \"#utility.yul\":14616:14640   */\n      swap2\n      pop\n        /* \"#utility.yul\":14654:14673   */\n      tag_527\n        /* \"#utility.yul\":14671:14672   */\n      dup4\n        /* \"#utility.yul\":14654:14673   */\n      tag_327\n      jump\t// in\n    tag_527:\n        /* \"#utility.yul\":14649:14673   */\n      swap3\n      pop\n        /* \"#utility.yul\":14696:14697   */\n      dup3\n        /* \"#utility.yul\":14693:14694   */\n      dup3\n        /* \"#utility.yul\":14689:14698   */\n      add\n        /* \"#utility.yul\":14682:14698   */\n      swap1\n      pop\n        /* \"#utility.yul\":14719:14729   */\n      0xffffffff\n        /* \"#utility.yul\":14714:14717   */\n      dup2\n        /* \"#utility.yul\":14711:14730   */\n      gt\n        /* \"#utility.yul\":14708:14753   */\n      iszero\n      tag_528\n      jumpi\n        /* \"#utility.yul\":14733:14751   */\n      tag_529\n      tag_342\n      jump\t// in\n    tag_529:\n        /* \"#utility.yul\":14708:14753   */\n    tag_528:\n        /* \"#utility.yul\":14563:14760   */\n      swap3\n      swap2\n      pop\n      pop\n      jump\t// out\n        /* \"#utility.yul\":14766:15176   */\n    tag_152:\n        /* \"#utility.yul\":14806:14813   */\n      0x00\n        /* \"#utility.yul\":14829:14849   */\n      tag_531\n        /* \"#utility.yul\":14847:14848   */\n      dup3\n        /* \"#utility.yul\":14829:14849   */\n      tag_311\n      jump\t// in\n    tag_531:\n        /* \"#utility.yul\":14824:14849   */\n      swap2\n      pop\n        /* \"#utility.yul\":14863:14883   */\n      tag_532\n        /* \"#utility.yul\":14881:14882   */\n      dup4\n        /* \"#utility.yul\":14863:14883   */\n      tag_311\n      jump\t// in\n    tag_532:\n        /* \"#utility.yul\":14858:14883   */\n      swap3\n      pop\n        /* \"#utility.yul\":14918:14919   */\n      dup3\n        /* \"#utility.yul\":14915:14916   */\n      dup3\n        /* \"#utility.yul\":14911:14920   */\n      mul\n        /* \"#utility.yul\":14940:14970   */\n      tag_533\n        /* \"#utility.yul\":14958:14969   */\n      dup2\n        /* \"#utility.yul\":14940:14970   */\n      tag_311\n      jump\t// in\n    tag_533:\n        /* \"#utility.yul\":14929:14970   */\n      swap2\n      pop\n        /* \"#utility.yul\":15119:15120   */\n      dup3\n        /* \"#utility.yul\":15110:15117   */\n      dup3\n        /* \"#utility.yul\":15106:15121   */\n      div\n        /* \"#utility.yul\":15103:15104   */\n      dup5\n        /* \"#utility.yul\":15100:15122   */\n      eq\n        /* \"#utility.yul\":15080:15081   */\n      dup4\n        /* \"#utility.yul\":15073:15082   */\n      iszero\n        /* \"#utility.yul\":15053:15136   */\n      or\n        /* \"#utility.yul\":15030:15169   */\n      tag_534\n      jumpi\n        /* \"#utility.yul\":15149:15167   */\n      tag_535\n      tag_342\n      jump\t// in\n    tag_535:\n        /* \"#utility.yul\":15030:15169   */\n    tag_534:\n        /* \"#utility.yul\":14814:15176   */\n      pop\n        /* \"#utility.yul\":14766:15176   */\n      swap3\n      swap2\n      pop\n      pop\n      jump\t// out\n        /* \"#utility.yul\":15182:15268   */\n    tag_343:\n        /* \"#utility.yul\":15217:15224   */\n      0x00\n        /* \"#utility.yul\":15257:15261   */\n      0xff\n        /* \"#utility.yul\":15250:15255   */\n      dup3\n        /* \"#utility.yul\":15246:15262   */\n      and\n        /* \"#utility.yul\":15235:15262   */\n      swap1\n      pop\n        /* \"#utility.yul\":15182:15268   */\n      swap2\n      swap1\n      pop\n      jump\t// out\n        /* \"#utility.yul\":15274:15441   */\n    tag_162:\n        /* \"#utility.yul\":15311:15314   */\n      0x00\n        /* \"#utility.yul\":15334:15356   */\n      tag_538\n        /* \"#utility.yul\":15350:15355   */\n      dup3\n        /* \"#utility.yul\":15334:15356   */\n      tag_343\n      jump\t// in\n    tag_538:\n        /* \"#utility.yul\":15325:15356   */\n      swap2\n      pop\n        /* \"#utility.yul\":15378:15382   */\n      0xff\n        /* \"#utility.yul\":15371:15376   */\n      dup3\n        /* \"#utility.yul\":15368:15383   */\n      sub\n        /* \"#utility.yul\":15365:15406   */\n      tag_539\n      jumpi\n        /* \"#utility.yul\":15386:15404   */\n      tag_540\n      tag_342\n      jump\t// in\n    tag_540:\n        /* \"#utility.yul\":15365:15406   */\n    tag_539:\n        /* \"#utility.yul\":15433:15434   */\n      0x01\n        /* \"#utility.yul\":15426:15431   */\n      dup3\n        /* \"#utility.yul\":15422:15435   */\n      add\n        /* \"#utility.yul\":15415:15435   */\n      swap1\n      pop\n        /* \"#utility.yul\":15274:15441   */\n      swap2\n      swap1\n      pop\n      jump\t// out\n        /* \"#utility.yul\":15447:15616   */\n    tag_344:\n        /* \"#utility.yul\":15531:15542   */\n      0x00\n        /* \"#utility.yul\":15565:15571   */\n      dup3\n        /* \"#utility.yul\":15560:15563   */\n      dup3\n        /* \"#utility.yul\":15553:15572   */\n      mstore\n        /* \"#utility.yul\":15605:15609   */\n      0x20\n        /* \"#utility.yul\":15600:15603   */\n      dup3\n        /* \"#utility.yul\":15596:15610   */\n      add\n        /* \"#utility.yul\":15581:15610   */\n      swap1\n      pop\n        /* \"#utility.yul\":15447:15616   */\n      swap3\n      swap2\n      pop\n      pop\n      jump\t// out\n        /* \"#utility.yul\":15622:15844   */\n    tag_345:\n        /* \"#utility.yul\":15762:15796   */\n      0x54686520646973747269627574696f6e206861736e2774207374617274656420\n        /* \"#utility.yul\":15758:15759   */\n      0x00\n        /* \"#utility.yul\":15750:15756   */\n      dup3\n        /* \"#utility.yul\":15746:15760   */\n      add\n        /* \"#utility.yul\":15739:15797   */\n      mstore\n        /* \"#utility.yul\":15831:15836   */\n      0x7965740000000000000000000000000000000000000000000000000000000000\n        /* \"#utility.yul\":15826:15828   */\n      0x20\n        /* \"#utility.yul\":15818:15824   */\n      dup3\n        /* \"#utility.yul\":15814:15829   */\n      add\n        /* \"#utility.yul\":15807:15837   */\n      mstore\n        /* \"#utility.yul\":15622:15844   */\n      pop\n      jump\t// out\n        /* \"#utility.yul\":15850:16216   */\n    tag_346:\n        /* \"#utility.yul\":15992:15995   */\n      0x00\n        /* \"#utility.yul\":16013:16080   */\n      tag_544\n        /* \"#utility.yul\":16077:16079   */\n      0x23\n        /* \"#utility.yul\":16072:16075   */\n      dup4\n        /* \"#utility.yul\":16013:16080   */\n      tag_344\n      jump\t// in\n    tag_544:\n        /* \"#utility.yul\":16006:16080   */\n      swap2\n      pop\n        /* \"#utility.yul\":16089:16182   */\n      tag_545\n        /* \"#utility.yul\":16178:16181   */\n      dup3\n        /* \"#utility.yul\":16089:16182   */\n      tag_345\n      jump\t// in\n    tag_545:\n        /* \"#utility.yul\":16207:16209   */\n      0x40\n        /* \"#utility.yul\":16202:16205   */\n      dup3\n        /* \"#utility.yul\":16198:16210   */\n      add\n        /* \"#utility.yul\":16191:16210   */\n      swap1\n      pop\n        /* \"#utility.yul\":15850:16216   */\n      swap2\n      swap1\n      pop\n      jump\t// out\n        /* \"#utility.yul\":16222:16641   */\n    tag_185:\n        /* \"#utility.yul\":16388:16392   */\n      0x00\n        /* \"#utility.yul\":16426:16428   */\n      0x20\n        /* \"#utility.yul\":16415:16424   */\n      dup3\n        /* \"#utility.yul\":16411:16429   */\n      add\n        /* \"#utility.yul\":16403:16429   */\n      swap1\n      pop\n        /* \"#utility.yul\":16475:16484   */\n      dup2\n        /* \"#utility.yul\":16469:16473   */\n      dup2\n        /* \"#utility.yul\":16465:16485   */\n      sub\n        /* \"#utility.yul\":16461:16462   */\n      0x00\n        /* \"#utility.yul\":16450:16459   */\n      dup4\n        /* \"#utility.yul\":16446:16463   */\n      add\n        /* \"#utility.yul\":16439:16486   */\n      mstore\n        /* \"#utility.yul\":16503:16634   */\n      tag_547\n        /* \"#utility.yul\":16629:16633   */\n      dup2\n        /* \"#utility.yul\":16503:16634   */\n      tag_346\n      jump\t// in\n    tag_547:\n        /* \"#utility.yul\":16495:16634   */\n      swap1\n      pop\n        /* \"#utility.yul\":16222:16641   */\n      swap2\n      swap1\n      pop\n      jump\t// out\n        /* \"#utility.yul\":16647:16868   */\n    tag_347:\n        /* \"#utility.yul\":16787:16821   */\n      0x596f7520646f6e2774206861766520616e7920746f6b656e7320746f20636c61\n        /* \"#utility.yul\":16783:16784   */\n      0x00\n        /* \"#utility.yul\":16775:16781   */\n      dup3\n        /* \"#utility.yul\":16771:16785   */\n      add\n        /* \"#utility.yul\":16764:16822   */\n      mstore\n        /* \"#utility.yul\":16856:16860   */\n      0x696d000000000000000000000000000000000000000000000000000000000000\n        /* \"#utility.yul\":16851:16853   */\n      0x20\n        /* \"#utility.yul\":16843:16849   */\n      dup3\n        /* \"#utility.yul\":16839:16854   */\n      add\n        /* \"#utility.yul\":16832:16861   */\n      mstore\n        /* \"#utility.yul\":16647:16868   */\n      pop\n      jump\t// out\n        /* \"#utility.yul\":16874:17240   */\n    tag_348:\n        /* \"#utility.yul\":17016:17019   */\n      0x00\n        /* \"#utility.yul\":17037:17104   */\n      tag_550\n        /* \"#utility.yul\":17101:17103   */\n      0x22\n        /* \"#utility.yul\":17096:17099   */\n      dup4\n        /* \"#utility.yul\":17037:17104   */\n      tag_344\n      jump\t// in\n    tag_550:\n        /* \"#utility.yul\":17030:17104   */\n      swap2\n      pop\n        /* \"#utility.yul\":17113:17206   */\n      tag_551\n        /* \"#utility.yul\":17202:17205   */\n      dup3\n        /* \"#utility.yul\":17113:17206   */\n      tag_347\n      jump\t// in\n    tag_551:\n        /* \"#utility.yul\":17231:17233   */\n      0x40\n        /* \"#utility.yul\":17226:17229   */\n      dup3\n        /* \"#utility.yul\":17222:17234   */\n      add\n        /* \"#utility.yul\":17215:17234   */\n      swap1\n      pop\n        /* \"#utility.yul\":16874:17240   */\n      swap2\n      swap1\n      pop\n      jump\t// out\n        /* \"#utility.yul\":17246:17665   */\n    tag_190:\n        /* \"#utility.yul\":17412:17416   */\n      0x00\n        /* \"#utility.yul\":17450:17452   */\n      0x20\n        /* \"#utility.yul\":17439:17448   */\n      dup3\n        /* \"#utility.yul\":17435:17453   */\n      add\n        /* \"#utility.yul\":17427:17453   */\n      swap1\n      pop\n        /* \"#utility.yul\":17499:17508   */\n      dup2\n        /* \"#utility.yul\":17493:17497   */\n      dup2\n        /* \"#utility.yul\":17489:17509   */\n      sub\n        /* \"#utility.yul\":17485:17486   */\n      0x00\n        /* \"#utility.yul\":17474:17483   */\n      dup4\n        /* \"#utility.yul\":17470:17487   */\n      add\n        /* \"#utility.yul\":17463:17510   */\n      mstore\n        /* \"#utility.yul\":17527:17658   */\n      tag_553\n        /* \"#utility.yul\":17653:17657   */\n      dup2\n        /* \"#utility.yul\":17527:17658   */\n      tag_348\n      jump\t// in\n    tag_553:\n        /* \"#utility.yul\":17519:17658   */\n      swap1\n      pop\n        /* \"#utility.yul\":17246:17665   */\n      swap2\n      swap1\n      pop\n      jump\t// out\n        /* \"#utility.yul\":17671:17862   */\n    tag_192:\n        /* \"#utility.yul\":17711:17714   */\n      0x00\n        /* \"#utility.yul\":17730:17750   */\n      tag_555\n        /* \"#utility.yul\":17748:17749   */\n      dup3\n        /* \"#utility.yul\":17730:17750   */\n      tag_311\n      jump\t// in\n    tag_555:\n        /* \"#utility.yul\":17725:17750   */\n      swap2\n      pop\n        /* \"#utility.yul\":17764:17784   */\n      tag_556\n        /* \"#utility.yul\":17782:17783   */\n      dup4\n        /* \"#utility.yul\":17764:17784   */\n      tag_311\n      jump\t// in\n    tag_556:\n        /* \"#utility.yul\":17759:17784   */\n      swap3\n      pop\n        /* \"#utility.yul\":17807:17808   */\n      dup3\n        /* \"#utility.yul\":17804:17805   */\n      dup3\n        /* \"#utility.yul\":17800:17809   */\n      add\n        /* \"#utility.yul\":17793:17809   */\n      swap1\n      pop\n        /* \"#utility.yul\":17828:17831   */\n      dup1\n        /* \"#utility.yul\":17825:17826   */\n      dup3\n        /* \"#utility.yul\":17822:17832   */\n      gt\n        /* \"#utility.yul\":17819:17855   */\n      iszero\n      tag_557\n      jumpi\n        /* \"#utility.yul\":17835:17853   */\n      tag_558\n      tag_342\n      jump\t// in\n    tag_558:\n        /* \"#utility.yul\":17819:17855   */\n    tag_557:\n        /* \"#utility.yul\":17671:17862   */\n      swap3\n      swap2\n      pop\n      pop\n      jump\t// out\n        /* \"#utility.yul\":17868:18200   */\n    tag_194:\n        /* \"#utility.yul\":17989:17993   */\n      0x00\n        /* \"#utility.yul\":18027:18029   */\n      0x40\n        /* \"#utility.yul\":18016:18025   */\n      dup3\n        /* \"#utility.yul\":18012:18030   */\n      add\n        /* \"#utility.yul\":18004:18030   */\n      swap1\n      pop\n        /* \"#utility.yul\":18040:18111   */\n      tag_560\n        /* \"#utility.yul\":18108:18109   */\n      0x00\n        /* \"#utility.yul\":18097:18106   */\n      dup4\n        /* \"#utility.yul\":18093:18110   */\n      add\n        /* \"#utility.yul\":18084:18090   */\n      dup6\n        /* \"#utility.yul\":18040:18111   */\n      tag_332\n      jump\t// in\n    tag_560:\n        /* \"#utility.yul\":18121:18193   */\n      tag_561\n        /* \"#utility.yul\":18189:18191   */\n      0x20\n        /* \"#utility.yul\":18178:18187   */\n      dup4\n        /* \"#utility.yul\":18174:18192   */\n      add\n        /* \"#utility.yul\":18165:18171   */\n      dup5\n        /* \"#utility.yul\":18121:18193   */\n      tag_312\n      jump\t// in\n    tag_561:\n        /* \"#utility.yul\":17868:18200   */\n      swap4\n      swap3\n      pop\n      pop\n      pop\n      jump\t// out\n        /* \"#utility.yul\":18206:18435   */\n    tag_349:\n        /* \"#utility.yul\":18346:18380   */\n      0x54686520746f6b656e20646973747269627574696f6e2068617320616c726561\n        /* \"#utility.yul\":18342:18343   */\n      0x00\n        /* \"#utility.yul\":18334:18340   */\n      dup3\n        /* \"#utility.yul\":18330:18344   */\n      add\n        /* \"#utility.yul\":18323:18381   */\n      mstore\n        /* \"#utility.yul\":18415:18427   */\n      0x6479207374617274656400000000000000000000000000000000000000000000\n        /* \"#utility.yul\":18410:18412   */\n      0x20\n        /* \"#utility.yul\":18402:18408   */\n      dup3\n        /* \"#utility.yul\":18398:18413   */\n      add\n        /* \"#utility.yul\":18391:18428   */\n      mstore\n        /* \"#utility.yul\":18206:18435   */\n      pop\n      jump\t// out\n        /* \"#utility.yul\":18441:18807   */\n    tag_350:\n        /* \"#utility.yul\":18583:18586   */\n      0x00\n        /* \"#utility.yul\":18604:18671   */\n      tag_564\n        /* \"#utility.yul\":18668:18670   */\n      0x2a\n        /* \"#utility.yul\":18663:18666   */\n      dup4\n        /* \"#utility.yul\":18604:18671   */\n      tag_344\n      jump\t// in\n    tag_564:\n        /* \"#utility.yul\":18597:18671   */\n      swap2\n      pop\n        /* \"#utility.yul\":18680:18773   */\n      tag_565\n        /* \"#utility.yul\":18769:18772   */\n      dup3\n        /* \"#utility.yul\":18680:18773   */\n      tag_349\n      jump\t// in\n    tag_565:\n        /* \"#utility.yul\":18798:18800   */\n      0x40\n        /* \"#utility.yul\":18793:18796   */\n      dup3\n        /* \"#utility.yul\":18789:18801   */\n      add\n        /* \"#utility.yul\":18782:18801   */\n      swap1\n      pop\n        /* \"#utility.yul\":18441:18807   */\n      swap2\n      swap1\n      pop\n      jump\t// out\n        /* \"#utility.yul\":18813:19232   */\n    tag_227:\n        /* \"#utility.yul\":18979:18983   */\n      0x00\n        /* \"#utility.yul\":19017:19019   */\n      0x20\n        /* \"#utility.yul\":19006:19015   */\n      dup3\n        /* \"#utility.yul\":19002:19020   */\n      add\n        /* \"#utility.yul\":18994:19020   */\n      swap1\n      pop\n        /* \"#utility.yul\":19066:19075   */\n      dup2\n        /* \"#utility.yul\":19060:19064   */\n      dup2\n        /* \"#utility.yul\":19056:19076   */\n      sub\n        /* \"#utility.yul\":19052:19053   */\n      0x00\n        /* \"#utility.yul\":19041:19050   */\n      dup4\n        /* \"#utility.yul\":19037:19054   */\n      add\n        /* \"#utility.yul\":19030:19077   */\n      mstore\n        /* \"#utility.yul\":19094:19225   */\n      tag_567\n        /* \"#utility.yul\":19220:19224   */\n      dup2\n        /* \"#utility.yul\":19094:19225   */\n      tag_350\n      jump\t// in\n    tag_567:\n        /* \"#utility.yul\":19086:19225   */\n      swap1\n      pop\n        /* \"#utility.yul\":18813:19232   */\n      swap2\n      swap1\n      pop\n      jump\t// out\n        /* \"#utility.yul\":19238:19432   */\n    tag_253:\n        /* \"#utility.yul\":19278:19282   */\n      0x00\n        /* \"#utility.yul\":19298:19318   */\n      tag_569\n        /* \"#utility.yul\":19316:19317   */\n      dup3\n        /* \"#utility.yul\":19298:19318   */\n      tag_311\n      jump\t// in\n    tag_569:\n        /* \"#utility.yul\":19293:19318   */\n      swap2\n      pop\n        /* \"#utility.yul\":19332:19352   */\n      tag_570\n        /* \"#utility.yul\":19350:19351   */\n      dup4\n        /* \"#utility.yul\":19332:19352   */\n      tag_311\n      jump\t// in\n    tag_570:\n        /* \"#utility.yul\":19327:19352   */\n      swap3\n      pop\n        /* \"#utility.yul\":19376:19377   */\n      dup3\n        /* \"#utility.yul\":19373:19374   */\n      dup3\n        /* \"#utility.yul\":19369:19378   */\n      sub\n        /* \"#utility.yul\":19361:19378   */\n      swap1\n      pop\n        /* \"#utility.yul\":19400:19401   */\n      dup2\n        /* \"#utility.yul\":19394:19398   */\n      dup2\n        /* \"#utility.yul\":19391:19402   */\n      gt\n        /* \"#utility.yul\":19388:19425   */\n      iszero\n      tag_571\n      jumpi\n        /* \"#utility.yul\":19405:19423   */\n      tag_572\n      tag_342\n      jump\t// in\n    tag_572:\n        /* \"#utility.yul\":19388:19425   */\n    tag_571:\n        /* \"#utility.yul\":19238:19432   */\n      swap3\n      swap2\n      pop\n      pop\n      jump\t// out\n        /* \"#utility.yul\":19438:19618   */\n    tag_351:\n        /* \"#utility.yul\":19486:19563   */\n      0x4e487b7100000000000000000000000000000000000000000000000000000000\n        /* \"#utility.yul\":19483:19484   */\n      0x00\n        /* \"#utility.yul\":19476:19564   */\n      mstore\n        /* \"#utility.yul\":19583:19587   */\n      0x12\n        /* \"#utility.yul\":19580:19581   */\n      0x04\n        /* \"#utility.yul\":19573:19588   */\n      mstore\n        /* \"#utility.yul\":19607:19611   */\n      0x24\n        /* \"#utility.yul\":19604:19605   */\n      0x00\n        /* \"#utility.yul\":19597:19612   */\n      revert\n        /* \"#utility.yul\":19624:19809   */\n    tag_261:\n        /* \"#utility.yul\":19664:19665   */\n      0x00\n        /* \"#utility.yul\":19681:19701   */\n      tag_575\n        /* \"#utility.yul\":19699:19700   */\n      dup3\n        /* \"#utility.yul\":19681:19701   */\n      tag_311\n      jump\t// in\n    tag_575:\n        /* \"#utility.yul\":19676:19701   */\n      swap2\n      pop\n        /* \"#utility.yul\":19715:19735   */\n      tag_576\n        /* \"#utility.yul\":19733:19734   */\n      dup4\n        /* \"#utility.yul\":19715:19735   */\n      tag_311\n      jump\t// in\n    tag_576:\n        /* \"#utility.yul\":19710:19735   */\n      swap3\n      pop\n        /* \"#utility.yul\":19754:19755   */\n      dup3\n        /* \"#utility.yul\":19744:19779   */\n      tag_577\n      jumpi\n        /* \"#utility.yul\":19759:19777   */\n      tag_578\n      tag_351\n      jump\t// in\n    tag_578:\n        /* \"#utility.yul\":19744:19779   */\n    tag_577:\n        /* \"#utility.yul\":19801:19802   */\n      dup3\n        /* \"#utility.yul\":19798:19799   */\n      dup3\n        /* \"#utility.yul\":19794:19803   */\n      div\n        /* \"#utility.yul\":19789:19803   */\n      swap1\n      pop\n        /* \"#utility.yul\":19624:19809   */\n      swap3\n      swap2\n      pop\n      pop\n      jump\t// out\n        /* \"#utility.yul\":19815:19996   */\n    tag_352:\n        /* \"#utility.yul\":19955:19988   */\n      0x5265656e7472616e637947756172643a207265656e7472616e742063616c6c00\n        /* \"#utility.yul\":19951:19952   */\n      0x00\n        /* \"#utility.yul\":19943:19949   */\n      dup3\n        /* \"#utility.yul\":19939:19953   */\n      add\n        /* \"#utility.yul\":19932:19989   */\n      mstore\n        /* \"#utility.yul\":19815:19996   */\n      pop\n      jump\t// out\n        /* \"#utility.yul\":20002:20368   */\n    tag_353:\n        /* \"#utility.yul\":20144:20147   */\n      0x00\n        /* \"#utility.yul\":20165:20232   */\n      tag_581\n        /* \"#utility.yul\":20229:20231   */\n      0x1f\n        /* \"#utility.yul\":20224:20227   */\n      dup4\n        /* \"#utility.yul\":20165:20232   */\n      tag_344\n      jump\t// in\n    tag_581:\n        /* \"#utility.yul\":20158:20232   */\n      swap2\n      pop\n        /* \"#utility.yul\":20241:20334   */\n      tag_582\n        /* \"#utility.yul\":20330:20333   */\n      dup3\n        /* \"#utility.yul\":20241:20334   */\n      tag_352\n      jump\t// in\n    tag_582:\n        /* \"#utility.yul\":20359:20361   */\n      0x20\n        /* \"#utility.yul\":20354:20357   */\n      dup3\n        /* \"#utility.yul\":20350:20362   */\n      add\n        /* \"#utility.yul\":20343:20362   */\n      swap1\n      pop\n        /* \"#utility.yul\":20002:20368   */\n      swap2\n      swap1\n      pop\n      jump\t// out\n        /* \"#utility.yul\":20374:20793   */\n    tag_286:\n        /* \"#utility.yul\":20540:20544   */\n      0x00\n        /* \"#utility.yul\":20578:20580   */\n      0x20\n        /* \"#utility.yul\":20567:20576   */\n      dup3\n        /* \"#utility.yul\":20563:20581   */\n      add\n        /* \"#utility.yul\":20555:20581   */\n      swap1\n      pop\n        /* \"#utility.yul\":20627:20636   */\n      dup2\n        /* \"#utility.yul\":20621:20625   */\n      dup2\n        /* \"#utility.yul\":20617:20637   */\n      sub\n        /* \"#utility.yul\":20613:20614   */\n      0x00\n        /* \"#utility.yul\":20602:20611   */\n      dup4\n        /* \"#utility.yul\":20598:20615   */\n      add\n        /* \"#utility.yul\":20591:20638   */\n      mstore\n        /* \"#utility.yul\":20655:20786   */\n      tag_584\n        /* \"#utility.yul\":20781:20785   */\n      dup2\n        /* \"#utility.yul\":20655:20786   */\n      tag_353\n      jump\t// in\n    tag_584:\n        /* \"#utility.yul\":20647:20786   */\n      swap1\n      pop\n        /* \"#utility.yul\":20374:20793   */\n      swap2\n      swap1\n      pop\n      jump\t// out\n        /* \"#utility.yul\":20799:21131   */\n    tag_298:\n        /* \"#utility.yul\":20920:20924   */\n      0x00\n        /* \"#utility.yul\":20958:20960   */\n      0x40\n        /* \"#utility.yul\":20947:20956   */\n      dup3\n        /* \"#utility.yul\":20943:20961   */\n      add\n        /* \"#utility.yul\":20935:20961   */\n      swap1\n      pop\n        /* \"#utility.yul\":20971:21042   */\n      tag_586\n        /* \"#utility.yul\":21039:21040   */\n      0x00\n        /* \"#utility.yul\":21028:21037   */\n      dup4\n        /* \"#utility.yul\":21024:21041   */\n      add\n        /* \"#utility.yul\":21015:21021   */\n      dup6\n        /* \"#utility.yul\":20971:21042   */\n      tag_332\n      jump\t// in\n    tag_586:\n        /* \"#utility.yul\":21052:21124   */\n      tag_587\n        /* \"#utility.yul\":21120:21122   */\n      0x20\n        /* \"#utility.yul\":21109:21118   */\n      dup4\n        /* \"#utility.yul\":21105:21123   */\n      add\n        /* \"#utility.yul\":21096:21102   */\n      dup5\n        /* \"#utility.yul\":21052:21124   */\n      tag_316\n      jump\t// in\n    tag_587:\n        /* \"#utility.yul\":20799:21131   */\n      swap4\n      swap3\n      pop\n      pop\n      pop\n      jump\t// out\n\n    auxdata: 0xa26469706673582212204eb83fde76d4685b380b45c7815aca99b4d31f1011b862fa5aaa6be55b2f6fc064736f6c63430008180033\n}\n",
				"bytecode": {
					"linkReferences": {},
					"object": "608060405234801562000010575f80fd5b506040516200247c3803806200247c833981810160405281019062000036919062000238565b335f73ffffffffffffffffffffffffffffffffffffffff168173ffffffffffffffffffffffffffffffffffffffff1603620000aa575f6040517f1e4fbdf7000000000000000000000000000000000000000000000000000000008152600401620000a1919062000279565b60405180910390fd5b620000bb816200011260201b60201c565b5060016002819055508060035f6101000a81548173ffffffffffffffffffffffffffffffffffffffff021916908373ffffffffffffffffffffffffffffffffffffffff160217905550426004819055505062000294565b5f805f9054906101000a900473ffffffffffffffffffffffffffffffffffffffff169050815f806101000a81548173ffffffffffffffffffffffffffffffffffffffff021916908373ffffffffffffffffffffffffffffffffffffffff1602179055508173ffffffffffffffffffffffffffffffffffffffff168173ffffffffffffffffffffffffffffffffffffffff167f8be0079c531659141344cd1fd0a4f28419497f9722a3daafe3b4186f6b6457e060405160405180910390a35050565b5f80fd5b5f73ffffffffffffffffffffffffffffffffffffffff82169050919050565b5f6200020282620001d7565b9050919050565b6200021481620001f6565b81146200021f575f80fd5b50565b5f81519050620002328162000209565b92915050565b5f6020828403121562000250576200024f620001d3565b5b5f6200025f8482850162000222565b91505092915050565b6200027381620001f6565b82525050565b5f6020820190506200028e5f83018462000268565b92915050565b6121da80620002a25f395ff3fe608060405234801561000f575f80fd5b5060043610610156575f3560e01c806391d14854116100c1578063be9a65551161007a578063be9a6555146103e0578063d547741f146103fe578063edee709e1461041a578063f2fde38b14610438578063f6a03ebf14610454578063fc0c546a1461047057610156565b806391d14854146102f2578063a217fddf14610322578063a3da71b814610340578063a7310b581461035e578063a871da9114610392578063a960c65f146103b057610156565b80633dee0397116101135780633dee03971461024257806348c54b9d14610272578063561cce0a1461027c578063715018a61461029a57806384d24226146102a45780638da5cb5b146102d457610156565b806301ffc9a71461015a5780630aae7a6b1461018a578063248a9ca3146101be5780632a484675146101ee5780632f2ff15d1461020a57806336568abe14610226575b5f80fd5b610174600480360381019061016f9190611656565b61048e565b604051610181919061169b565b60405180910390f35b6101a4600480360381019061019f919061170e565b610507565b6040516101b5959493929190611751565b60405180910390f35b6101d860048036038101906101d391906117d5565b6106ba565b6040516101e5919061180f565b60405180910390f35b61020860048036038101906102039190611a71565b6106d7565b005b610224600480360381019061021f9190611b74565b610945565b005b610240600480360381019061023b9190611b74565b610967565b005b61025c6004803603810190610257919061170e565b6109e2565b6040516102699190611bb2565b60405180910390f35b61027a6109f3565b005b610284610bb4565b6040516102919190611bb2565b60405180910390f35b6102a2610bbb565b005b6102be60048036038101906102b9919061170e565b610bce565b6040516102cb9190611bb2565b60405180910390f35b6102dc610bdf565b6040516102e99190611bda565b60405180910390f35b61030c60048036038101906103079190611b74565b610c06565b604051610319919061169b565b60405180910390f35b61032a610c6a565b604051610337919061180f565b60405180910390f35b610348610c70565b6040516103559190611bb2565b60405180910390f35b6103786004803603810190610373919061170e565b610c77565b604051610389959493929190611c02565b60405180910390f35b61039a610ce7565b6040516103a79190611bb2565b60405180910390f35b6103ca60048036038101906103c5919061170e565b610cee565b6040516103d79190611bb2565b60405180910390f35b6103e8610d37565b6040516103f59190611bb2565b60405180910390f35b61041860048036038101906104139190611b74565b610d3d565b005b610422610d5f565b60405161042f9190611bb2565b60405180910390f35b610452600480360381019061044d919061170e565b610d66565b005b61046e60048036038101906104699190611c7d565b610dea565b005b610478610e40565b6040516104859190611d03565b60405180910390f35b5f7f7965db0b000000000000000000000000000000000000000000000000000000007bffffffffffffffffffffffffffffffffffffffffffffffffffffffff1916827bffffffffffffffffffffffffffffffffffffffffffffffffffffffff1916148061050057506104ff82610e65565b5b9050919050565b5f805f805f8060055f8873ffffffffffffffffffffffffffffffffffffffff1673ffffffffffffffffffffffffffffffffffffffff1681526020019081526020015f206040518060a00160405290815f82015f9054906101000a900463ffffffff1663ffffffff1663ffffffff16815260200160018201548152602001600282015f9054906101000a900463ffffffff1663ffffffff1663ffffffff1681526020016002820160049054906101000a900463ffffffff1663ffffffff1663ffffffff1681526020016002820160089054906101000a900463ffffffff1663ffffffff1663ffffffff16815250509050670de0b6b3a7640000815f015163ffffffff166106139190611d5c565b8160200151670de0b6b3a7640000836040015163ffffffff166106369190611d5c565b670de0b6b3a7640000846060015163ffffffff166106549190611d5c565b670de0b6b3a7640000856080015163ffffffff166106729190611d5c565b8467ffffffffffffffff1694508267ffffffffffffffff1692508167ffffffffffffffff1691508067ffffffffffffffff169050955095509550955095505091939590929450565b5f60015f8381526020019081526020015f20600101549050919050565b6106df610ece565b5f5b85518160ff16101561093d575f838260ff168151811061070457610703611d98565b5b6020026020010151858360ff168151811061072257610721611d98565b5b6020026020010151878460ff16815181106107405761073f611d98565b5b60200260200101516107529190611dc5565b61075c9190611dc5565b90506040518060a001604052808263ffffffff168152602001670de0b6b3a7640000858560ff168151811061079457610793611d98565b5b602002602001015163ffffffff166107ac9190611dfc565b8152602001878460ff16815181106107c7576107c6611d98565b5b602002602001015163ffffffff168152602001868460ff16815181106107f0576107ef611d98565b5b602002602001015163ffffffff168152602001858460ff168151811061081957610818611d98565b5b602002602001015163ffffffff1681525060055f898560ff168151811061084357610842611d98565b5b602002602001015173ffffffffffffffffffffffffffffffffffffffff1673ffffffffffffffffffffffffffffffffffffffff1681526020019081526020015f205f820151815f015f6101000a81548163ffffffff021916908363ffffffff160217905550602082015181600101556040820151816002015f6101000a81548163ffffffff021916908363ffffffff16021790555060608201518160020160046101000a81548163ffffffff021916908363ffffffff16021790555060808201518160020160086101000a81548163ffffffff021916908363ffffffff16021790555090505050808061093590611e49565b9150506106e1565b505050505050565b61094e826106ba565b61095781610f55565b6109618383610f69565b50505050565b61096f611052565b73ffffffffffffffffffffffffffffffffffffffff168173ffffffffffffffffffffffffffffffffffffffff16146109d3576040517f6697b23200000000000000000000000000000000000000000000000000000000815260040160405180910390fd5b6109dd8282611059565b505050565b5f6109ec82611143565b9050919050565b6109fb611411565b600454421015610a40576040517f08c379a0000000000000000000000000000000000000000000000000000000008152600401610a3790611ef1565b60405180910390fd5b5f610a4a3361145e565b90505f8111610a8e576040517f08c379a0000000000000000000000000000000000000000000000000000000008152600401610a8590611f7f565b60405180910390fd5b5f60055f3373ffffffffffffffffffffffffffffffffffffffff1673ffffffffffffffffffffffffffffffffffffffff1681526020019081526020015f209050818160010154610ade9190611f9d565b816001018190555060035f9054906101000a900473ffffffffffffffffffffffffffffffffffffffff1673ffffffffffffffffffffffffffffffffffffffff166340c10f1933846040518363ffffffff1660e01b8152600401610b42929190611fd0565b5f604051808303815f87803b158015610b59575f80fd5b505af1158015610b6b573d5f803e3d5ffd5b505050507f4d7f917f6b905f28ba5297e6c224a6cfec20ac6a3698a55b412d30b95ad25d2f3383604051610ba0929190611fd0565b60405180910390a15050610bb26114d4565b565b6241eb0081565b610bc3610ece565b610bcc5f6114de565b565b5f610bd88261145e565b9050919050565b5f805f9054906101000a900473ffffffffffffffffffffffffffffffffffffffff16905090565b5f60015f8481526020019081526020015f205f015f8373ffffffffffffffffffffffffffffffffffffffff1673ffffffffffffffffffffffffffffffffffffffff1681526020019081526020015f205f9054906101000a900460ff16905092915050565b5f801b81565b6202a30081565b6005602052805f5260405f205f91509050805f015f9054906101000a900463ffffffff1690806001015490806002015f9054906101000a900463ffffffff16908060020160049054906101000a900463ffffffff16908060020160089054906101000a900463ffffffff16905085565b621a5e0081565b5f60055f8373ffffffffffffffffffffffffffffffffffffffff1673ffffffffffffffffffffffffffffffffffffffff1681526020019081526020015f20600101549050919050565b60045481565b610d46826106ba565b610d4f81610f55565b610d598383611059565b50505050565b62278d0081565b610d6e610ece565b5f73ffffffffffffffffffffffffffffffffffffffff168173ffffffffffffffffffffffffffffffffffffffff1603610dde575f6040517f1e4fbdf7000000000000000000000000000000000000000000000000000000008152600401610dd59190611bda565b60405180910390fd5b610de7816114de565b50565b610df2610ece565b4260045410610e36576040517f08c379a0000000000000000000000000000000000000000000000000000000008152600401610e2d90612067565b60405180910390fd5b8060048190555050565b60035f9054906101000a900473ffffffffffffffffffffffffffffffffffffffff1681565b5f7f01ffc9a7000000000000000000000000000000000000000000000000000000007bffffffffffffffffffffffffffffffffffffffffffffffffffffffff1916827bffffffffffffffffffffffffffffffffffffffffffffffffffffffff1916149050919050565b610ed6611052565b73ffffffffffffffffffffffffffffffffffffffff16610ef4610bdf565b73ffffffffffffffffffffffffffffffffffffffff1614610f5357610f17611052565b6040517f118cdaa7000000000000000000000000000000000000000000000000000000008152600401610f4a9190611bda565b60405180910390fd5b565b610f6681610f61611052565b61159f565b50565b5f610f748383610c06565b611048576001805f8581526020019081526020015f205f015f8473ffffffffffffffffffffffffffffffffffffffff1673ffffffffffffffffffffffffffffffffffffffff1681526020019081526020015f205f6101000a81548160ff021916908315150217905550610fe5611052565b73ffffffffffffffffffffffffffffffffffffffff168273ffffffffffffffffffffffffffffffffffffffff16847f2f8788117e7eff1d82e926ec794901d17c78024a50270940304540a733656f0d60405160405180910390a46001905061104c565b5f90505b92915050565b5f33905090565b5f6110648383610c06565b15611139575f60015f8581526020019081526020015f205f015f8473ffffffffffffffffffffffffffffffffffffffff1673ffffffffffffffffffffffffffffffffffffffff1681526020019081526020015f205f6101000a81548160ff0219169083151502179055506110d6611052565b73ffffffffffffffffffffffffffffffffffffffff168273ffffffffffffffffffffffffffffffffffffffff16847ff6391f5c32d9c69d2a47ea670b442974b53935d1edc7fd64eb21e047a839171b60405160405180910390a46001905061113d565b5f90505b92915050565b5f6004544211611155575f905061140c565b5f60055f8473ffffffffffffffffffffffffffffffffffffffff1673ffffffffffffffffffffffffffffffffffffffff1681526020019081526020015f206040518060a00160405290815f82015f9054906101000a900463ffffffff1663ffffffff1663ffffffff16815260200160018201548152602001600282015f9054906101000a900463ffffffff1663ffffffff1663ffffffff1681526020016002820160049054906101000a900463ffffffff1663ffffffff1663ffffffff1681526020016002820160089054906101000a900463ffffffff1663ffffffff1663ffffffff168152505090505f6004544261124e9190612085565b90506241eb00811061128a57670de0b6b3a7640000826040015163ffffffff166112789190611dfc565b836112839190611f9d565b92506112cf565b6241eb00670de0b6b3a764000082846040015163ffffffff166112ad9190611dfc565b6112b79190611dfc565b6112c191906120e5565b836112cc9190611f9d565b92505b62278d00811061130957670de0b6b3a7640000826060015163ffffffff166112f79190611dfc565b836113029190611f9d565b925061134e565b62278d00670de0b6b3a764000082846060015163ffffffff1661132c9190611dfc565b6113369190611dfc565b61134091906120e5565b8361134b9190611f9d565b92505b621a5e00811061138857670de0b6b3a7640000826080015163ffffffff166113769190611dfc565b836113819190611f9d565b9250611409565b6202a3008110156113c35767016345785d8a0000826080015163ffffffff166113b19190611dfc565b836113bc9190611f9d565b9250611408565b621a5e00670de0b6b3a764000082846080015163ffffffff166113e69190611dfc565b6113f09190611dfc565b6113fa91906120e5565b836114059190611f9d565b92505b5b50505b919050565b6002805403611455576040517f08c379a000000000000000000000000000000000000000000000000000000000815260040161144c9061215f565b60405180910390fd5b60028081905550565b5f8061146983611143565b90505f60055f8573ffffffffffffffffffffffffffffffffffffffff1673ffffffffffffffffffffffffffffffffffffffff1681526020019081526020015f206001015490508082116114be575f92506114cd565b80826114ca9190612085565b92505b5050919050565b6001600281905550565b5f805f9054906101000a900473ffffffffffffffffffffffffffffffffffffffff169050815f806101000a81548173ffffffffffffffffffffffffffffffffffffffff021916908373ffffffffffffffffffffffffffffffffffffffff1602179055508173ffffffffffffffffffffffffffffffffffffffff168173ffffffffffffffffffffffffffffffffffffffff167f8be0079c531659141344cd1fd0a4f28419497f9722a3daafe3b4186f6b6457e060405160405180910390a35050565b6115a98282610c06565b6115ec5780826040517fe2517d3f0000000000000000000000000000000000000000000000000000000081526004016115e392919061217d565b60405180910390fd5b5050565b5f604051905090565b5f80fd5b5f80fd5b5f7fffffffff0000000000000000000000000000000000000000000000000000000082169050919050565b61163581611601565b811461163f575f80fd5b50565b5f813590506116508161162c565b92915050565b5f6020828403121561166b5761166a6115f9565b5b5f61167884828501611642565b91505092915050565b5f8115159050919050565b61169581611681565b82525050565b5f6020820190506116ae5f83018461168c565b92915050565b5f73ffffffffffffffffffffffffffffffffffffffff82169050919050565b5f6116dd826116b4565b9050919050565b6116ed816116d3565b81146116f7575f80fd5b50565b5f81359050611708816116e4565b92915050565b5f60208284031215611723576117226115f9565b5b5f611730848285016116fa565b91505092915050565b5f819050919050565b61174b81611739565b82525050565b5f60a0820190506117645f830188611742565b6117716020830187611742565b61177e6040830186611742565b61178b6060830185611742565b6117986080830184611742565b9695505050505050565b5f819050919050565b6117b4816117a2565b81146117be575f80fd5b50565b5f813590506117cf816117ab565b92915050565b5f602082840312156117ea576117e96115f9565b5b5f6117f7848285016117c1565b91505092915050565b611809816117a2565b82525050565b5f6020820190506118225f830184611800565b92915050565b5f80fd5b5f601f19601f8301169050919050565b7f4e487b71000000000000000000000000000000000000000000000000000000005f52604160045260245ffd5b6118728261182c565b810181811067ffffffffffffffff821117156118915761189061183c565b5b80604052505050565b5f6118a36115f0565b90506118af8282611869565b919050565b5f67ffffffffffffffff8211156118ce576118cd61183c565b5b602082029050602081019050919050565b5f80fd5b5f6118f56118f0846118b4565b61189a565b90508083825260208201905060208402830185811115611918576119176118df565b5b835b81811015611941578061192d88826116fa565b84526020840193505060208101905061191a565b5050509392505050565b5f82601f83011261195f5761195e611828565b5b813561196f8482602086016118e3565b91505092915050565b5f67ffffffffffffffff8211156119925761199161183c565b5b602082029050602081019050919050565b5f63ffffffff82169050919050565b6119bb816119a3565b81146119c5575f80fd5b50565b5f813590506119d6816119b2565b92915050565b5f6119ee6119e984611978565b61189a565b90508083825260208201905060208402830185811115611a1157611a106118df565b5b835b81811015611a3a5780611a2688826119c8565b845260208401935050602081019050611a13565b5050509392505050565b5f82601f830112611a5857611a57611828565b5b8135611a688482602086016119dc565b91505092915050565b5f805f805f60a08688031215611a8a57611a896115f9565b5b5f86013567ffffffffffffffff811115611aa757611aa66115fd565b5b611ab38882890161194b565b955050602086013567ffffffffffffffff811115611ad457611ad36115fd565b5b611ae088828901611a44565b945050604086013567ffffffffffffffff811115611b0157611b006115fd565b5b611b0d88828901611a44565b935050606086013567ffffffffffffffff811115611b2e57611b2d6115fd565b5b611b3a88828901611a44565b925050608086013567ffffffffffffffff811115611b5b57611b5a6115fd565b5b611b6788828901611a44565b9150509295509295909350565b5f8060408385031215611b8a57611b896115f9565b5b5f611b97858286016117c1565b9250506020611ba8858286016116fa565b9150509250929050565b5f602082019050611bc55f830184611742565b92915050565b611bd4816116d3565b82525050565b5f602082019050611bed5f830184611bcb565b92915050565b611bfc816119a3565b82525050565b5f60a082019050611c155f830188611bf3565b611c226020830187611742565b611c2f6040830186611bf3565b611c3c6060830185611bf3565b611c496080830184611bf3565b9695505050505050565b611c5c81611739565b8114611c66575f80fd5b50565b5f81359050611c7781611c53565b92915050565b5f60208284031215611c9257611c916115f9565b5b5f611c9f84828501611c69565b91505092915050565b5f819050919050565b5f611ccb611cc6611cc1846116b4565b611ca8565b6116b4565b9050919050565b5f611cdc82611cb1565b9050919050565b5f611ced82611cd2565b9050919050565b611cfd81611ce3565b82525050565b5f602082019050611d165f830184611cf4565b92915050565b5f67ffffffffffffffff82169050919050565b7f4e487b71000000000000000000000000000000000000000000000000000000005f52601160045260245ffd5b5f611d6682611d1c565b9150611d7183611d1c565b9250828202611d7f81611d1c565b9150808214611d9157611d90611d2f565b5b5092915050565b7f4e487b71000000000000000000000000000000000000000000000000000000005f52603260045260245ffd5b5f611dcf826119a3565b9150611dda836119a3565b9250828201905063ffffffff811115611df657611df5611d2f565b5b92915050565b5f611e0682611739565b9150611e1183611739565b9250828202611e1f81611739565b91508282048414831517611e3657611e35611d2f565b5b5092915050565b5f60ff82169050919050565b5f611e5382611e3d565b915060ff8203611e6657611e65611d2f565b5b600182019050919050565b5f82825260208201905092915050565b7f54686520646973747269627574696f6e206861736e27742073746172746564205f8201527f7965740000000000000000000000000000000000000000000000000000000000602082015250565b5f611edb602383611e71565b9150611ee682611e81565b604082019050919050565b5f6020820190508181035f830152611f0881611ecf565b9050919050565b7f596f7520646f6e2774206861766520616e7920746f6b656e7320746f20636c615f8201527f696d000000000000000000000000000000000000000000000000000000000000602082015250565b5f611f69602283611e71565b9150611f7482611f0f565b604082019050919050565b5f6020820190508181035f830152611f9681611f5d565b9050919050565b5f611fa782611739565b9150611fb283611739565b9250828201905080821115611fca57611fc9611d2f565b5b92915050565b5f604082019050611fe35f830185611bcb565b611ff06020830184611742565b9392505050565b7f54686520746f6b656e20646973747269627574696f6e2068617320616c7265615f8201527f6479207374617274656400000000000000000000000000000000000000000000602082015250565b5f612051602a83611e71565b915061205c82611ff7565b604082019050919050565b5f6020820190508181035f83015261207e81612045565b9050919050565b5f61208f82611739565b915061209a83611739565b92508282039050818111156120b2576120b1611d2f565b5b92915050565b7f4e487b71000000000000000000000000000000000000000000000000000000005f52601260045260245ffd5b5f6120ef82611739565b91506120fa83611739565b92508261210a576121096120b8565b5b828204905092915050565b7f5265656e7472616e637947756172643a207265656e7472616e742063616c6c005f82015250565b5f612149601f83611e71565b915061215482612115565b602082019050919050565b5f6020820190508181035f8301526121768161213d565b9050919050565b5f6040820190506121905f830185611bcb565b61219d6020830184611800565b939250505056fea26469706673582212204eb83fde76d4685b380b45c7815aca99b4d31f1011b862fa5aaa6be55b2f6fc064736f6c63430008180033",
					"opcodes": "PUSH1 0x80 PUSH1 0x40 MSTORE CALLVALUE DUP1 ISZERO PUSH3 0x10 JUMPI PUSH0 DUP1 REVERT JUMPDEST POP PUSH1 0x40 MLOAD PUSH3 0x247C CODESIZE SUB DUP1 PUSH3 0x247C DUP4 CODECOPY DUP2 DUP2 ADD PUSH1 0x40 MSTORE DUP2 ADD SWAP1 PUSH3 0x36 SWAP2 SWAP1 PUSH3 0x238 JUMP JUMPDEST CALLER PUSH0 PUSH20 0xFFFFFFFFFFFFFFFFFFFFFFFFFFFFFFFFFFFFFFFF AND DUP2 PUSH20 0xFFFFFFFFFFFFFFFFFFFFFFFFFFFFFFFFFFFFFFFF AND SUB PUSH3 0xAA JUMPI PUSH0 PUSH1 0x40 MLOAD PUSH32 0x1E4FBDF700000000000000000000000000000000000000000000000000000000 DUP2 MSTORE PUSH1 0x4 ADD PUSH3 0xA1 SWAP2 SWAP1 PUSH3 0x279 JUMP JUMPDEST PUSH1 0x40 MLOAD DUP1 SWAP2 SUB SWAP1 REVERT JUMPDEST PUSH3 0xBB DUP2 PUSH3 0x112 PUSH1 0x20 SHL PUSH1 0x20 SHR JUMP JUMPDEST POP PUSH1 0x1 PUSH1 0x2 DUP2 SWAP1 SSTORE POP DUP1 PUSH1 0x3 PUSH0 PUSH2 0x100 EXP DUP2 SLOAD DUP2 PUSH20 0xFFFFFFFFFFFFFFFFFFFFFFFFFFFFFFFFFFFFFFFF MUL NOT AND SWAP1 DUP4 PUSH20 0xFFFFFFFFFFFFFFFFFFFFFFFFFFFFFFFFFFFFFFFF AND MUL OR SWAP1 SSTORE POP TIMESTAMP PUSH1 0x4 DUP2 SWAP1 SSTORE POP POP PUSH3 0x294 JUMP JUMPDEST PUSH0 DUP1 PUSH0 SWAP1 SLOAD SWAP1 PUSH2 0x100 EXP SWAP1 DIV PUSH20 0xFFFFFFFFFFFFFFFFFFFFFFFFFFFFFFFFFFFFFFFF AND SWAP1 POP DUP2 PUSH0 DUP1 PUSH2 0x100 EXP DUP2 SLOAD DUP2 PUSH20 0xFFFFFFFFFFFFFFFFFFFFFFFFFFFFFFFFFFFFFFFF MUL NOT AND SWAP1 DUP4 PUSH20 0xFFFFFFFFFFFFFFFFFFFFFFFFFFFFFFFFFFFFFFFF AND MUL OR SWAP1 SSTORE POP DUP2 PUSH20 0xFFFFFFFFFFFFFFFFFFFFFFFFFFFFFFFFFFFFFFFF AND DUP2 PUSH20 0xFFFFFFFFFFFFFFFFFFFFFFFFFFFFFFFFFFFFFFFF AND PUSH32 0x8BE0079C531659141344CD1FD0A4F28419497F9722A3DAAFE3B4186F6B6457E0 PUSH1 0x40 MLOAD PUSH1 0x40 MLOAD DUP1 SWAP2 SUB SWAP1 LOG3 POP POP JUMP JUMPDEST PUSH0 DUP1 REVERT JUMPDEST PUSH0 PUSH20 0xFFFFFFFFFFFFFFFFFFFFFFFFFFFFFFFFFFFFFFFF DUP3 AND SWAP1 POP SWAP2 SWAP1 POP JUMP JUMPDEST PUSH0 PUSH3 0x202 DUP3 PUSH3 0x1D7 JUMP JUMPDEST SWAP1 POP SWAP2 SWAP1 POP JUMP JUMPDEST PUSH3 0x214 DUP2 PUSH3 0x1F6 JUMP JUMPDEST DUP2 EQ PUSH3 0x21F JUMPI PUSH0 DUP1 REVERT JUMPDEST POP JUMP JUMPDEST PUSH0 DUP2 MLOAD SWAP1 POP PUSH3 0x232 DUP2 PUSH3 0x209 JUMP JUMPDEST SWAP3 SWAP2 POP POP JUMP JUMPDEST PUSH0 PUSH1 0x20 DUP3 DUP5 SUB SLT ISZERO PUSH3 0x250 JUMPI PUSH3 0x24F PUSH3 0x1D3 JUMP JUMPDEST JUMPDEST PUSH0 PUSH3 0x25F DUP5 DUP3 DUP6 ADD PUSH3 0x222 JUMP JUMPDEST SWAP2 POP POP SWAP3 SWAP2 POP POP JUMP JUMPDEST PUSH3 0x273 DUP2 PUSH3 0x1F6 JUMP JUMPDEST DUP3 MSTORE POP POP JUMP JUMPDEST PUSH0 PUSH1 0x20 DUP3 ADD SWAP1 POP PUSH3 0x28E PUSH0 DUP4 ADD DUP5 PUSH3 0x268 JUMP JUMPDEST SWAP3 SWAP2 POP POP JUMP JUMPDEST PUSH2 0x21DA DUP1 PUSH3 0x2A2 PUSH0 CODECOPY PUSH0 RETURN INVALID PUSH1 0x80 PUSH1 0x40 MSTORE CALLVALUE DUP1 ISZERO PUSH2 0xF JUMPI PUSH0 DUP1 REVERT JUMPDEST POP PUSH1 0x4 CALLDATASIZE LT PUSH2 0x156 JUMPI PUSH0 CALLDATALOAD PUSH1 0xE0 SHR DUP1 PUSH4 0x91D14854 GT PUSH2 0xC1 JUMPI DUP1 PUSH4 0xBE9A6555 GT PUSH2 0x7A JUMPI DUP1 PUSH4 0xBE9A6555 EQ PUSH2 0x3E0 JUMPI DUP1 PUSH4 0xD547741F EQ PUSH2 0x3FE JUMPI DUP1 PUSH4 0xEDEE709E EQ PUSH2 0x41A JUMPI DUP1 PUSH4 0xF2FDE38B EQ PUSH2 0x438 JUMPI DUP1 PUSH4 0xF6A03EBF EQ PUSH2 0x454 JUMPI DUP1 PUSH4 0xFC0C546A EQ PUSH2 0x470 JUMPI PUSH2 0x156 JUMP JUMPDEST DUP1 PUSH4 0x91D14854 EQ PUSH2 0x2F2 JUMPI DUP1 PUSH4 0xA217FDDF EQ PUSH2 0x322 JUMPI DUP1 PUSH4 0xA3DA71B8 EQ PUSH2 0x340 JUMPI DUP1 PUSH4 0xA7310B58 EQ PUSH2 0x35E JUMPI DUP1 PUSH4 0xA871DA91 EQ PUSH2 0x392 JUMPI DUP1 PUSH4 0xA960C65F EQ PUSH2 0x3B0 JUMPI PUSH2 0x156 JUMP JUMPDEST DUP1 PUSH4 0x3DEE0397 GT PUSH2 0x113 JUMPI DUP1 PUSH4 0x3DEE0397 EQ PUSH2 0x242 JUMPI DUP1 PUSH4 0x48C54B9D EQ PUSH2 0x272 JUMPI DUP1 PUSH4 0x561CCE0A EQ PUSH2 0x27C JUMPI DUP1 PUSH4 0x715018A6 EQ PUSH2 0x29A JUMPI DUP1 PUSH4 0x84D24226 EQ PUSH2 0x2A4 JUMPI DUP1 PUSH4 0x8DA5CB5B EQ PUSH2 0x2D4 JUMPI PUSH2 0x156 JUMP JUMPDEST DUP1 PUSH4 0x1FFC9A7 EQ PUSH2 0x15A JUMPI DUP1 PUSH4 0xAAE7A6B EQ PUSH2 0x18A JUMPI DUP1 PUSH4 0x248A9CA3 EQ PUSH2 0x1BE JUMPI DUP1 PUSH4 0x2A484675 EQ PUSH2 0x1EE JUMPI DUP1 PUSH4 0x2F2FF15D EQ PUSH2 0x20A JUMPI DUP1 PUSH4 0x36568ABE EQ PUSH2 0x226 JUMPI JUMPDEST PUSH0 DUP1 REVERT JUMPDEST PUSH2 0x174 PUSH1 0x4 DUP1 CALLDATASIZE SUB DUP2 ADD SWAP1 PUSH2 0x16F SWAP2 SWAP1 PUSH2 0x1656 JUMP JUMPDEST PUSH2 0x48E JUMP JUMPDEST PUSH1 0x40 MLOAD PUSH2 0x181 SWAP2 SWAP1 PUSH2 0x169B JUMP JUMPDEST PUSH1 0x40 MLOAD DUP1 SWAP2 SUB SWAP1 RETURN JUMPDEST PUSH2 0x1A4 PUSH1 0x4 DUP1 CALLDATASIZE SUB DUP2 ADD SWAP1 PUSH2 0x19F SWAP2 SWAP1 PUSH2 0x170E JUMP JUMPDEST PUSH2 0x507 JUMP JUMPDEST PUSH1 0x40 MLOAD PUSH2 0x1B5 SWAP6 SWAP5 SWAP4 SWAP3 SWAP2 SWAP1 PUSH2 0x1751 JUMP JUMPDEST PUSH1 0x40 MLOAD DUP1 SWAP2 SUB SWAP1 RETURN JUMPDEST PUSH2 0x1D8 PUSH1 0x4 DUP1 CALLDATASIZE SUB DUP2 ADD SWAP1 PUSH2 0x1D3 SWAP2 SWAP1 PUSH2 0x17D5 JUMP JUMPDEST PUSH2 0x6BA JUMP JUMPDEST PUSH1 0x40 MLOAD PUSH2 0x1E5 SWAP2 SWAP1 PUSH2 0x180F JUMP JUMPDEST PUSH1 0x40 MLOAD DUP1 SWAP2 SUB SWAP1 RETURN JUMPDEST PUSH2 0x208 PUSH1 0x4 DUP1 CALLDATASIZE SUB DUP2 ADD SWAP1 PUSH2 0x203 SWAP2 SWAP1 PUSH2 0x1A71 JUMP JUMPDEST PUSH2 0x6D7 JUMP JUMPDEST STOP JUMPDEST PUSH2 0x224 PUSH1 0x4 DUP1 CALLDATASIZE SUB DUP2 ADD SWAP1 PUSH2 0x21F SWAP2 SWAP1 PUSH2 0x1B74 JUMP JUMPDEST PUSH2 0x945 JUMP JUMPDEST STOP JUMPDEST PUSH2 0x240 PUSH1 0x4 DUP1 CALLDATASIZE SUB DUP2 ADD SWAP1 PUSH2 0x23B SWAP2 SWAP1 PUSH2 0x1B74 JUMP JUMPDEST PUSH2 0x967 JUMP JUMPDEST STOP JUMPDEST PUSH2 0x25C PUSH1 0x4 DUP1 CALLDATASIZE SUB DUP2 ADD SWAP1 PUSH2 0x257 SWAP2 SWAP1 PUSH2 0x170E JUMP JUMPDEST PUSH2 0x9E2 JUMP JUMPDEST PUSH1 0x40 MLOAD PUSH2 0x269 SWAP2 SWAP1 PUSH2 0x1BB2 JUMP JUMPDEST PUSH1 0x40 MLOAD DUP1 SWAP2 SUB SWAP1 RETURN JUMPDEST PUSH2 0x27A PUSH2 0x9F3 JUMP JUMPDEST STOP JUMPDEST PUSH2 0x284 PUSH2 0xBB4 JUMP JUMPDEST PUSH1 0x40 MLOAD PUSH2 0x291 SWAP2 SWAP1 PUSH2 0x1BB2 JUMP JUMPDEST PUSH1 0x40 MLOAD DUP1 SWAP2 SUB SWAP1 RETURN JUMPDEST PUSH2 0x2A2 PUSH2 0xBBB JUMP JUMPDEST STOP JUMPDEST PUSH2 0x2BE PUSH1 0x4 DUP1 CALLDATASIZE SUB DUP2 ADD SWAP1 PUSH2 0x2B9 SWAP2 SWAP1 PUSH2 0x170E JUMP JUMPDEST PUSH2 0xBCE JUMP JUMPDEST PUSH1 0x40 MLOAD PUSH2 0x2CB SWAP2 SWAP1 PUSH2 0x1BB2 JUMP JUMPDEST PUSH1 0x40 MLOAD DUP1 SWAP2 SUB SWAP1 RETURN JUMPDEST PUSH2 0x2DC PUSH2 0xBDF JUMP JUMPDEST PUSH1 0x40 MLOAD PUSH2 0x2E9 SWAP2 SWAP1 PUSH2 0x1BDA JUMP JUMPDEST PUSH1 0x40 MLOAD DUP1 SWAP2 SUB SWAP1 RETURN JUMPDEST PUSH2 0x30C PUSH1 0x4 DUP1 CALLDATASIZE SUB DUP2 ADD SWAP1 PUSH2 0x307 SWAP2 SWAP1 PUSH2 0x1B74 JUMP JUMPDEST PUSH2 0xC06 JUMP JUMPDEST PUSH1 0x40 MLOAD PUSH2 0x319 SWAP2 SWAP1 PUSH2 0x169B JUMP JUMPDEST PUSH1 0x40 MLOAD DUP1 SWAP2 SUB SWAP1 RETURN JUMPDEST PUSH2 0x32A PUSH2 0xC6A JUMP JUMPDEST PUSH1 0x40 MLOAD PUSH2 0x337 SWAP2 SWAP1 PUSH2 0x180F JUMP JUMPDEST PUSH1 0x40 MLOAD DUP1 SWAP2 SUB SWAP1 RETURN JUMPDEST PUSH2 0x348 PUSH2 0xC70 JUMP JUMPDEST PUSH1 0x40 MLOAD PUSH2 0x355 SWAP2 SWAP1 PUSH2 0x1BB2 JUMP JUMPDEST PUSH1 0x40 MLOAD DUP1 SWAP2 SUB SWAP1 RETURN JUMPDEST PUSH2 0x378 PUSH1 0x4 DUP1 CALLDATASIZE SUB DUP2 ADD SWAP1 PUSH2 0x373 SWAP2 SWAP1 PUSH2 0x170E JUMP JUMPDEST PUSH2 0xC77 JUMP JUMPDEST PUSH1 0x40 MLOAD PUSH2 0x389 SWAP6 SWAP5 SWAP4 SWAP3 SWAP2 SWAP1 PUSH2 0x1C02 JUMP JUMPDEST PUSH1 0x40 MLOAD DUP1 SWAP2 SUB SWAP1 RETURN JUMPDEST PUSH2 0x39A PUSH2 0xCE7 JUMP JUMPDEST PUSH1 0x40 MLOAD PUSH2 0x3A7 SWAP2 SWAP1 PUSH2 0x1BB2 JUMP JUMPDEST PUSH1 0x40 MLOAD DUP1 SWAP2 SUB SWAP1 RETURN JUMPDEST PUSH2 0x3CA PUSH1 0x4 DUP1 CALLDATASIZE SUB DUP2 ADD SWAP1 PUSH2 0x3C5 SWAP2 SWAP1 PUSH2 0x170E JUMP JUMPDEST PUSH2 0xCEE JUMP JUMPDEST PUSH1 0x40 MLOAD PUSH2 0x3D7 SWAP2 SWAP1 PUSH2 0x1BB2 JUMP JUMPDEST PUSH1 0x40 MLOAD DUP1 SWAP2 SUB SWAP1 RETURN JUMPDEST PUSH2 0x3E8 PUSH2 0xD37 JUMP JUMPDEST PUSH1 0x40 MLOAD PUSH2 0x3F5 SWAP2 SWAP1 PUSH2 0x1BB2 JUMP JUMPDEST PUSH1 0x40 MLOAD DUP1 SWAP2 SUB SWAP1 RETURN JUMPDEST PUSH2 0x418 PUSH1 0x4 DUP1 CALLDATASIZE SUB DUP2 ADD SWAP1 PUSH2 0x413 SWAP2 SWAP1 PUSH2 0x1B74 JUMP JUMPDEST PUSH2 0xD3D JUMP JUMPDEST STOP JUMPDEST PUSH2 0x422 PUSH2 0xD5F JUMP JUMPDEST PUSH1 0x40 MLOAD PUSH2 0x42F SWAP2 SWAP1 PUSH2 0x1BB2 JUMP JUMPDEST PUSH1 0x40 MLOAD DUP1 SWAP2 SUB SWAP1 RETURN JUMPDEST PUSH2 0x452 PUSH1 0x4 DUP1 CALLDATASIZE SUB DUP2 ADD SWAP1 PUSH2 0x44D SWAP2 SWAP1 PUSH2 0x170E JUMP JUMPDEST PUSH2 0xD66 JUMP JUMPDEST STOP JUMPDEST PUSH2 0x46E PUSH1 0x4 DUP1 CALLDATASIZE SUB DUP2 ADD SWAP1 PUSH2 0x469 SWAP2 SWAP1 PUSH2 0x1C7D JUMP JUMPDEST PUSH2 0xDEA JUMP JUMPDEST STOP JUMPDEST PUSH2 0x478 PUSH2 0xE40 JUMP JUMPDEST PUSH1 0x40 MLOAD PUSH2 0x485 SWAP2 SWAP1 PUSH2 0x1D03 JUMP JUMPDEST PUSH1 0x40 MLOAD DUP1 SWAP2 SUB SWAP1 RETURN JUMPDEST PUSH0 PUSH32 0x7965DB0B00000000000000000000000000000000000000000000000000000000 PUSH28 0xFFFFFFFFFFFFFFFFFFFFFFFFFFFFFFFFFFFFFFFFFFFFFFFFFFFFFFFF NOT AND DUP3 PUSH28 0xFFFFFFFFFFFFFFFFFFFFFFFFFFFFFFFFFFFFFFFFFFFFFFFFFFFFFFFF NOT AND EQ DUP1 PUSH2 0x500 JUMPI POP PUSH2 0x4FF DUP3 PUSH2 0xE65 JUMP JUMPDEST JUMPDEST SWAP1 POP SWAP2 SWAP1 POP JUMP JUMPDEST PUSH0 DUP1 PUSH0 DUP1 PUSH0 DUP1 PUSH1 0x5 PUSH0 DUP9 PUSH20 0xFFFFFFFFFFFFFFFFFFFFFFFFFFFFFFFFFFFFFFFF AND PUSH20 0xFFFFFFFFFFFFFFFFFFFFFFFFFFFFFFFFFFFFFFFF AND DUP2 MSTORE PUSH1 0x20 ADD SWAP1 DUP2 MSTORE PUSH1 0x20 ADD PUSH0 KECCAK256 PUSH1 0x40 MLOAD DUP1 PUSH1 0xA0 ADD PUSH1 0x40 MSTORE SWAP1 DUP2 PUSH0 DUP3 ADD PUSH0 SWAP1 SLOAD SWAP1 PUSH2 0x100 EXP SWAP1 DIV PUSH4 0xFFFFFFFF AND PUSH4 0xFFFFFFFF AND PUSH4 0xFFFFFFFF AND DUP2 MSTORE PUSH1 0x20 ADD PUSH1 0x1 DUP3 ADD SLOAD DUP2 MSTORE PUSH1 0x20 ADD PUSH1 0x2 DUP3 ADD PUSH0 SWAP1 SLOAD SWAP1 PUSH2 0x100 EXP SWAP1 DIV PUSH4 0xFFFFFFFF AND PUSH4 0xFFFFFFFF AND PUSH4 0xFFFFFFFF AND DUP2 MSTORE PUSH1 0x20 ADD PUSH1 0x2 DUP3 ADD PUSH1 0x4 SWAP1 SLOAD SWAP1 PUSH2 0x100 EXP SWAP1 DIV PUSH4 0xFFFFFFFF AND PUSH4 0xFFFFFFFF AND PUSH4 0xFFFFFFFF AND DUP2 MSTORE PUSH1 0x20 ADD PUSH1 0x2 DUP3 ADD PUSH1 0x8 SWAP1 SLOAD SWAP1 PUSH2 0x100 EXP SWAP1 DIV PUSH4 0xFFFFFFFF AND PUSH4 0xFFFFFFFF AND PUSH4 0xFFFFFFFF AND DUP2 MSTORE POP POP SWAP1 POP PUSH8 0xDE0B6B3A7640000 DUP2 PUSH0 ADD MLOAD PUSH4 0xFFFFFFFF AND PUSH2 0x613 SWAP2 SWAP1 PUSH2 0x1D5C JUMP JUMPDEST DUP2 PUSH1 0x20 ADD MLOAD PUSH8 0xDE0B6B3A7640000 DUP4 PUSH1 0x40 ADD MLOAD PUSH4 0xFFFFFFFF AND PUSH2 0x636 SWAP2 SWAP1 PUSH2 0x1D5C JUMP JUMPDEST PUSH8 0xDE0B6B3A7640000 DUP5 PUSH1 0x60 ADD MLOAD PUSH4 0xFFFFFFFF AND PUSH2 0x654 SWAP2 SWAP1 PUSH2 0x1D5C JUMP JUMPDEST PUSH8 0xDE0B6B3A7640000 DUP6 PUSH1 0x80 ADD MLOAD PUSH4 0xFFFFFFFF AND PUSH2 0x672 SWAP2 SWAP1 PUSH2 0x1D5C JUMP JUMPDEST DUP5 PUSH8 0xFFFFFFFFFFFFFFFF AND SWAP5 POP DUP3 PUSH8 0xFFFFFFFFFFFFFFFF AND SWAP3 POP DUP2 PUSH8 0xFFFFFFFFFFFFFFFF AND SWAP2 POP DUP1 PUSH8 0xFFFFFFFFFFFFFFFF AND SWAP1 POP SWAP6 POP SWAP6 POP SWAP6 POP SWAP6 POP SWAP6 POP POP SWAP2 SWAP4 SWAP6 SWAP1 SWAP3 SWAP5 POP JUMP JUMPDEST PUSH0 PUSH1 0x1 PUSH0 DUP4 DUP2 MSTORE PUSH1 0x20 ADD SWAP1 DUP2 MSTORE PUSH1 0x20 ADD PUSH0 KECCAK256 PUSH1 0x1 ADD SLOAD SWAP1 POP SWAP2 SWAP1 POP JUMP JUMPDEST PUSH2 0x6DF PUSH2 0xECE JUMP JUMPDEST PUSH0 JUMPDEST DUP6 MLOAD DUP2 PUSH1 0xFF AND LT ISZERO PUSH2 0x93D JUMPI PUSH0 DUP4 DUP3 PUSH1 0xFF AND DUP2 MLOAD DUP2 LT PUSH2 0x704 JUMPI PUSH2 0x703 PUSH2 0x1D98 JUMP JUMPDEST JUMPDEST PUSH1 0x20 MUL PUSH1 0x20 ADD ADD MLOAD DUP6 DUP4 PUSH1 0xFF AND DUP2 MLOAD DUP2 LT PUSH2 0x722 JUMPI PUSH2 0x721 PUSH2 0x1D98 JUMP JUMPDEST JUMPDEST PUSH1 0x20 MUL PUSH1 0x20 ADD ADD MLOAD DUP8 DUP5 PUSH1 0xFF AND DUP2 MLOAD DUP2 LT PUSH2 0x740 JUMPI PUSH2 0x73F PUSH2 0x1D98 JUMP JUMPDEST JUMPDEST PUSH1 0x20 MUL PUSH1 0x20 ADD ADD MLOAD PUSH2 0x752 SWAP2 SWAP1 PUSH2 0x1DC5 JUMP JUMPDEST PUSH2 0x75C SWAP2 SWAP1 PUSH2 0x1DC5 JUMP JUMPDEST SWAP1 POP PUSH1 0x40 MLOAD DUP1 PUSH1 0xA0 ADD PUSH1 0x40 MSTORE DUP1 DUP3 PUSH4 0xFFFFFFFF AND DUP2 MSTORE PUSH1 0x20 ADD PUSH8 0xDE0B6B3A7640000 DUP6 DUP6 PUSH1 0xFF AND DUP2 MLOAD DUP2 LT PUSH2 0x794 JUMPI PUSH2 0x793 PUSH2 0x1D98 JUMP JUMPDEST JUMPDEST PUSH1 0x20 MUL PUSH1 0x20 ADD ADD MLOAD PUSH4 0xFFFFFFFF AND PUSH2 0x7AC SWAP2 SWAP1 PUSH2 0x1DFC JUMP JUMPDEST DUP2 MSTORE PUSH1 0x20 ADD DUP8 DUP5 PUSH1 0xFF AND DUP2 MLOAD DUP2 LT PUSH2 0x7C7 JUMPI PUSH2 0x7C6 PUSH2 0x1D98 JUMP JUMPDEST JUMPDEST PUSH1 0x20 MUL PUSH1 0x20 ADD ADD MLOAD PUSH4 0xFFFFFFFF AND DUP2 MSTORE PUSH1 0x20 ADD DUP7 DUP5 PUSH1 0xFF AND DUP2 MLOAD DUP2 LT PUSH2 0x7F0 JUMPI PUSH2 0x7EF PUSH2 0x1D98 JUMP JUMPDEST JUMPDEST PUSH1 0x20 MUL PUSH1 0x20 ADD ADD MLOAD PUSH4 0xFFFFFFFF AND DUP2 MSTORE PUSH1 0x20 ADD DUP6 DUP5 PUSH1 0xFF AND DUP2 MLOAD DUP2 LT PUSH2 0x819 JUMPI PUSH2 0x818 PUSH2 0x1D98 JUMP JUMPDEST JUMPDEST PUSH1 0x20 MUL PUSH1 0x20 ADD ADD MLOAD PUSH4 0xFFFFFFFF AND DUP2 MSTORE POP PUSH1 0x5 PUSH0 DUP10 DUP6 PUSH1 0xFF AND DUP2 MLOAD DUP2 LT PUSH2 0x843 JUMPI PUSH2 0x842 PUSH2 0x1D98 JUMP JUMPDEST JUMPDEST PUSH1 0x20 MUL PUSH1 0x20 ADD ADD MLOAD PUSH20 0xFFFFFFFFFFFFFFFFFFFFFFFFFFFFFFFFFFFFFFFF AND PUSH20 0xFFFFFFFFFFFFFFFFFFFFFFFFFFFFFFFFFFFFFFFF AND DUP2 MSTORE PUSH1 0x20 ADD SWAP1 DUP2 MSTORE PUSH1 0x20 ADD PUSH0 KECCAK256 PUSH0 DUP3 ADD MLOAD DUP2 PUSH0 ADD PUSH0 PUSH2 0x100 EXP DUP2 SLOAD DUP2 PUSH4 0xFFFFFFFF MUL NOT AND SWAP1 DUP4 PUSH4 0xFFFFFFFF AND MUL OR SWAP1 SSTORE POP PUSH1 0x20 DUP3 ADD MLOAD DUP2 PUSH1 0x1 ADD SSTORE PUSH1 0x40 DUP3 ADD MLOAD DUP2 PUSH1 0x2 ADD PUSH0 PUSH2 0x100 EXP DUP2 SLOAD DUP2 PUSH4 0xFFFFFFFF MUL NOT AND SWAP1 DUP4 PUSH4 0xFFFFFFFF AND MUL OR SWAP1 SSTORE POP PUSH1 0x60 DUP3 ADD MLOAD DUP2 PUSH1 0x2 ADD PUSH1 0x4 PUSH2 0x100 EXP DUP2 SLOAD DUP2 PUSH4 0xFFFFFFFF MUL NOT AND SWAP1 DUP4 PUSH4 0xFFFFFFFF AND MUL OR SWAP1 SSTORE POP PUSH1 0x80 DUP3 ADD MLOAD DUP2 PUSH1 0x2 ADD PUSH1 0x8 PUSH2 0x100 EXP DUP2 SLOAD DUP2 PUSH4 0xFFFFFFFF MUL NOT AND SWAP1 DUP4 PUSH4 0xFFFFFFFF AND MUL OR SWAP1 SSTORE POP SWAP1 POP POP POP DUP1 DUP1 PUSH2 0x935 SWAP1 PUSH2 0x1E49 JUMP JUMPDEST SWAP2 POP POP PUSH2 0x6E1 JUMP JUMPDEST POP POP POP POP POP POP JUMP JUMPDEST PUSH2 0x94E DUP3 PUSH2 0x6BA JUMP JUMPDEST PUSH2 0x957 DUP2 PUSH2 0xF55 JUMP JUMPDEST PUSH2 0x961 DUP4 DUP4 PUSH2 0xF69 JUMP JUMPDEST POP POP POP POP JUMP JUMPDEST PUSH2 0x96F PUSH2 0x1052 JUMP JUMPDEST PUSH20 0xFFFFFFFFFFFFFFFFFFFFFFFFFFFFFFFFFFFFFFFF AND DUP2 PUSH20 0xFFFFFFFFFFFFFFFFFFFFFFFFFFFFFFFFFFFFFFFF AND EQ PUSH2 0x9D3 JUMPI PUSH1 0x40 MLOAD PUSH32 0x6697B23200000000000000000000000000000000000000000000000000000000 DUP2 MSTORE PUSH1 0x4 ADD PUSH1 0x40 MLOAD DUP1 SWAP2 SUB SWAP1 REVERT JUMPDEST PUSH2 0x9DD DUP3 DUP3 PUSH2 0x1059 JUMP JUMPDEST POP POP POP JUMP JUMPDEST PUSH0 PUSH2 0x9EC DUP3 PUSH2 0x1143 JUMP JUMPDEST SWAP1 POP SWAP2 SWAP1 POP JUMP JUMPDEST PUSH2 0x9FB PUSH2 0x1411 JUMP JUMPDEST PUSH1 0x4 SLOAD TIMESTAMP LT ISZERO PUSH2 0xA40 JUMPI PUSH1 0x40 MLOAD PUSH32 0x8C379A000000000000000000000000000000000000000000000000000000000 DUP2 MSTORE PUSH1 0x4 ADD PUSH2 0xA37 SWAP1 PUSH2 0x1EF1 JUMP JUMPDEST PUSH1 0x40 MLOAD DUP1 SWAP2 SUB SWAP1 REVERT JUMPDEST PUSH0 PUSH2 0xA4A CALLER PUSH2 0x145E JUMP JUMPDEST SWAP1 POP PUSH0 DUP2 GT PUSH2 0xA8E JUMPI PUSH1 0x40 MLOAD PUSH32 0x8C379A000000000000000000000000000000000000000000000000000000000 DUP2 MSTORE PUSH1 0x4 ADD PUSH2 0xA85 SWAP1 PUSH2 0x1F7F JUMP JUMPDEST PUSH1 0x40 MLOAD DUP1 SWAP2 SUB SWAP1 REVERT JUMPDEST PUSH0 PUSH1 0x5 PUSH0 CALLER PUSH20 0xFFFFFFFFFFFFFFFFFFFFFFFFFFFFFFFFFFFFFFFF AND PUSH20 0xFFFFFFFFFFFFFFFFFFFFFFFFFFFFFFFFFFFFFFFF AND DUP2 MSTORE PUSH1 0x20 ADD SWAP1 DUP2 MSTORE PUSH1 0x20 ADD PUSH0 KECCAK256 SWAP1 POP DUP2 DUP2 PUSH1 0x1 ADD SLOAD PUSH2 0xADE SWAP2 SWAP1 PUSH2 0x1F9D JUMP JUMPDEST DUP2 PUSH1 0x1 ADD DUP2 SWAP1 SSTORE POP PUSH1 0x3 PUSH0 SWAP1 SLOAD SWAP1 PUSH2 0x100 EXP SWAP1 DIV PUSH20 0xFFFFFFFFFFFFFFFFFFFFFFFFFFFFFFFFFFFFFFFF AND PUSH20 0xFFFFFFFFFFFFFFFFFFFFFFFFFFFFFFFFFFFFFFFF AND PUSH4 0x40C10F19 CALLER DUP5 PUSH1 0x40 MLOAD DUP4 PUSH4 0xFFFFFFFF AND PUSH1 0xE0 SHL DUP2 MSTORE PUSH1 0x4 ADD PUSH2 0xB42 SWAP3 SWAP2 SWAP1 PUSH2 0x1FD0 JUMP JUMPDEST PUSH0 PUSH1 0x40 MLOAD DUP1 DUP4 SUB DUP2 PUSH0 DUP8 DUP1 EXTCODESIZE ISZERO DUP1 ISZERO PUSH2 0xB59 JUMPI PUSH0 DUP1 REVERT JUMPDEST POP GAS CALL ISZERO DUP1 ISZERO PUSH2 0xB6B JUMPI RETURNDATASIZE PUSH0 DUP1 RETURNDATACOPY RETURNDATASIZE PUSH0 REVERT JUMPDEST POP POP POP POP PUSH32 0x4D7F917F6B905F28BA5297E6C224A6CFEC20AC6A3698A55B412D30B95AD25D2F CALLER DUP4 PUSH1 0x40 MLOAD PUSH2 0xBA0 SWAP3 SWAP2 SWAP1 PUSH2 0x1FD0 JUMP JUMPDEST PUSH1 0x40 MLOAD DUP1 SWAP2 SUB SWAP1 LOG1 POP POP PUSH2 0xBB2 PUSH2 0x14D4 JUMP JUMPDEST JUMP JUMPDEST PUSH3 0x41EB00 DUP2 JUMP JUMPDEST PUSH2 0xBC3 PUSH2 0xECE JUMP JUMPDEST PUSH2 0xBCC PUSH0 PUSH2 0x14DE JUMP JUMPDEST JUMP JUMPDEST PUSH0 PUSH2 0xBD8 DUP3 PUSH2 0x145E JUMP JUMPDEST SWAP1 POP SWAP2 SWAP1 POP JUMP JUMPDEST PUSH0 DUP1 PUSH0 SWAP1 SLOAD SWAP1 PUSH2 0x100 EXP SWAP1 DIV PUSH20 0xFFFFFFFFFFFFFFFFFFFFFFFFFFFFFFFFFFFFFFFF AND SWAP1 POP SWAP1 JUMP JUMPDEST PUSH0 PUSH1 0x1 PUSH0 DUP5 DUP2 MSTORE PUSH1 0x20 ADD SWAP1 DUP2 MSTORE PUSH1 0x20 ADD PUSH0 KECCAK256 PUSH0 ADD PUSH0 DUP4 PUSH20 0xFFFFFFFFFFFFFFFFFFFFFFFFFFFFFFFFFFFFFFFF AND PUSH20 0xFFFFFFFFFFFFFFFFFFFFFFFFFFFFFFFFFFFFFFFF AND DUP2 MSTORE PUSH1 0x20 ADD SWAP1 DUP2 MSTORE PUSH1 0x20 ADD PUSH0 KECCAK256 PUSH0 SWAP1 SLOAD SWAP1 PUSH2 0x100 EXP SWAP1 DIV PUSH1 0xFF AND SWAP1 POP SWAP3 SWAP2 POP POP JUMP JUMPDEST PUSH0 DUP1 SHL DUP2 JUMP JUMPDEST PUSH3 0x2A300 DUP2 JUMP JUMPDEST PUSH1 0x5 PUSH1 0x20 MSTORE DUP1 PUSH0 MSTORE PUSH1 0x40 PUSH0 KECCAK256 PUSH0 SWAP2 POP SWAP1 POP DUP1 PUSH0 ADD PUSH0 SWAP1 SLOAD SWAP1 PUSH2 0x100 EXP SWAP1 DIV PUSH4 0xFFFFFFFF AND SWAP1 DUP1 PUSH1 0x1 ADD SLOAD SWAP1 DUP1 PUSH1 0x2 ADD PUSH0 SWAP1 SLOAD SWAP1 PUSH2 0x100 EXP SWAP1 DIV PUSH4 0xFFFFFFFF AND SWAP1 DUP1 PUSH1 0x2 ADD PUSH1 0x4 SWAP1 SLOAD SWAP1 PUSH2 0x100 EXP SWAP1 DIV PUSH4 0xFFFFFFFF AND SWAP1 DUP1 PUSH1 0x2 ADD PUSH1 0x8 SWAP1 SLOAD SWAP1 PUSH2 0x100 EXP SWAP1 DIV PUSH4 0xFFFFFFFF AND SWAP1 POP DUP6 JUMP JUMPDEST PUSH3 0x1A5E00 DUP2 JUMP JUMPDEST PUSH0 PUSH1 0x5 PUSH0 DUP4 PUSH20 0xFFFFFFFFFFFFFFFFFFFFFFFFFFFFFFFFFFFFFFFF AND PUSH20 0xFFFFFFFFFFFFFFFFFFFFFFFFFFFFFFFFFFFFFFFF AND DUP2 MSTORE PUSH1 0x20 ADD SWAP1 DUP2 MSTORE PUSH1 0x20 ADD PUSH0 KECCAK256 PUSH1 0x1 ADD SLOAD SWAP1 POP SWAP2 SWAP1 POP JUMP JUMPDEST PUSH1 0x4 SLOAD DUP2 JUMP JUMPDEST PUSH2 0xD46 DUP3 PUSH2 0x6BA JUMP JUMPDEST PUSH2 0xD4F DUP2 PUSH2 0xF55 JUMP JUMPDEST PUSH2 0xD59 DUP4 DUP4 PUSH2 0x1059 JUMP JUMPDEST POP POP POP POP JUMP JUMPDEST PUSH3 0x278D00 DUP2 JUMP JUMPDEST PUSH2 0xD6E PUSH2 0xECE JUMP JUMPDEST PUSH0 PUSH20 0xFFFFFFFFFFFFFFFFFFFFFFFFFFFFFFFFFFFFFFFF AND DUP2 PUSH20 0xFFFFFFFFFFFFFFFFFFFFFFFFFFFFFFFFFFFFFFFF AND SUB PUSH2 0xDDE JUMPI PUSH0 PUSH1 0x40 MLOAD PUSH32 0x1E4FBDF700000000000000000000000000000000000000000000000000000000 DUP2 MSTORE PUSH1 0x4 ADD PUSH2 0xDD5 SWAP2 SWAP1 PUSH2 0x1BDA JUMP JUMPDEST PUSH1 0x40 MLOAD DUP1 SWAP2 SUB SWAP1 REVERT JUMPDEST PUSH2 0xDE7 DUP2 PUSH2 0x14DE JUMP JUMPDEST POP JUMP JUMPDEST PUSH2 0xDF2 PUSH2 0xECE JUMP JUMPDEST TIMESTAMP PUSH1 0x4 SLOAD LT PUSH2 0xE36 JUMPI PUSH1 0x40 MLOAD PUSH32 0x8C379A000000000000000000000000000000000000000000000000000000000 DUP2 MSTORE PUSH1 0x4 ADD PUSH2 0xE2D SWAP1 PUSH2 0x2067 JUMP JUMPDEST PUSH1 0x40 MLOAD DUP1 SWAP2 SUB SWAP1 REVERT JUMPDEST DUP1 PUSH1 0x4 DUP2 SWAP1 SSTORE POP POP JUMP JUMPDEST PUSH1 0x3 PUSH0 SWAP1 SLOAD SWAP1 PUSH2 0x100 EXP SWAP1 DIV PUSH20 0xFFFFFFFFFFFFFFFFFFFFFFFFFFFFFFFFFFFFFFFF AND DUP2 JUMP JUMPDEST PUSH0 PUSH32 0x1FFC9A700000000000000000000000000000000000000000000000000000000 PUSH28 0xFFFFFFFFFFFFFFFFFFFFFFFFFFFFFFFFFFFFFFFFFFFFFFFFFFFFFFFF NOT AND DUP3 PUSH28 0xFFFFFFFFFFFFFFFFFFFFFFFFFFFFFFFFFFFFFFFFFFFFFFFFFFFFFFFF NOT AND EQ SWAP1 POP SWAP2 SWAP1 POP JUMP JUMPDEST PUSH2 0xED6 PUSH2 0x1052 JUMP JUMPDEST PUSH20 0xFFFFFFFFFFFFFFFFFFFFFFFFFFFFFFFFFFFFFFFF AND PUSH2 0xEF4 PUSH2 0xBDF JUMP JUMPDEST PUSH20 0xFFFFFFFFFFFFFFFFFFFFFFFFFFFFFFFFFFFFFFFF AND EQ PUSH2 0xF53 JUMPI PUSH2 0xF17 PUSH2 0x1052 JUMP JUMPDEST PUSH1 0x40 MLOAD PUSH32 0x118CDAA700000000000000000000000000000000000000000000000000000000 DUP2 MSTORE PUSH1 0x4 ADD PUSH2 0xF4A SWAP2 SWAP1 PUSH2 0x1BDA JUMP JUMPDEST PUSH1 0x40 MLOAD DUP1 SWAP2 SUB SWAP1 REVERT JUMPDEST JUMP JUMPDEST PUSH2 0xF66 DUP2 PUSH2 0xF61 PUSH2 0x1052 JUMP JUMPDEST PUSH2 0x159F JUMP JUMPDEST POP JUMP JUMPDEST PUSH0 PUSH2 0xF74 DUP4 DUP4 PUSH2 0xC06 JUMP JUMPDEST PUSH2 0x1048 JUMPI PUSH1 0x1 DUP1 PUSH0 DUP6 DUP2 MSTORE PUSH1 0x20 ADD SWAP1 DUP2 MSTORE PUSH1 0x20 ADD PUSH0 KECCAK256 PUSH0 ADD PUSH0 DUP5 PUSH20 0xFFFFFFFFFFFFFFFFFFFFFFFFFFFFFFFFFFFFFFFF AND PUSH20 0xFFFFFFFFFFFFFFFFFFFFFFFFFFFFFFFFFFFFFFFF AND DUP2 MSTORE PUSH1 0x20 ADD SWAP1 DUP2 MSTORE PUSH1 0x20 ADD PUSH0 KECCAK256 PUSH0 PUSH2 0x100 EXP DUP2 SLOAD DUP2 PUSH1 0xFF MUL NOT AND SWAP1 DUP4 ISZERO ISZERO MUL OR SWAP1 SSTORE POP PUSH2 0xFE5 PUSH2 0x1052 JUMP JUMPDEST PUSH20 0xFFFFFFFFFFFFFFFFFFFFFFFFFFFFFFFFFFFFFFFF AND DUP3 PUSH20 0xFFFFFFFFFFFFFFFFFFFFFFFFFFFFFFFFFFFFFFFF AND DUP5 PUSH32 0x2F8788117E7EFF1D82E926EC794901D17C78024A50270940304540A733656F0D PUSH1 0x40 MLOAD PUSH1 0x40 MLOAD DUP1 SWAP2 SUB SWAP1 LOG4 PUSH1 0x1 SWAP1 POP PUSH2 0x104C JUMP JUMPDEST PUSH0 SWAP1 POP JUMPDEST SWAP3 SWAP2 POP POP JUMP JUMPDEST PUSH0 CALLER SWAP1 POP SWAP1 JUMP JUMPDEST PUSH0 PUSH2 0x1064 DUP4 DUP4 PUSH2 0xC06 JUMP JUMPDEST ISZERO PUSH2 0x1139 JUMPI PUSH0 PUSH1 0x1 PUSH0 DUP6 DUP2 MSTORE PUSH1 0x20 ADD SWAP1 DUP2 MSTORE PUSH1 0x20 ADD PUSH0 KECCAK256 PUSH0 ADD PUSH0 DUP5 PUSH20 0xFFFFFFFFFFFFFFFFFFFFFFFFFFFFFFFFFFFFFFFF AND PUSH20 0xFFFFFFFFFFFFFFFFFFFFFFFFFFFFFFFFFFFFFFFF AND DUP2 MSTORE PUSH1 0x20 ADD SWAP1 DUP2 MSTORE PUSH1 0x20 ADD PUSH0 KECCAK256 PUSH0 PUSH2 0x100 EXP DUP2 SLOAD DUP2 PUSH1 0xFF MUL NOT AND SWAP1 DUP4 ISZERO ISZERO MUL OR SWAP1 SSTORE POP PUSH2 0x10D6 PUSH2 0x1052 JUMP JUMPDEST PUSH20 0xFFFFFFFFFFFFFFFFFFFFFFFFFFFFFFFFFFFFFFFF AND DUP3 PUSH20 0xFFFFFFFFFFFFFFFFFFFFFFFFFFFFFFFFFFFFFFFF AND DUP5 PUSH32 0xF6391F5C32D9C69D2A47EA670B442974B53935D1EDC7FD64EB21E047A839171B PUSH1 0x40 MLOAD PUSH1 0x40 MLOAD DUP1 SWAP2 SUB SWAP1 LOG4 PUSH1 0x1 SWAP1 POP PUSH2 0x113D JUMP JUMPDEST PUSH0 SWAP1 POP JUMPDEST SWAP3 SWAP2 POP POP JUMP JUMPDEST PUSH0 PUSH1 0x4 SLOAD TIMESTAMP GT PUSH2 0x1155 JUMPI PUSH0 SWAP1 POP PUSH2 0x140C JUMP JUMPDEST PUSH0 PUSH1 0x5 PUSH0 DUP5 PUSH20 0xFFFFFFFFFFFFFFFFFFFFFFFFFFFFFFFFFFFFFFFF AND PUSH20 0xFFFFFFFFFFFFFFFFFFFFFFFFFFFFFFFFFFFFFFFF AND DUP2 MSTORE PUSH1 0x20 ADD SWAP1 DUP2 MSTORE PUSH1 0x20 ADD PUSH0 KECCAK256 PUSH1 0x40 MLOAD DUP1 PUSH1 0xA0 ADD PUSH1 0x40 MSTORE SWAP1 DUP2 PUSH0 DUP3 ADD PUSH0 SWAP1 SLOAD SWAP1 PUSH2 0x100 EXP SWAP1 DIV PUSH4 0xFFFFFFFF AND PUSH4 0xFFFFFFFF AND PUSH4 0xFFFFFFFF AND DUP2 MSTORE PUSH1 0x20 ADD PUSH1 0x1 DUP3 ADD SLOAD DUP2 MSTORE PUSH1 0x20 ADD PUSH1 0x2 DUP3 ADD PUSH0 SWAP1 SLOAD SWAP1 PUSH2 0x100 EXP SWAP1 DIV PUSH4 0xFFFFFFFF AND PUSH4 0xFFFFFFFF AND PUSH4 0xFFFFFFFF AND DUP2 MSTORE PUSH1 0x20 ADD PUSH1 0x2 DUP3 ADD PUSH1 0x4 SWAP1 SLOAD SWAP1 PUSH2 0x100 EXP SWAP1 DIV PUSH4 0xFFFFFFFF AND PUSH4 0xFFFFFFFF AND PUSH4 0xFFFFFFFF AND DUP2 MSTORE PUSH1 0x20 ADD PUSH1 0x2 DUP3 ADD PUSH1 0x8 SWAP1 SLOAD SWAP1 PUSH2 0x100 EXP SWAP1 DIV PUSH4 0xFFFFFFFF AND PUSH4 0xFFFFFFFF AND PUSH4 0xFFFFFFFF AND DUP2 MSTORE POP POP SWAP1 POP PUSH0 PUSH1 0x4 SLOAD TIMESTAMP PUSH2 0x124E SWAP2 SWAP1 PUSH2 0x2085 JUMP JUMPDEST SWAP1 POP PUSH3 0x41EB00 DUP2 LT PUSH2 0x128A JUMPI PUSH8 0xDE0B6B3A7640000 DUP3 PUSH1 0x40 ADD MLOAD PUSH4 0xFFFFFFFF AND PUSH2 0x1278 SWAP2 SWAP1 PUSH2 0x1DFC JUMP JUMPDEST DUP4 PUSH2 0x1283 SWAP2 SWAP1 PUSH2 0x1F9D JUMP JUMPDEST SWAP3 POP PUSH2 0x12CF JUMP JUMPDEST PUSH3 0x41EB00 PUSH8 0xDE0B6B3A7640000 DUP3 DUP5 PUSH1 0x40 ADD MLOAD PUSH4 0xFFFFFFFF AND PUSH2 0x12AD SWAP2 SWAP1 PUSH2 0x1DFC JUMP JUMPDEST PUSH2 0x12B7 SWAP2 SWAP1 PUSH2 0x1DFC JUMP JUMPDEST PUSH2 0x12C1 SWAP2 SWAP1 PUSH2 0x20E5 JUMP JUMPDEST DUP4 PUSH2 0x12CC SWAP2 SWAP1 PUSH2 0x1F9D JUMP JUMPDEST SWAP3 POP JUMPDEST PUSH3 0x278D00 DUP2 LT PUSH2 0x1309 JUMPI PUSH8 0xDE0B6B3A7640000 DUP3 PUSH1 0x60 ADD MLOAD PUSH4 0xFFFFFFFF AND PUSH2 0x12F7 SWAP2 SWAP1 PUSH2 0x1DFC JUMP JUMPDEST DUP4 PUSH2 0x1302 SWAP2 SWAP1 PUSH2 0x1F9D JUMP JUMPDEST SWAP3 POP PUSH2 0x134E JUMP JUMPDEST PUSH3 0x278D00 PUSH8 0xDE0B6B3A7640000 DUP3 DUP5 PUSH1 0x60 ADD MLOAD PUSH4 0xFFFFFFFF AND PUSH2 0x132C SWAP2 SWAP1 PUSH2 0x1DFC JUMP JUMPDEST PUSH2 0x1336 SWAP2 SWAP1 PUSH2 0x1DFC JUMP JUMPDEST PUSH2 0x1340 SWAP2 SWAP1 PUSH2 0x20E5 JUMP JUMPDEST DUP4 PUSH2 0x134B SWAP2 SWAP1 PUSH2 0x1F9D JUMP JUMPDEST SWAP3 POP JUMPDEST PUSH3 0x1A5E00 DUP2 LT PUSH2 0x1388 JUMPI PUSH8 0xDE0B6B3A7640000 DUP3 PUSH1 0x80 ADD MLOAD PUSH4 0xFFFFFFFF AND PUSH2 0x1376 SWAP2 SWAP1 PUSH2 0x1DFC JUMP JUMPDEST DUP4 PUSH2 0x1381 SWAP2 SWAP1 PUSH2 0x1F9D JUMP JUMPDEST SWAP3 POP PUSH2 0x1409 JUMP JUMPDEST PUSH3 0x2A300 DUP2 LT ISZERO PUSH2 0x13C3 JUMPI PUSH8 0x16345785D8A0000 DUP3 PUSH1 0x80 ADD MLOAD PUSH4 0xFFFFFFFF AND PUSH2 0x13B1 SWAP2 SWAP1 PUSH2 0x1DFC JUMP JUMPDEST DUP4 PUSH2 0x13BC SWAP2 SWAP1 PUSH2 0x1F9D JUMP JUMPDEST SWAP3 POP PUSH2 0x1408 JUMP JUMPDEST PUSH3 0x1A5E00 PUSH8 0xDE0B6B3A7640000 DUP3 DUP5 PUSH1 0x80 ADD MLOAD PUSH4 0xFFFFFFFF AND PUSH2 0x13E6 SWAP2 SWAP1 PUSH2 0x1DFC JUMP JUMPDEST PUSH2 0x13F0 SWAP2 SWAP1 PUSH2 0x1DFC JUMP JUMPDEST PUSH2 0x13FA SWAP2 SWAP1 PUSH2 0x20E5 JUMP JUMPDEST DUP4 PUSH2 0x1405 SWAP2 SWAP1 PUSH2 0x1F9D JUMP JUMPDEST SWAP3 POP JUMPDEST JUMPDEST POP POP JUMPDEST SWAP2 SWAP1 POP JUMP JUMPDEST PUSH1 0x2 DUP1 SLOAD SUB PUSH2 0x1455 JUMPI PUSH1 0x40 MLOAD PUSH32 0x8C379A000000000000000000000000000000000000000000000000000000000 DUP2 MSTORE PUSH1 0x4 ADD PUSH2 0x144C SWAP1 PUSH2 0x215F JUMP JUMPDEST PUSH1 0x40 MLOAD DUP1 SWAP2 SUB SWAP1 REVERT JUMPDEST PUSH1 0x2 DUP1 DUP2 SWAP1 SSTORE POP JUMP JUMPDEST PUSH0 DUP1 PUSH2 0x1469 DUP4 PUSH2 0x1143 JUMP JUMPDEST SWAP1 POP PUSH0 PUSH1 0x5 PUSH0 DUP6 PUSH20 0xFFFFFFFFFFFFFFFFFFFFFFFFFFFFFFFFFFFFFFFF AND PUSH20 0xFFFFFFFFFFFFFFFFFFFFFFFFFFFFFFFFFFFFFFFF AND DUP2 MSTORE PUSH1 0x20 ADD SWAP1 DUP2 MSTORE PUSH1 0x20 ADD PUSH0 KECCAK256 PUSH1 0x1 ADD SLOAD SWAP1 POP DUP1 DUP3 GT PUSH2 0x14BE JUMPI PUSH0 SWAP3 POP PUSH2 0x14CD JUMP JUMPDEST DUP1 DUP3 PUSH2 0x14CA SWAP2 SWAP1 PUSH2 0x2085 JUMP JUMPDEST SWAP3 POP JUMPDEST POP POP SWAP2 SWAP1 POP JUMP JUMPDEST PUSH1 0x1 PUSH1 0x2 DUP2 SWAP1 SSTORE POP JUMP JUMPDEST PUSH0 DUP1 PUSH0 SWAP1 SLOAD SWAP1 PUSH2 0x100 EXP SWAP1 DIV PUSH20 0xFFFFFFFFFFFFFFFFFFFFFFFFFFFFFFFFFFFFFFFF AND SWAP1 POP DUP2 PUSH0 DUP1 PUSH2 0x100 EXP DUP2 SLOAD DUP2 PUSH20 0xFFFFFFFFFFFFFFFFFFFFFFFFFFFFFFFFFFFFFFFF MUL NOT AND SWAP1 DUP4 PUSH20 0xFFFFFFFFFFFFFFFFFFFFFFFFFFFFFFFFFFFFFFFF AND MUL OR SWAP1 SSTORE POP DUP2 PUSH20 0xFFFFFFFFFFFFFFFFFFFFFFFFFFFFFFFFFFFFFFFF AND DUP2 PUSH20 0xFFFFFFFFFFFFFFFFFFFFFFFFFFFFFFFFFFFFFFFF AND PUSH32 0x8BE0079C531659141344CD1FD0A4F28419497F9722A3DAAFE3B4186F6B6457E0 PUSH1 0x40 MLOAD PUSH1 0x40 MLOAD DUP1 SWAP2 SUB SWAP1 LOG3 POP POP JUMP JUMPDEST PUSH2 0x15A9 DUP3 DUP3 PUSH2 0xC06 JUMP JUMPDEST PUSH2 0x15EC JUMPI DUP1 DUP3 PUSH1 0x40 MLOAD PUSH32 0xE2517D3F00000000000000000000000000000000000000000000000000000000 DUP2 MSTORE PUSH1 0x4 ADD PUSH2 0x15E3 SWAP3 SWAP2 SWAP1 PUSH2 0x217D JUMP JUMPDEST PUSH1 0x40 MLOAD DUP1 SWAP2 SUB SWAP1 REVERT JUMPDEST POP POP JUMP JUMPDEST PUSH0 PUSH1 0x40 MLOAD SWAP1 POP SWAP1 JUMP JUMPDEST PUSH0 DUP1 REVERT JUMPDEST PUSH0 DUP1 REVERT JUMPDEST PUSH0 PUSH32 0xFFFFFFFF00000000000000000000000000000000000000000000000000000000 DUP3 AND SWAP1 POP SWAP2 SWAP1 POP JUMP JUMPDEST PUSH2 0x1635 DUP2 PUSH2 0x1601 JUMP JUMPDEST DUP2 EQ PUSH2 0x163F JUMPI PUSH0 DUP1 REVERT JUMPDEST POP JUMP JUMPDEST PUSH0 DUP2 CALLDATALOAD SWAP1 POP PUSH2 0x1650 DUP2 PUSH2 0x162C JUMP JUMPDEST SWAP3 SWAP2 POP POP JUMP JUMPDEST PUSH0 PUSH1 0x20 DUP3 DUP5 SUB SLT ISZERO PUSH2 0x166B JUMPI PUSH2 0x166A PUSH2 0x15F9 JUMP JUMPDEST JUMPDEST PUSH0 PUSH2 0x1678 DUP5 DUP3 DUP6 ADD PUSH2 0x1642 JUMP JUMPDEST SWAP2 POP POP SWAP3 SWAP2 POP POP JUMP JUMPDEST PUSH0 DUP2 ISZERO ISZERO SWAP1 POP SWAP2 SWAP1 POP JUMP JUMPDEST PUSH2 0x1695 DUP2 PUSH2 0x1681 JUMP JUMPDEST DUP3 MSTORE POP POP JUMP JUMPDEST PUSH0 PUSH1 0x20 DUP3 ADD SWAP1 POP PUSH2 0x16AE PUSH0 DUP4 ADD DUP5 PUSH2 0x168C JUMP JUMPDEST SWAP3 SWAP2 POP POP JUMP JUMPDEST PUSH0 PUSH20 0xFFFFFFFFFFFFFFFFFFFFFFFFFFFFFFFFFFFFFFFF DUP3 AND SWAP1 POP SWAP2 SWAP1 POP JUMP JUMPDEST PUSH0 PUSH2 0x16DD DUP3 PUSH2 0x16B4 JUMP JUMPDEST SWAP1 POP SWAP2 SWAP1 POP JUMP JUMPDEST PUSH2 0x16ED DUP2 PUSH2 0x16D3 JUMP JUMPDEST DUP2 EQ PUSH2 0x16F7 JUMPI PUSH0 DUP1 REVERT JUMPDEST POP JUMP JUMPDEST PUSH0 DUP2 CALLDATALOAD SWAP1 POP PUSH2 0x1708 DUP2 PUSH2 0x16E4 JUMP JUMPDEST SWAP3 SWAP2 POP POP JUMP JUMPDEST PUSH0 PUSH1 0x20 DUP3 DUP5 SUB SLT ISZERO PUSH2 0x1723 JUMPI PUSH2 0x1722 PUSH2 0x15F9 JUMP JUMPDEST JUMPDEST PUSH0 PUSH2 0x1730 DUP5 DUP3 DUP6 ADD PUSH2 0x16FA JUMP JUMPDEST SWAP2 POP POP SWAP3 SWAP2 POP POP JUMP JUMPDEST PUSH0 DUP2 SWAP1 POP SWAP2 SWAP1 POP JUMP JUMPDEST PUSH2 0x174B DUP2 PUSH2 0x1739 JUMP JUMPDEST DUP3 MSTORE POP POP JUMP JUMPDEST PUSH0 PUSH1 0xA0 DUP3 ADD SWAP1 POP PUSH2 0x1764 PUSH0 DUP4 ADD DUP9 PUSH2 0x1742 JUMP JUMPDEST PUSH2 0x1771 PUSH1 0x20 DUP4 ADD DUP8 PUSH2 0x1742 JUMP JUMPDEST PUSH2 0x177E PUSH1 0x40 DUP4 ADD DUP7 PUSH2 0x1742 JUMP JUMPDEST PUSH2 0x178B PUSH1 0x60 DUP4 ADD DUP6 PUSH2 0x1742 JUMP JUMPDEST PUSH2 0x1798 PUSH1 0x80 DUP4 ADD DUP5 PUSH2 0x1742 JUMP JUMPDEST SWAP7 SWAP6 POP POP POP POP POP POP JUMP JUMPDEST PUSH0 DUP2 SWAP1 POP SWAP2 SWAP1 POP JUMP JUMPDEST PUSH2 0x17B4 DUP2 PUSH2 0x17A2 JUMP JUMPDEST DUP2 EQ PUSH2 0x17BE JUMPI PUSH0 DUP1 REVERT JUMPDEST POP JUMP JUMPDEST PUSH0 DUP2 CALLDATALOAD SWAP1 POP PUSH2 0x17CF DUP2 PUSH2 0x17AB JUMP JUMPDEST SWAP3 SWAP2 POP POP JUMP JUMPDEST PUSH0 PUSH1 0x20 DUP3 DUP5 SUB SLT ISZERO PUSH2 0x17EA JUMPI PUSH2 0x17E9 PUSH2 0x15F9 JUMP JUMPDEST JUMPDEST PUSH0 PUSH2 0x17F7 DUP5 DUP3 DUP6 ADD PUSH2 0x17C1 JUMP JUMPDEST SWAP2 POP POP SWAP3 SWAP2 POP POP JUMP JUMPDEST PUSH2 0x1809 DUP2 PUSH2 0x17A2 JUMP JUMPDEST DUP3 MSTORE POP POP JUMP JUMPDEST PUSH0 PUSH1 0x20 DUP3 ADD SWAP1 POP PUSH2 0x1822 PUSH0 DUP4 ADD DUP5 PUSH2 0x1800 JUMP JUMPDEST SWAP3 SWAP2 POP POP JUMP JUMPDEST PUSH0 DUP1 REVERT JUMPDEST PUSH0 PUSH1 0x1F NOT PUSH1 0x1F DUP4 ADD AND SWAP1 POP SWAP2 SWAP1 POP JUMP JUMPDEST PUSH32 0x4E487B7100000000000000000000000000000000000000000000000000000000 PUSH0 MSTORE PUSH1 0x41 PUSH1 0x4 MSTORE PUSH1 0x24 PUSH0 REVERT JUMPDEST PUSH2 0x1872 DUP3 PUSH2 0x182C JUMP JUMPDEST DUP2 ADD DUP2 DUP2 LT PUSH8 0xFFFFFFFFFFFFFFFF DUP3 GT OR ISZERO PUSH2 0x1891 JUMPI PUSH2 0x1890 PUSH2 0x183C JUMP JUMPDEST JUMPDEST DUP1 PUSH1 0x40 MSTORE POP POP POP JUMP JUMPDEST PUSH0 PUSH2 0x18A3 PUSH2 0x15F0 JUMP JUMPDEST SWAP1 POP PUSH2 0x18AF DUP3 DUP3 PUSH2 0x1869 JUMP JUMPDEST SWAP2 SWAP1 POP JUMP JUMPDEST PUSH0 PUSH8 0xFFFFFFFFFFFFFFFF DUP3 GT ISZERO PUSH2 0x18CE JUMPI PUSH2 0x18CD PUSH2 0x183C JUMP JUMPDEST JUMPDEST PUSH1 0x20 DUP3 MUL SWAP1 POP PUSH1 0x20 DUP2 ADD SWAP1 POP SWAP2 SWAP1 POP JUMP JUMPDEST PUSH0 DUP1 REVERT JUMPDEST PUSH0 PUSH2 0x18F5 PUSH2 0x18F0 DUP5 PUSH2 0x18B4 JUMP JUMPDEST PUSH2 0x189A JUMP JUMPDEST SWAP1 POP DUP1 DUP4 DUP3 MSTORE PUSH1 0x20 DUP3 ADD SWAP1 POP PUSH1 0x20 DUP5 MUL DUP4 ADD DUP6 DUP2 GT ISZERO PUSH2 0x1918 JUMPI PUSH2 0x1917 PUSH2 0x18DF JUMP JUMPDEST JUMPDEST DUP4 JUMPDEST DUP2 DUP2 LT ISZERO PUSH2 0x1941 JUMPI DUP1 PUSH2 0x192D DUP9 DUP3 PUSH2 0x16FA JUMP JUMPDEST DUP5 MSTORE PUSH1 0x20 DUP5 ADD SWAP4 POP POP PUSH1 0x20 DUP2 ADD SWAP1 POP PUSH2 0x191A JUMP JUMPDEST POP POP POP SWAP4 SWAP3 POP POP POP JUMP JUMPDEST PUSH0 DUP3 PUSH1 0x1F DUP4 ADD SLT PUSH2 0x195F JUMPI PUSH2 0x195E PUSH2 0x1828 JUMP JUMPDEST JUMPDEST DUP2 CALLDATALOAD PUSH2 0x196F DUP5 DUP3 PUSH1 0x20 DUP7 ADD PUSH2 0x18E3 JUMP JUMPDEST SWAP2 POP POP SWAP3 SWAP2 POP POP JUMP JUMPDEST PUSH0 PUSH8 0xFFFFFFFFFFFFFFFF DUP3 GT ISZERO PUSH2 0x1992 JUMPI PUSH2 0x1991 PUSH2 0x183C JUMP JUMPDEST JUMPDEST PUSH1 0x20 DUP3 MUL SWAP1 POP PUSH1 0x20 DUP2 ADD SWAP1 POP SWAP2 SWAP1 POP JUMP JUMPDEST PUSH0 PUSH4 0xFFFFFFFF DUP3 AND SWAP1 POP SWAP2 SWAP1 POP JUMP JUMPDEST PUSH2 0x19BB DUP2 PUSH2 0x19A3 JUMP JUMPDEST DUP2 EQ PUSH2 0x19C5 JUMPI PUSH0 DUP1 REVERT JUMPDEST POP JUMP JUMPDEST PUSH0 DUP2 CALLDATALOAD SWAP1 POP PUSH2 0x19D6 DUP2 PUSH2 0x19B2 JUMP JUMPDEST SWAP3 SWAP2 POP POP JUMP JUMPDEST PUSH0 PUSH2 0x19EE PUSH2 0x19E9 DUP5 PUSH2 0x1978 JUMP JUMPDEST PUSH2 0x189A JUMP JUMPDEST SWAP1 POP DUP1 DUP4 DUP3 MSTORE PUSH1 0x20 DUP3 ADD SWAP1 POP PUSH1 0x20 DUP5 MUL DUP4 ADD DUP6 DUP2 GT ISZERO PUSH2 0x1A11 JUMPI PUSH2 0x1A10 PUSH2 0x18DF JUMP JUMPDEST JUMPDEST DUP4 JUMPDEST DUP2 DUP2 LT ISZERO PUSH2 0x1A3A JUMPI DUP1 PUSH2 0x1A26 DUP9 DUP3 PUSH2 0x19C8 JUMP JUMPDEST DUP5 MSTORE PUSH1 0x20 DUP5 ADD SWAP4 POP POP PUSH1 0x20 DUP2 ADD SWAP1 POP PUSH2 0x1A13 JUMP JUMPDEST POP POP POP SWAP4 SWAP3 POP POP POP JUMP JUMPDEST PUSH0 DUP3 PUSH1 0x1F DUP4 ADD SLT PUSH2 0x1A58 JUMPI PUSH2 0x1A57 PUSH2 0x1828 JUMP JUMPDEST JUMPDEST DUP2 CALLDATALOAD PUSH2 0x1A68 DUP5 DUP3 PUSH1 0x20 DUP7 ADD PUSH2 0x19DC JUMP JUMPDEST SWAP2 POP POP SWAP3 SWAP2 POP POP JUMP JUMPDEST PUSH0 DUP1 PUSH0 DUP1 PUSH0 PUSH1 0xA0 DUP7 DUP9 SUB SLT ISZERO PUSH2 0x1A8A JUMPI PUSH2 0x1A89 PUSH2 0x15F9 JUMP JUMPDEST JUMPDEST PUSH0 DUP7 ADD CALLDATALOAD PUSH8 0xFFFFFFFFFFFFFFFF DUP2 GT ISZERO PUSH2 0x1AA7 JUMPI PUSH2 0x1AA6 PUSH2 0x15FD JUMP JUMPDEST JUMPDEST PUSH2 0x1AB3 DUP9 DUP3 DUP10 ADD PUSH2 0x194B JUMP JUMPDEST SWAP6 POP POP PUSH1 0x20 DUP7 ADD CALLDATALOAD PUSH8 0xFFFFFFFFFFFFFFFF DUP2 GT ISZERO PUSH2 0x1AD4 JUMPI PUSH2 0x1AD3 PUSH2 0x15FD JUMP JUMPDEST JUMPDEST PUSH2 0x1AE0 DUP9 DUP3 DUP10 ADD PUSH2 0x1A44 JUMP JUMPDEST SWAP5 POP POP PUSH1 0x40 DUP7 ADD CALLDATALOAD PUSH8 0xFFFFFFFFFFFFFFFF DUP2 GT ISZERO PUSH2 0x1B01 JUMPI PUSH2 0x1B00 PUSH2 0x15FD JUMP JUMPDEST JUMPDEST PUSH2 0x1B0D DUP9 DUP3 DUP10 ADD PUSH2 0x1A44 JUMP JUMPDEST SWAP4 POP POP PUSH1 0x60 DUP7 ADD CALLDATALOAD PUSH8 0xFFFFFFFFFFFFFFFF DUP2 GT ISZERO PUSH2 0x1B2E JUMPI PUSH2 0x1B2D PUSH2 0x15FD JUMP JUMPDEST JUMPDEST PUSH2 0x1B3A DUP9 DUP3 DUP10 ADD PUSH2 0x1A44 JUMP JUMPDEST SWAP3 POP POP PUSH1 0x80 DUP7 ADD CALLDATALOAD PUSH8 0xFFFFFFFFFFFFFFFF DUP2 GT ISZERO PUSH2 0x1B5B JUMPI PUSH2 0x1B5A PUSH2 0x15FD JUMP JUMPDEST JUMPDEST PUSH2 0x1B67 DUP9 DUP3 DUP10 ADD PUSH2 0x1A44 JUMP JUMPDEST SWAP2 POP POP SWAP3 SWAP6 POP SWAP3 SWAP6 SWAP1 SWAP4 POP JUMP JUMPDEST PUSH0 DUP1 PUSH1 0x40 DUP4 DUP6 SUB SLT ISZERO PUSH2 0x1B8A JUMPI PUSH2 0x1B89 PUSH2 0x15F9 JUMP JUMPDEST JUMPDEST PUSH0 PUSH2 0x1B97 DUP6 DUP3 DUP7 ADD PUSH2 0x17C1 JUMP JUMPDEST SWAP3 POP POP PUSH1 0x20 PUSH2 0x1BA8 DUP6 DUP3 DUP7 ADD PUSH2 0x16FA JUMP JUMPDEST SWAP2 POP POP SWAP3 POP SWAP3 SWAP1 POP JUMP JUMPDEST PUSH0 PUSH1 0x20 DUP3 ADD SWAP1 POP PUSH2 0x1BC5 PUSH0 DUP4 ADD DUP5 PUSH2 0x1742 JUMP JUMPDEST SWAP3 SWAP2 POP POP JUMP JUMPDEST PUSH2 0x1BD4 DUP2 PUSH2 0x16D3 JUMP JUMPDEST DUP3 MSTORE POP POP JUMP JUMPDEST PUSH0 PUSH1 0x20 DUP3 ADD SWAP1 POP PUSH2 0x1BED PUSH0 DUP4 ADD DUP5 PUSH2 0x1BCB JUMP JUMPDEST SWAP3 SWAP2 POP POP JUMP JUMPDEST PUSH2 0x1BFC DUP2 PUSH2 0x19A3 JUMP JUMPDEST DUP3 MSTORE POP POP JUMP JUMPDEST PUSH0 PUSH1 0xA0 DUP3 ADD SWAP1 POP PUSH2 0x1C15 PUSH0 DUP4 ADD DUP9 PUSH2 0x1BF3 JUMP JUMPDEST PUSH2 0x1C22 PUSH1 0x20 DUP4 ADD DUP8 PUSH2 0x1742 JUMP JUMPDEST PUSH2 0x1C2F PUSH1 0x40 DUP4 ADD DUP7 PUSH2 0x1BF3 JUMP JUMPDEST PUSH2 0x1C3C PUSH1 0x60 DUP4 ADD DUP6 PUSH2 0x1BF3 JUMP JUMPDEST PUSH2 0x1C49 PUSH1 0x80 DUP4 ADD DUP5 PUSH2 0x1BF3 JUMP JUMPDEST SWAP7 SWAP6 POP POP POP POP POP POP JUMP JUMPDEST PUSH2 0x1C5C DUP2 PUSH2 0x1739 JUMP JUMPDEST DUP2 EQ PUSH2 0x1C66 JUMPI PUSH0 DUP1 REVERT JUMPDEST POP JUMP JUMPDEST PUSH0 DUP2 CALLDATALOAD SWAP1 POP PUSH2 0x1C77 DUP2 PUSH2 0x1C53 JUMP JUMPDEST SWAP3 SWAP2 POP POP JUMP JUMPDEST PUSH0 PUSH1 0x20 DUP3 DUP5 SUB SLT ISZERO PUSH2 0x1C92 JUMPI PUSH2 0x1C91 PUSH2 0x15F9 JUMP JUMPDEST JUMPDEST PUSH0 PUSH2 0x1C9F DUP5 DUP3 DUP6 ADD PUSH2 0x1C69 JUMP JUMPDEST SWAP2 POP POP SWAP3 SWAP2 POP POP JUMP JUMPDEST PUSH0 DUP2 SWAP1 POP SWAP2 SWAP1 POP JUMP JUMPDEST PUSH0 PUSH2 0x1CCB PUSH2 0x1CC6 PUSH2 0x1CC1 DUP5 PUSH2 0x16B4 JUMP JUMPDEST PUSH2 0x1CA8 JUMP JUMPDEST PUSH2 0x16B4 JUMP JUMPDEST SWAP1 POP SWAP2 SWAP1 POP JUMP JUMPDEST PUSH0 PUSH2 0x1CDC DUP3 PUSH2 0x1CB1 JUMP JUMPDEST SWAP1 POP SWAP2 SWAP1 POP JUMP JUMPDEST PUSH0 PUSH2 0x1CED DUP3 PUSH2 0x1CD2 JUMP JUMPDEST SWAP1 POP SWAP2 SWAP1 POP JUMP JUMPDEST PUSH2 0x1CFD DUP2 PUSH2 0x1CE3 JUMP JUMPDEST DUP3 MSTORE POP POP JUMP JUMPDEST PUSH0 PUSH1 0x20 DUP3 ADD SWAP1 POP PUSH2 0x1D16 PUSH0 DUP4 ADD DUP5 PUSH2 0x1CF4 JUMP JUMPDEST SWAP3 SWAP2 POP POP JUMP JUMPDEST PUSH0 PUSH8 0xFFFFFFFFFFFFFFFF DUP3 AND SWAP1 POP SWAP2 SWAP1 POP JUMP JUMPDEST PUSH32 0x4E487B7100000000000000000000000000000000000000000000000000000000 PUSH0 MSTORE PUSH1 0x11 PUSH1 0x4 MSTORE PUSH1 0x24 PUSH0 REVERT JUMPDEST PUSH0 PUSH2 0x1D66 DUP3 PUSH2 0x1D1C JUMP JUMPDEST SWAP2 POP PUSH2 0x1D71 DUP4 PUSH2 0x1D1C JUMP JUMPDEST SWAP3 POP DUP3 DUP3 MUL PUSH2 0x1D7F DUP2 PUSH2 0x1D1C JUMP JUMPDEST SWAP2 POP DUP1 DUP3 EQ PUSH2 0x1D91 JUMPI PUSH2 0x1D90 PUSH2 0x1D2F JUMP JUMPDEST JUMPDEST POP SWAP3 SWAP2 POP POP JUMP JUMPDEST PUSH32 0x4E487B7100000000000000000000000000000000000000000000000000000000 PUSH0 MSTORE PUSH1 0x32 PUSH1 0x4 MSTORE PUSH1 0x24 PUSH0 REVERT JUMPDEST PUSH0 PUSH2 0x1DCF DUP3 PUSH2 0x19A3 JUMP JUMPDEST SWAP2 POP PUSH2 0x1DDA DUP4 PUSH2 0x19A3 JUMP JUMPDEST SWAP3 POP DUP3 DUP3 ADD SWAP1 POP PUSH4 0xFFFFFFFF DUP2 GT ISZERO PUSH2 0x1DF6 JUMPI PUSH2 0x1DF5 PUSH2 0x1D2F JUMP JUMPDEST JUMPDEST SWAP3 SWAP2 POP POP JUMP JUMPDEST PUSH0 PUSH2 0x1E06 DUP3 PUSH2 0x1739 JUMP JUMPDEST SWAP2 POP PUSH2 0x1E11 DUP4 PUSH2 0x1739 JUMP JUMPDEST SWAP3 POP DUP3 DUP3 MUL PUSH2 0x1E1F DUP2 PUSH2 0x1739 JUMP JUMPDEST SWAP2 POP DUP3 DUP3 DIV DUP5 EQ DUP4 ISZERO OR PUSH2 0x1E36 JUMPI PUSH2 0x1E35 PUSH2 0x1D2F JUMP JUMPDEST JUMPDEST POP SWAP3 SWAP2 POP POP JUMP JUMPDEST PUSH0 PUSH1 0xFF DUP3 AND SWAP1 POP SWAP2 SWAP1 POP JUMP JUMPDEST PUSH0 PUSH2 0x1E53 DUP3 PUSH2 0x1E3D JUMP JUMPDEST SWAP2 POP PUSH1 0xFF DUP3 SUB PUSH2 0x1E66 JUMPI PUSH2 0x1E65 PUSH2 0x1D2F JUMP JUMPDEST JUMPDEST PUSH1 0x1 DUP3 ADD SWAP1 POP SWAP2 SWAP1 POP JUMP JUMPDEST PUSH0 DUP3 DUP3 MSTORE PUSH1 0x20 DUP3 ADD SWAP1 POP SWAP3 SWAP2 POP POP JUMP JUMPDEST PUSH32 0x54686520646973747269627574696F6E206861736E2774207374617274656420 PUSH0 DUP3 ADD MSTORE PUSH32 0x7965740000000000000000000000000000000000000000000000000000000000 PUSH1 0x20 DUP3 ADD MSTORE POP JUMP JUMPDEST PUSH0 PUSH2 0x1EDB PUSH1 0x23 DUP4 PUSH2 0x1E71 JUMP JUMPDEST SWAP2 POP PUSH2 0x1EE6 DUP3 PUSH2 0x1E81 JUMP JUMPDEST PUSH1 0x40 DUP3 ADD SWAP1 POP SWAP2 SWAP1 POP JUMP JUMPDEST PUSH0 PUSH1 0x20 DUP3 ADD SWAP1 POP DUP2 DUP2 SUB PUSH0 DUP4 ADD MSTORE PUSH2 0x1F08 DUP2 PUSH2 0x1ECF JUMP JUMPDEST SWAP1 POP SWAP2 SWAP1 POP JUMP JUMPDEST PUSH32 0x596F7520646F6E2774206861766520616E7920746F6B656E7320746F20636C61 PUSH0 DUP3 ADD MSTORE PUSH32 0x696D000000000000000000000000000000000000000000000000000000000000 PUSH1 0x20 DUP3 ADD MSTORE POP JUMP JUMPDEST PUSH0 PUSH2 0x1F69 PUSH1 0x22 DUP4 PUSH2 0x1E71 JUMP JUMPDEST SWAP2 POP PUSH2 0x1F74 DUP3 PUSH2 0x1F0F JUMP JUMPDEST PUSH1 0x40 DUP3 ADD SWAP1 POP SWAP2 SWAP1 POP JUMP JUMPDEST PUSH0 PUSH1 0x20 DUP3 ADD SWAP1 POP DUP2 DUP2 SUB PUSH0 DUP4 ADD MSTORE PUSH2 0x1F96 DUP2 PUSH2 0x1F5D JUMP JUMPDEST SWAP1 POP SWAP2 SWAP1 POP JUMP JUMPDEST PUSH0 PUSH2 0x1FA7 DUP3 PUSH2 0x1739 JUMP JUMPDEST SWAP2 POP PUSH2 0x1FB2 DUP4 PUSH2 0x1739 JUMP JUMPDEST SWAP3 POP DUP3 DUP3 ADD SWAP1 POP DUP1 DUP3 GT ISZERO PUSH2 0x1FCA JUMPI PUSH2 0x1FC9 PUSH2 0x1D2F JUMP JUMPDEST JUMPDEST SWAP3 SWAP2 POP POP JUMP JUMPDEST PUSH0 PUSH1 0x40 DUP3 ADD SWAP1 POP PUSH2 0x1FE3 PUSH0 DUP4 ADD DUP6 PUSH2 0x1BCB JUMP JUMPDEST PUSH2 0x1FF0 PUSH1 0x20 DUP4 ADD DUP5 PUSH2 0x1742 JUMP JUMPDEST SWAP4 SWAP3 POP POP POP JUMP JUMPDEST PUSH32 0x54686520746F6B656E20646973747269627574696F6E2068617320616C726561 PUSH0 DUP3 ADD MSTORE PUSH32 0x6479207374617274656400000000000000000000000000000000000000000000 PUSH1 0x20 DUP3 ADD MSTORE POP JUMP JUMPDEST PUSH0 PUSH2 0x2051 PUSH1 0x2A DUP4 PUSH2 0x1E71 JUMP JUMPDEST SWAP2 POP PUSH2 0x205C DUP3 PUSH2 0x1FF7 JUMP JUMPDEST PUSH1 0x40 DUP3 ADD SWAP1 POP SWAP2 SWAP1 POP JUMP JUMPDEST PUSH0 PUSH1 0x20 DUP3 ADD SWAP1 POP DUP2 DUP2 SUB PUSH0 DUP4 ADD MSTORE PUSH2 0x207E DUP2 PUSH2 0x2045 JUMP JUMPDEST SWAP1 POP SWAP2 SWAP1 POP JUMP JUMPDEST PUSH0 PUSH2 0x208F DUP3 PUSH2 0x1739 JUMP JUMPDEST SWAP2 POP PUSH2 0x209A DUP4 PUSH2 0x1739 JUMP JUMPDEST SWAP3 POP DUP3 DUP3 SUB SWAP1 POP DUP2 DUP2 GT ISZERO PUSH2 0x20B2 JUMPI PUSH2 0x20B1 PUSH2 0x1D2F JUMP JUMPDEST JUMPDEST SWAP3 SWAP2 POP POP JUMP JUMPDEST PUSH32 0x4E487B7100000000000000000000000000000000000000000000000000000000 PUSH0 MSTORE PUSH1 0x12 PUSH1 0x4 MSTORE PUSH1 0x24 PUSH0 REVERT JUMPDEST PUSH0 PUSH2 0x20EF DUP3 PUSH2 0x1739 JUMP JUMPDEST SWAP2 POP PUSH2 0x20FA DUP4 PUSH2 0x1739 JUMP JUMPDEST SWAP3 POP DUP3 PUSH2 0x210A JUMPI PUSH2 0x2109 PUSH2 0x20B8 JUMP JUMPDEST JUMPDEST DUP3 DUP3 DIV SWAP1 POP SWAP3 SWAP2 POP POP JUMP JUMPDEST PUSH32 0x5265656E7472616E637947756172643A207265656E7472616E742063616C6C00 PUSH0 DUP3 ADD MSTORE POP JUMP JUMPDEST PUSH0 PUSH2 0x2149 PUSH1 0x1F DUP4 PUSH2 0x1E71 JUMP JUMPDEST SWAP2 POP PUSH2 0x2154 DUP3 PUSH2 0x2115 JUMP JUMPDEST PUSH1 0x20 DUP3 ADD SWAP1 POP SWAP2 SWAP1 POP JUMP JUMPDEST PUSH0 PUSH1 0x20 DUP3 ADD SWAP1 POP DUP2 DUP2 SUB PUSH0 DUP4 ADD MSTORE PUSH2 0x2176 DUP2 PUSH2 0x213D JUMP JUMPDEST SWAP1 POP SWAP2 SWAP1 POP JUMP JUMPDEST PUSH0 PUSH1 0x40 DUP3 ADD SWAP1 POP PUSH2 0x2190 PUSH0 DUP4 ADD DUP6 PUSH2 0x1BCB JUMP JUMPDEST PUSH2 0x219D PUSH1 0x20 DUP4 ADD DUP5 PUSH2 0x1800 JUMP JUMPDEST SWAP4 SWAP3 POP POP POP JUMP INVALID LOG2 PUSH5 0x6970667358 0x22 SLT KECCAK256 0x4E 0xB8 EXTCODEHASH 0xDE PUSH23 0xD4685B380B45C7815ACA99B4D31F1011B862FA5AAA6BE5 JUMPDEST 0x2F PUSH16 0xC064736F6C6343000818003300000000 "
				},
				"gasEstimates": {
					"creation": {
						"codeDepositCost": "1733200",
						"executionCost": "infinite",
						"totalCost": "infinite"
					},
					"external": {
						"DEFAULT_ADMIN_ROLE()": "375",
						"LONG()": "392",
						"MEDIUM()": "391",
						"SHORT()": "436",
						"SHORT_CLIFF()": "392",
						"accountInfo(address)": "infinite",
						"claimTokens()": "infinite",
						"claimableTokens(address)": "infinite",
						"claimedTokens(address)": "2968",
						"getRoleAdmin(bytes32)": "infinite",
						"grantRole(bytes32,address)": "infinite",
						"hasRole(bytes32,address)": "3145",
						"info(address)": "infinite",
						"owner()": "2648",
						"renounceOwnership()": "infinite",
						"renounceRole(bytes32,address)": "infinite",
						"revokeRole(bytes32,address)": "infinite",
						"setAccountsInfo(address[],uint32[],uint32[],uint32[],uint32[])": "infinite",
						"setStart(uint256)": "infinite",
						"start()": "2447",
						"supportsInterface(bytes4)": "741",
						"token()": "infinite",
						"transferOwnership(address)": "infinite",
						"vestedTokens(address)": "infinite"
					},
					"internal": {
						"_claimableTokens(address)": "infinite",
						"_vestedTokens(address)": "infinite"
					}
				},
				"methodIdentifiers": {
					"DEFAULT_ADMIN_ROLE()": "a217fddf",
					"LONG()": "561cce0a",
					"MEDIUM()": "edee709e",
					"SHORT()": "a871da91",
					"SHORT_CLIFF()": "a3da71b8",
					"accountInfo(address)": "a7310b58",
					"claimTokens()": "48c54b9d",
					"claimableTokens(address)": "84d24226",
					"claimedTokens(address)": "a960c65f",
					"getRoleAdmin(bytes32)": "248a9ca3",
					"grantRole(bytes32,address)": "2f2ff15d",
					"hasRole(bytes32,address)": "91d14854",
					"info(address)": "0aae7a6b",
					"owner()": "8da5cb5b",
					"renounceOwnership()": "715018a6",
					"renounceRole(bytes32,address)": "36568abe",
					"revokeRole(bytes32,address)": "d547741f",
					"setAccountsInfo(address[],uint32[],uint32[],uint32[],uint32[])": "2a484675",
					"setStart(uint256)": "f6a03ebf",
					"start()": "be9a6555",
					"supportsInterface(bytes4)": "01ffc9a7",
					"token()": "fc0c546a",
					"transferOwnership(address)": "f2fde38b",
					"vestedTokens(address)": "3dee0397"
				}
			},
			"storageLayout": {
				"storage": [
					{
						"astId": 387,
						"contract": "Distribution.sol:Distribution",
						"label": "_owner",
						"offset": 0,
						"slot": "0",
						"type": "t_address"
					},
					{
						"astId": 26,
						"contract": "Distribution.sol:Distribution",
						"label": "_roles",
						"offset": 0,
						"slot": "1",
						"type": "t_mapping(t_bytes32,t_struct(RoleData)21_storage)"
					},
					{
						"astId": 674,
						"contract": "Distribution.sol:Distribution",
						"label": "_status",
						"offset": 0,
						"slot": "2",
						"type": "t_uint256"
					},
					{
						"astId": 1527,
						"contract": "Distribution.sol:Distribution",
						"label": "token",
						"offset": 0,
						"slot": "3",
						"type": "t_contract(Token)2066"
					},
					{
						"astId": 1529,
						"contract": "Distribution.sol:Distribution",
						"label": "start",
						"offset": 0,
						"slot": "4",
						"type": "t_uint256"
					},
					{
						"astId": 1563,
						"contract": "Distribution.sol:Distribution",
						"label": "accountInfo",
						"offset": 0,
						"slot": "5",
						"type": "t_mapping(t_address,t_struct(Info)1558_storage)"
					}
				],
				"types": {
					"t_address": {
						"encoding": "inplace",
						"label": "address",
						"numberOfBytes": "20"
					},
					"t_bool": {
						"encoding": "inplace",
						"label": "bool",
						"numberOfBytes": "1"
					},
					"t_bytes32": {
						"encoding": "inplace",
						"label": "bytes32",
						"numberOfBytes": "32"
					},
					"t_contract(Token)2066": {
						"encoding": "inplace",
						"label": "contract Token",
						"numberOfBytes": "20"
					},
					"t_mapping(t_address,t_bool)": {
						"encoding": "mapping",
						"key": "t_address",
						"label": "mapping(address => bool)",
						"numberOfBytes": "32",
						"value": "t_bool"
					},
					"t_mapping(t_address,t_struct(Info)1558_storage)": {
						"encoding": "mapping",
						"key": "t_address",
						"label": "mapping(address => struct Distribution.Info)",
						"numberOfBytes": "32",
						"value": "t_struct(Info)1558_storage"
					},
					"t_mapping(t_bytes32,t_struct(RoleData)21_storage)": {
						"encoding": "mapping",
						"key": "t_bytes32",
						"label": "mapping(bytes32 => struct AccessControl.RoleData)",
						"numberOfBytes": "32",
						"value": "t_struct(RoleData)21_storage"
					},
					"t_struct(Info)1558_storage": {
						"encoding": "inplace",
						"label": "struct Distribution.Info",
						"members": [
							{
								"astId": 1549,
								"contract": "Distribution.sol:Distribution",
								"label": "provided",
								"offset": 0,
								"slot": "0",
								"type": "t_uint32"
							},
							{
								"astId": 1551,
								"contract": "Distribution.sol:Distribution",
								"label": "claimed",
								"offset": 0,
								"slot": "1",
								"type": "t_uint256"
							},
							{
								"astId": 1553,
								"contract": "Distribution.sol:Distribution",
								"label": "long",
								"offset": 0,
								"slot": "2",
								"type": "t_uint32"
							},
							{
								"astId": 1555,
								"contract": "Distribution.sol:Distribution",
								"label": "medium",
								"offset": 4,
								"slot": "2",
								"type": "t_uint32"
							},
							{
								"astId": 1557,
								"contract": "Distribution.sol:Distribution",
								"label": "short",
								"offset": 8,
								"slot": "2",
								"type": "t_uint32"
							}
						],
						"numberOfBytes": "96"
					},
					"t_struct(RoleData)21_storage": {
						"encoding": "inplace",
						"label": "struct AccessControl.RoleData",
						"members": [
							{
								"astId": 18,
								"contract": "Distribution.sol:Distribution",
								"label": "hasRole",
								"offset": 0,
								"slot": "0",
								"type": "t_mapping(t_address,t_bool)"
							},
							{
								"astId": 20,
								"contract": "Distribution.sol:Distribution",
								"label": "adminRole",
								"offset": 0,
								"slot": "1",
								"type": "t_bytes32"
							}
						],
						"numberOfBytes": "64"
					},
					"t_uint256": {
						"encoding": "inplace",
						"label": "uint256",
						"numberOfBytes": "32"
					},
					"t_uint32": {
						"encoding": "inplace",
						"label": "uint32",
						"numberOfBytes": "4"
					}
				}
			},
			"userdoc": {
				"kind": "user",
				"methods": {},
				"version": 1
			}
		}
	}
}